{
  "contractName": "Deccert",
  "abi": [
    {
      "inputs": [],
      "stateMutability": "nonpayable",
      "type": "constructor"
    },
    {
      "anonymous": false,
      "inputs": [
        {
          "indexed": true,
          "internalType": "address",
          "name": "owner",
          "type": "address"
        },
        {
          "indexed": true,
          "internalType": "address",
          "name": "approved",
          "type": "address"
        },
        {
          "indexed": true,
          "internalType": "uint256",
          "name": "tokenId",
          "type": "uint256"
        }
      ],
      "name": "Approval",
      "type": "event"
    },
    {
      "anonymous": false,
      "inputs": [
        {
          "indexed": true,
          "internalType": "address",
          "name": "owner",
          "type": "address"
        },
        {
          "indexed": true,
          "internalType": "address",
          "name": "operator",
          "type": "address"
        },
        {
          "indexed": false,
          "internalType": "bool",
          "name": "approved",
          "type": "bool"
        }
      ],
      "name": "ApprovalForAll",
      "type": "event"
    },
    {
      "anonymous": false,
      "inputs": [
        {
          "indexed": true,
          "internalType": "address",
          "name": "previousOwner",
          "type": "address"
        },
        {
          "indexed": true,
          "internalType": "address",
          "name": "newOwner",
          "type": "address"
        }
      ],
      "name": "OwnershipTransferred",
      "type": "event"
    },
    {
      "anonymous": false,
      "inputs": [
        {
          "indexed": true,
          "internalType": "address",
          "name": "from",
          "type": "address"
        },
        {
          "indexed": true,
          "internalType": "address",
          "name": "to",
          "type": "address"
        },
        {
          "indexed": true,
          "internalType": "uint256",
          "name": "tokenId",
          "type": "uint256"
        }
      ],
      "name": "Transfer",
      "type": "event"
    },
    {
      "inputs": [
        {
          "internalType": "address",
          "name": "to",
          "type": "address"
        },
        {
          "internalType": "uint256",
          "name": "tokenId",
          "type": "uint256"
        }
      ],
      "name": "approve",
      "outputs": [],
      "stateMutability": "nonpayable",
      "type": "function"
    },
    {
      "inputs": [
        {
          "internalType": "address",
          "name": "owner",
          "type": "address"
        }
      ],
      "name": "balanceOf",
      "outputs": [
        {
          "internalType": "uint256",
          "name": "",
          "type": "uint256"
        }
      ],
      "stateMutability": "view",
      "type": "function",
      "constant": true
    },
    {
      "inputs": [
        {
          "internalType": "uint256",
          "name": "tokenId",
          "type": "uint256"
        }
      ],
      "name": "getApproved",
      "outputs": [
        {
          "internalType": "address",
          "name": "",
          "type": "address"
        }
      ],
      "stateMutability": "view",
      "type": "function",
      "constant": true
    },
    {
      "inputs": [
        {
          "internalType": "address",
          "name": "owner",
          "type": "address"
        },
        {
          "internalType": "address",
          "name": "operator",
          "type": "address"
        }
      ],
      "name": "isApprovedForAll",
      "outputs": [
        {
          "internalType": "bool",
          "name": "",
          "type": "bool"
        }
      ],
      "stateMutability": "view",
      "type": "function",
      "constant": true
    },
    {
      "inputs": [],
      "name": "name",
      "outputs": [
        {
          "internalType": "string",
          "name": "",
          "type": "string"
        }
      ],
      "stateMutability": "view",
      "type": "function",
      "constant": true
    },
    {
      "inputs": [],
      "name": "owner",
      "outputs": [
        {
          "internalType": "address",
          "name": "",
          "type": "address"
        }
      ],
      "stateMutability": "view",
      "type": "function",
      "constant": true
    },
    {
      "inputs": [
        {
          "internalType": "uint256",
          "name": "tokenId",
          "type": "uint256"
        }
      ],
      "name": "ownerOf",
      "outputs": [
        {
          "internalType": "address",
          "name": "",
          "type": "address"
        }
      ],
      "stateMutability": "view",
      "type": "function",
      "constant": true
    },
    {
      "inputs": [],
      "name": "renounceOwnership",
      "outputs": [],
      "stateMutability": "nonpayable",
      "type": "function"
    },
    {
      "inputs": [
        {
          "internalType": "address",
          "name": "from",
          "type": "address"
        },
        {
          "internalType": "address",
          "name": "to",
          "type": "address"
        },
        {
          "internalType": "uint256",
          "name": "tokenId",
          "type": "uint256"
        }
      ],
      "name": "safeTransferFrom",
      "outputs": [],
      "stateMutability": "nonpayable",
      "type": "function"
    },
    {
      "inputs": [
        {
          "internalType": "address",
          "name": "from",
          "type": "address"
        },
        {
          "internalType": "address",
          "name": "to",
          "type": "address"
        },
        {
          "internalType": "uint256",
          "name": "tokenId",
          "type": "uint256"
        },
        {
          "internalType": "bytes",
          "name": "_data",
          "type": "bytes"
        }
      ],
      "name": "safeTransferFrom",
      "outputs": [],
      "stateMutability": "nonpayable",
      "type": "function"
    },
    {
      "inputs": [
        {
          "internalType": "address",
          "name": "operator",
          "type": "address"
        },
        {
          "internalType": "bool",
          "name": "approved",
          "type": "bool"
        }
      ],
      "name": "setApprovalForAll",
      "outputs": [],
      "stateMutability": "nonpayable",
      "type": "function"
    },
    {
      "inputs": [
        {
          "internalType": "bytes4",
          "name": "interfaceId",
          "type": "bytes4"
        }
      ],
      "name": "supportsInterface",
      "outputs": [
        {
          "internalType": "bool",
          "name": "",
          "type": "bool"
        }
      ],
      "stateMutability": "view",
      "type": "function",
      "constant": true
    },
    {
      "inputs": [],
      "name": "symbol",
      "outputs": [
        {
          "internalType": "string",
          "name": "",
          "type": "string"
        }
      ],
      "stateMutability": "view",
      "type": "function",
      "constant": true
    },
    {
      "inputs": [
        {
          "internalType": "uint256",
          "name": "tokenId",
          "type": "uint256"
        }
      ],
      "name": "tokenURI",
      "outputs": [
        {
          "internalType": "string",
          "name": "",
          "type": "string"
        }
      ],
      "stateMutability": "view",
      "type": "function",
      "constant": true
    },
    {
      "inputs": [
        {
          "internalType": "address",
          "name": "from",
          "type": "address"
        },
        {
          "internalType": "address",
          "name": "to",
          "type": "address"
        },
        {
          "internalType": "uint256",
          "name": "tokenId",
          "type": "uint256"
        }
      ],
      "name": "transferFrom",
      "outputs": [],
      "stateMutability": "nonpayable",
      "type": "function"
    },
    {
      "inputs": [
        {
          "internalType": "address",
          "name": "newOwner",
          "type": "address"
        }
      ],
      "name": "transferOwnership",
      "outputs": [],
      "stateMutability": "nonpayable",
      "type": "function"
    },
    {
      "inputs": [
        {
          "internalType": "address",
          "name": "_user",
          "type": "address"
        },
        {
          "internalType": "uint256",
          "name": "_howMuch",
          "type": "uint256"
        },
        {
          "internalType": "string",
          "name": "_uri",
          "type": "string"
        }
      ],
      "name": "giveMintingPower",
      "outputs": [],
      "stateMutability": "nonpayable",
      "type": "function"
    },
    {
      "inputs": [
        {
          "internalType": "string",
          "name": "_name",
          "type": "string"
        },
        {
          "internalType": "string",
          "name": "_uri",
          "type": "string"
        },
        {
          "internalType": "address",
          "name": "who",
          "type": "address"
        }
      ],
      "name": "ManualMinting",
      "outputs": [
        {
          "internalType": "uint256",
          "name": "",
          "type": "uint256"
        }
      ],
      "stateMutability": "nonpayable",
      "type": "function"
    },
    {
      "inputs": [
        {
          "internalType": "string",
          "name": "_name",
          "type": "string"
        },
        {
          "internalType": "string",
          "name": "_uri",
          "type": "string"
        },
        {
          "internalType": "address",
          "name": "who",
          "type": "address"
        }
      ],
      "name": "PermissionMinting",
      "outputs": [
        {
          "internalType": "uint256",
          "name": "",
          "type": "uint256"
        }
      ],
      "stateMutability": "nonpayable",
      "type": "function"
    },
    {
      "inputs": [
        {
          "internalType": "string",
          "name": "_name",
          "type": "string"
        },
        {
          "internalType": "string",
          "name": "_uri",
          "type": "string"
        },
        {
          "internalType": "address",
          "name": "who",
          "type": "address"
        }
      ],
      "name": "PermissionlessMinting",
      "outputs": [
        {
          "internalType": "uint256",
          "name": "",
          "type": "uint256"
        }
      ],
      "stateMutability": "nonpayable",
      "type": "function"
    },
    {
      "inputs": [
        {
          "internalType": "string",
          "name": "_name",
          "type": "string"
        },
        {
          "internalType": "string",
          "name": "_uri",
          "type": "string"
        },
        {
          "internalType": "address",
          "name": "who",
          "type": "address"
        }
      ],
      "name": "PreMinting",
      "outputs": [
        {
          "internalType": "uint256",
          "name": "",
          "type": "uint256"
        }
      ],
      "stateMutability": "payable",
      "type": "function",
      "payable": true
    },
    {
      "inputs": [
        {
          "internalType": "uint256",
          "name": "tokenId",
          "type": "uint256"
        }
      ],
      "name": "SignNFT",
      "outputs": [],
      "stateMutability": "nonpayable",
      "type": "function"
    },
    {
      "inputs": [
        {
          "internalType": "uint256",
          "name": "tokenId",
          "type": "uint256"
        }
      ],
      "name": "UnsignNFT",
      "outputs": [],
      "stateMutability": "nonpayable",
      "type": "function"
    },
    {
      "inputs": [
        {
          "internalType": "uint256",
          "name": "_index",
          "type": "uint256"
        }
      ],
      "name": "get",
      "outputs": [
        {
          "components": [
            {
              "internalType": "uint256",
              "name": "tokenId",
              "type": "uint256"
            },
            {
              "internalType": "string",
              "name": "name",
              "type": "string"
            },
            {
              "internalType": "address",
              "name": "owner",
              "type": "address"
            },
            {
              "internalType": "address",
              "name": "previusOwner",
              "type": "address"
            },
            {
              "internalType": "uint256",
              "name": "blockNumber",
              "type": "uint256"
            },
            {
              "internalType": "uint256",
              "name": "time",
              "type": "uint256"
            }
          ],
          "internalType": "struct Deccert.Certi",
          "name": "",
          "type": "tuple"
        }
      ],
      "stateMutability": "view",
      "type": "function",
      "constant": true
    },
    {
      "inputs": [],
      "name": "getTotal",
      "outputs": [
        {
          "internalType": "uint256",
          "name": "",
          "type": "uint256"
        }
      ],
      "stateMutability": "view",
      "type": "function",
      "constant": true
    },
    {
      "inputs": [
        {
          "internalType": "string",
          "name": "what",
          "type": "string"
        },
        {
          "internalType": "address",
          "name": "_who",
          "type": "address"
        }
      ],
      "name": "getMintingPower",
      "outputs": [
        {
          "internalType": "uint256",
          "name": "",
          "type": "uint256"
        }
      ],
      "stateMutability": "view",
      "type": "function",
      "constant": true
    }
  ],
  "bytecode": "0x60806040526305f5e100600b553480156200001957600080fd5b506040518060400160405280600781526020017f44656363657274000000000000000000000000000000000000000000000000008152506040518060400160405280600781526020017f444543434552540000000000000000000000000000000000000000000000000081525081600090805190602001906200009e929190620001ae565b508060019080519060200190620000b7929190620001ae565b505050620000da620000ce620000e060201b60201c565b620000e860201b60201c565b620002c3565b600033905090565b6000600760009054906101000a900473ffffffffffffffffffffffffffffffffffffffff16905081600760006101000a81548173ffffffffffffffffffffffffffffffffffffffff021916908373ffffffffffffffffffffffffffffffffffffffff1602179055508173ffffffffffffffffffffffffffffffffffffffff168173ffffffffffffffffffffffffffffffffffffffff167f8be0079c531659141344cd1fd0a4f28419497f9722a3daafe3b4186f6b6457e060405160405180910390a35050565b828054620001bc906200025e565b90600052602060002090601f016020900481019282620001e057600085556200022c565b82601f10620001fb57805160ff19168380011785556200022c565b828001600101855582156200022c579182015b828111156200022b5782518255916020019190600101906200020e565b5b5090506200023b91906200023f565b5090565b5b808211156200025a57600081600090555060010162000240565b5090565b600060028204905060018216806200027757607f821691505b602082108114156200028e576200028d62000294565b5b50919050565b7f4e487b7100000000000000000000000000000000000000000000000000000000600052602260045260246000fd5b61443480620002d36000396000f3fe6080604052600436106101815760003560e01c8063775a25e3116100d1578063977a30931161008a578063c87b56dd11610064578063c87b56dd146105bd578063e985e9c5146105fa578063f2fde38b14610637578063f8a2d7a81461066057610181565b8063977a30931461053b578063a22cb4651461056b578063b88d4fde1461059457610181565b8063775a25e3146104175780638691c69c1461044257806386f642681461047f5780638da5cb5b146104a85780639507d39a146104d357806395d89b411461051057610181565b806342842e0e1161013e5780635fe02c47116101185780635fe02c47146103495780636352211e1461038657806370a08231146103c3578063715018a61461040057610181565b806342842e0e146102a65780634fe86953146102cf578063554e61ec1461030c57610181565b806301ffc9a71461018657806306fdde03146101c3578063081812fc146101ee578063095ea7b31461022b57806323b872dd146102545780632ff9b3951461027d575b600080fd5b34801561019257600080fd5b506101ad60048036038101906101a891906130be565b610689565b6040516101ba919061371a565b60405180910390f35b3480156101cf57600080fd5b506101d861076b565b6040516101e59190613735565b60405180910390f35b3480156101fa57600080fd5b50610215600480360381019061021091906131e3565b6107fd565b60405161022291906136b3565b60405180910390f35b34801561023757600080fd5b50610252600480360381019061024d919061301b565b610882565b005b34801561026057600080fd5b5061027b60048036038101906102769190612f15565b61099a565b005b34801561028957600080fd5b506102a4600480360381019061029f91906131e3565b6109fa565b005b3480156102b257600080fd5b506102cd60048036038101906102c89190612f15565b610b06565b005b3480156102db57600080fd5b506102f660048036038101906102f19190613164565b610b26565b60405161030391906139f9565b60405180910390f35b34801561031857600080fd5b50610333600480360381019061032e9190613164565b610de4565b60405161034091906139f9565b60405180910390f35b34801561035557600080fd5b50610370600480360381019061036b9190613110565b6110a2565b60405161037d91906139f9565b60405180910390f35b34801561039257600080fd5b506103ad60048036038101906103a891906131e3565b611108565b6040516103ba91906136b3565b60405180910390f35b3480156103cf57600080fd5b506103ea60048036038101906103e59190612eb0565b6111ba565b6040516103f791906139f9565b60405180910390f35b34801561040c57600080fd5b50610415611272565b005b34801561042357600080fd5b5061042c6112fa565b60405161043991906139f9565b60405180910390f35b34801561044e57600080fd5b5061046960048036038101906104649190613164565b61130b565b60405161047691906139f9565b60405180910390f35b34801561048b57600080fd5b506104a660048036038101906104a191906131e3565b611533565b005b3480156104b457600080fd5b506104bd61163e565b6040516104ca91906136b3565b60405180910390f35b3480156104df57600080fd5b506104fa60048036038101906104f591906131e3565b611668565b60405161050791906139d7565b60405180910390f35b34801561051c57600080fd5b506105256117f1565b6040516105329190613735565b60405180910390f35b61055560048036038101906105509190613164565b611883565b60405161056291906139f9565b60405180910390f35b34801561057757600080fd5b50610592600480360381019061058d9190612fdf565b611a2f565b005b3480156105a057600080fd5b506105bb60048036038101906105b69190612f64565b611a45565b005b3480156105c957600080fd5b506105e460048036038101906105df91906131e3565b611aa7565b6040516105f19190613735565b60405180910390f35b34801561060657600080fd5b50610621600480360381019061061c9190612ed9565b611bf9565b60405161062e919061371a565b60405180910390f35b34801561064357600080fd5b5061065e60048036038101906106599190612eb0565b611c8d565b005b34801561066c57600080fd5b5061068760048036038101906106829190613057565b611d85565b005b60007f80ac58cd000000000000000000000000000000000000000000000000000000007bffffffffffffffffffffffffffffffffffffffffffffffffffffffff1916827bffffffffffffffffffffffffffffffffffffffffffffffffffffffff1916148061075457507f5b5e139f000000000000000000000000000000000000000000000000000000007bffffffffffffffffffffffffffffffffffffffffffffffffffffffff1916827bffffffffffffffffffffffffffffffffffffffffffffffffffffffff1916145b80610764575061076382611e66565b5b9050919050565b60606000805461077a90613c8a565b80601f01602080910402602001604051908101604052809291908181526020018280546107a690613c8a565b80156107f35780601f106107c8576101008083540402835291602001916107f3565b820191906000526020600020905b8154815290600101906020018083116107d657829003601f168201915b5050505050905090565b600061080882611ed0565b610847576040517f08c379a000000000000000000000000000000000000000000000000000000000815260040161083e90613917565b60405180910390fd5b6004600083815260200190815260200160002060009054906101000a900473ffffffffffffffffffffffffffffffffffffffff169050919050565b600061088d82611108565b90508073ffffffffffffffffffffffffffffffffffffffff168373ffffffffffffffffffffffffffffffffffffffff1614156108fe576040517f08c379a00000000000000000000000000000000000000000000000000000000081526004016108f590613977565b60405180910390fd5b8073ffffffffffffffffffffffffffffffffffffffff1661091d611f3c565b73ffffffffffffffffffffffffffffffffffffffff16148061094c575061094b81610946611f3c565b611bf9565b5b61098b576040517f08c379a000000000000000000000000000000000000000000000000000000000815260040161098290613857565b60405180910390fd5b6109958383611f44565b505050565b6109ab6109a5611f3c565b82611ffd565b6109ea576040517f08c379a00000000000000000000000000000000000000000000000000000000081526004016109e1906139b7565b60405180910390fd5b6109f58383836120db565b505050565b610a02611f3c565b73ffffffffffffffffffffffffffffffffffffffff16610a2061163e565b73ffffffffffffffffffffffffffffffffffffffff1614610a76576040517f08c379a0000000000000000000000000000000000000000000000000000000008152600401610a6d90613937565b60405180910390fd5b600e600082815260200190815260200160002060009054906101000a900460ff1615610ad7576040517f08c379a0000000000000000000000000000000000000000000000000000000008152600401610ace90613997565b60405180910390fd5b6001600e600083815260200190815260200160002060006101000a81548160ff02191690831515021790555050565b610b2183838360405180602001604052806000815250611a45565b505050565b6000826000600c82604051610b3b9190613678565b908152602001604051809103902060003373ffffffffffffffffffffffffffffffffffffffff1673ffffffffffffffffffffffffffffffffffffffff1681526020019081526020016000205411610bc7576040517f08c379a0000000000000000000000000000000000000000000000000000000008152600401610bbe90613817565b60405180910390fd5b600c81604051610bd79190613678565b908152602001604051809103902060003373ffffffffffffffffffffffffffffffffffffffff1673ffffffffffffffffffffffffffffffffffffffff1681526020019081526020016000206000815480929190610c3390613c60565b9190505550610c426008612342565b6000610c4e6008612358565b9050610c5a3382612366565b610c648186612540565b6001600e600083815260200190815260200160002060006101000a81548160ff02191690831515021790555060006040518060c00160405280610ca76008612358565b81526020018881526020018673ffffffffffffffffffffffffffffffffffffffff168152602001600073ffffffffffffffffffffffffffffffffffffffff16815260200143815260200142815250905080600d6000848152602001908152602001600020600082015181600001556020820151816001019080519060200190610d31929190612c72565b5060408201518160020160006101000a81548173ffffffffffffffffffffffffffffffffffffffff021916908373ffffffffffffffffffffffffffffffffffffffff16021790555060608201518160030160006101000a81548173ffffffffffffffffffffffffffffffffffffffff021916908373ffffffffffffffffffffffffffffffffffffffff1602179055506080820151816004015560a082015181600501559050508193505050509392505050565b6000826000600c82604051610df99190613678565b908152602001604051809103902060003373ffffffffffffffffffffffffffffffffffffffff1673ffffffffffffffffffffffffffffffffffffffff1681526020019081526020016000205411610e85576040517f08c379a0000000000000000000000000000000000000000000000000000000008152600401610e7c90613817565b60405180910390fd5b600c81604051610e959190613678565b908152602001604051809103902060003373ffffffffffffffffffffffffffffffffffffffff1673ffffffffffffffffffffffffffffffffffffffff1681526020019081526020016000206000815480929190610ef190613c60565b9190505550610f006008612342565b6000610f0c6008612358565b9050610f183382612366565b610f228186612540565b6001600e600083815260200190815260200160002060006101000a81548160ff02191690831515021790555060006040518060c00160405280610f656008612358565b81526020018881526020018673ffffffffffffffffffffffffffffffffffffffff168152602001600073ffffffffffffffffffffffffffffffffffffffff16815260200143815260200142815250905080600d6000848152602001908152602001600020600082015181600001556020820151816001019080519060200190610fef929190612c72565b5060408201518160020160006101000a81548173ffffffffffffffffffffffffffffffffffffffff021916908373ffffffffffffffffffffffffffffffffffffffff16021790555060608201518160030160006101000a81548173ffffffffffffffffffffffffffffffffffffffff021916908373ffffffffffffffffffffffffffffffffffffffff1602179055506080820151816004015560a082015181600501559050508193505050509392505050565b6000600c836040516110b49190613678565b908152602001604051809103902060008373ffffffffffffffffffffffffffffffffffffffff1673ffffffffffffffffffffffffffffffffffffffff16815260200190815260200160002054905092915050565b6000806002600084815260200190815260200160002060009054906101000a900473ffffffffffffffffffffffffffffffffffffffff169050600073ffffffffffffffffffffffffffffffffffffffff168173ffffffffffffffffffffffffffffffffffffffff1614156111b1576040517f08c379a00000000000000000000000000000000000000000000000000000000081526004016111a890613897565b60405180910390fd5b80915050919050565b60008073ffffffffffffffffffffffffffffffffffffffff168273ffffffffffffffffffffffffffffffffffffffff16141561122b576040517f08c379a000000000000000000000000000000000000000000000000000000000815260040161122290613877565b60405180910390fd5b600360008373ffffffffffffffffffffffffffffffffffffffff1673ffffffffffffffffffffffffffffffffffffffff168152602001908152602001600020549050919050565b61127a611f3c565b73ffffffffffffffffffffffffffffffffffffffff1661129861163e565b73ffffffffffffffffffffffffffffffffffffffff16146112ee576040517f08c379a00000000000000000000000000000000000000000000000000000000081526004016112e590613937565b60405180910390fd5b6112f860006125b4565b565b60006113066008612358565b905090565b6000611315611f3c565b73ffffffffffffffffffffffffffffffffffffffff1661133361163e565b73ffffffffffffffffffffffffffffffffffffffff1614611389576040517f08c379a000000000000000000000000000000000000000000000000000000000815260040161138090613937565b60405180910390fd5b6113936008612342565b600061139f6008612358565b90506113ab3382612366565b6113b58185612540565b6001600e600083815260200190815260200160002060006101000a81548160ff02191690831515021790555060006040518060c001604052806113f86008612358565b81526020018781526020018573ffffffffffffffffffffffffffffffffffffffff1681526020018573ffffffffffffffffffffffffffffffffffffffff16815260200143815260200142815250905080600d6000848152602001908152602001600020600082015181600001556020820151816001019080519060200190611481929190612c72565b5060408201518160020160006101000a81548173ffffffffffffffffffffffffffffffffffffffff021916908373ffffffffffffffffffffffffffffffffffffffff16021790555060608201518160030160006101000a81548173ffffffffffffffffffffffffffffffffffffffff021916908373ffffffffffffffffffffffffffffffffffffffff1602179055506080820151816004015560a0820151816005015590505081925050509392505050565b61153b611f3c565b73ffffffffffffffffffffffffffffffffffffffff1661155961163e565b73ffffffffffffffffffffffffffffffffffffffff16146115af576040517f08c379a00000000000000000000000000000000000000000000000000000000081526004016115a690613937565b60405180910390fd5b600e600082815260200190815260200160002060009054906101000a900460ff1661160f576040517f08c379a000000000000000000000000000000000000000000000000000000000815260040161160690613997565b60405180910390fd5b6000600e600083815260200190815260200160002060006101000a81548160ff02191690831515021790555050565b6000600760009054906101000a900473ffffffffffffffffffffffffffffffffffffffff16905090565b611670612cf8565b600d60008381526020019081526020016000206040518060c0016040529081600082015481526020016001820180546116a890613c8a565b80601f01602080910402602001604051908101604052809291908181526020018280546116d490613c8a565b80156117215780601f106116f657610100808354040283529160200191611721565b820191906000526020600020905b81548152906001019060200180831161170457829003601f168201915b505050505081526020016002820160009054906101000a900473ffffffffffffffffffffffffffffffffffffffff1673ffffffffffffffffffffffffffffffffffffffff1673ffffffffffffffffffffffffffffffffffffffff1681526020016003820160009054906101000a900473ffffffffffffffffffffffffffffffffffffffff1673ffffffffffffffffffffffffffffffffffffffff1673ffffffffffffffffffffffffffffffffffffffff168152602001600482015481526020016005820154815250509050919050565b60606001805461180090613c8a565b80601f016020809104026020016040519081016040528092919081815260200182805461182c90613c8a565b80156118795780601f1061184e57610100808354040283529160200191611879565b820191906000526020600020905b81548152906001019060200180831161185c57829003601f168201915b5050505050905090565b600061188f6008612342565b600061189b6008612358565b90506118a73382612366565b6118b18185612540565b6000600e600083815260200190815260200160002060006101000a81548160ff02191690831515021790555060006040518060c001604052806118f46008612358565b81526020018781526020018573ffffffffffffffffffffffffffffffffffffffff1681526020018573ffffffffffffffffffffffffffffffffffffffff16815260200143815260200142815250905080600d600084815260200190815260200160002060008201518160000155602082015181600101908051906020019061197d929190612c72565b5060408201518160020160006101000a81548173ffffffffffffffffffffffffffffffffffffffff021916908373ffffffffffffffffffffffffffffffffffffffff16021790555060608201518160030160006101000a81548173ffffffffffffffffffffffffffffffffffffffff021916908373ffffffffffffffffffffffffffffffffffffffff1602179055506080820151816004015560a0820151816005015590505081925050509392505050565b611a41611a3a611f3c565b838361267a565b5050565b611a56611a50611f3c565b83611ffd565b611a95576040517f08c379a0000000000000000000000000000000000000000000000000000000008152600401611a8c906139b7565b60405180910390fd5b611aa1848484846127e7565b50505050565b6060611ab282611ed0565b611af1576040517f08c379a0000000000000000000000000000000000000000000000000000000008152600401611ae8906138f7565b60405180910390fd5b6000600660008481526020019081526020016000208054611b1190613c8a565b80601f0160208091040260200160405190810160405280929190818152602001828054611b3d90613c8a565b8015611b8a5780601f10611b5f57610100808354040283529160200191611b8a565b820191906000526020600020905b815481529060010190602001808311611b6d57829003601f168201915b505050505090506000611b9b612843565b9050600081511415611bb1578192505050611bf4565b600082511115611be6578082604051602001611bce92919061368f565b60405160208183030381529060405292505050611bf4565b611bef8461285a565b925050505b919050565b6000600560008473ffffffffffffffffffffffffffffffffffffffff1673ffffffffffffffffffffffffffffffffffffffff16815260200190815260200160002060008373ffffffffffffffffffffffffffffffffffffffff1673ffffffffffffffffffffffffffffffffffffffff16815260200190815260200160002060009054906101000a900460ff16905092915050565b611c95611f3c565b73ffffffffffffffffffffffffffffffffffffffff16611cb361163e565b73ffffffffffffffffffffffffffffffffffffffff1614611d09576040517f08c379a0000000000000000000000000000000000000000000000000000000008152600401611d0090613937565b60405180910390fd5b600073ffffffffffffffffffffffffffffffffffffffff168173ffffffffffffffffffffffffffffffffffffffff161415611d79576040517f08c379a0000000000000000000000000000000000000000000000000000000008152600401611d7090613777565b60405180910390fd5b611d82816125b4565b50565b611d8d611f3c565b73ffffffffffffffffffffffffffffffffffffffff16611dab61163e565b73ffffffffffffffffffffffffffffffffffffffff1614611e01576040517f08c379a0000000000000000000000000000000000000000000000000000000008152600401611df890613937565b60405180910390fd5b81600c82604051611e129190613678565b908152602001604051809103902060008573ffffffffffffffffffffffffffffffffffffffff1673ffffffffffffffffffffffffffffffffffffffff16815260200190815260200160002081905550505050565b60007f01ffc9a7000000000000000000000000000000000000000000000000000000007bffffffffffffffffffffffffffffffffffffffffffffffffffffffff1916827bffffffffffffffffffffffffffffffffffffffffffffffffffffffff1916149050919050565b60008073ffffffffffffffffffffffffffffffffffffffff166002600084815260200190815260200160002060009054906101000a900473ffffffffffffffffffffffffffffffffffffffff1673ffffffffffffffffffffffffffffffffffffffff1614159050919050565b600033905090565b816004600083815260200190815260200160002060006101000a81548173ffffffffffffffffffffffffffffffffffffffff021916908373ffffffffffffffffffffffffffffffffffffffff160217905550808273ffffffffffffffffffffffffffffffffffffffff16611fb783611108565b73ffffffffffffffffffffffffffffffffffffffff167f8c5be1e5ebec7d5bd14f71427d1e84f3dd0314c0f7b2291e5b200ac8c7c3b92560405160405180910390a45050565b600061200882611ed0565b612047576040517f08c379a000000000000000000000000000000000000000000000000000000000815260040161203e90613837565b60405180910390fd5b600061205283611108565b90508073ffffffffffffffffffffffffffffffffffffffff168473ffffffffffffffffffffffffffffffffffffffff1614806120c157508373ffffffffffffffffffffffffffffffffffffffff166120a9846107fd565b73ffffffffffffffffffffffffffffffffffffffff16145b806120d257506120d18185611bf9565b5b91505092915050565b8273ffffffffffffffffffffffffffffffffffffffff166120fb82611108565b73ffffffffffffffffffffffffffffffffffffffff1614612151576040517f08c379a000000000000000000000000000000000000000000000000000000000815260040161214890613797565b60405180910390fd5b600073ffffffffffffffffffffffffffffffffffffffff168273ffffffffffffffffffffffffffffffffffffffff1614156121c1576040517f08c379a00000000000000000000000000000000000000000000000000000000081526004016121b8906137d7565b60405180910390fd5b6121cc838383612901565b6121d7600082611f44565b6001600360008573ffffffffffffffffffffffffffffffffffffffff1673ffffffffffffffffffffffffffffffffffffffff16815260200190815260200160002060008282546122279190613b76565b925050819055506001600360008473ffffffffffffffffffffffffffffffffffffffff1673ffffffffffffffffffffffffffffffffffffffff168152602001908152602001600020600082825461227e9190613aef565b92505081905550816002600083815260200190815260200160002060006101000a81548173ffffffffffffffffffffffffffffffffffffffff021916908373ffffffffffffffffffffffffffffffffffffffff160217905550808273ffffffffffffffffffffffffffffffffffffffff168473ffffffffffffffffffffffffffffffffffffffff167fddf252ad1be2c89b69c2b068fc378daa952ba7f163c4a11628f55a4df523b3ef60405160405180910390a461233d838383612906565b505050565b6001816000016000828254019250508190555050565b600081600001549050919050565b600073ffffffffffffffffffffffffffffffffffffffff168273ffffffffffffffffffffffffffffffffffffffff1614156123d6576040517f08c379a00000000000000000000000000000000000000000000000000000000081526004016123cd906138d7565b60405180910390fd5b6123df81611ed0565b1561241f576040517f08c379a0000000000000000000000000000000000000000000000000000000008152600401612416906137b7565b60405180910390fd5b61242b60008383612901565b6001600360008473ffffffffffffffffffffffffffffffffffffffff1673ffffffffffffffffffffffffffffffffffffffff168152602001908152602001600020600082825461247b9190613aef565b92505081905550816002600083815260200190815260200160002060006101000a81548173ffffffffffffffffffffffffffffffffffffffff021916908373ffffffffffffffffffffffffffffffffffffffff160217905550808273ffffffffffffffffffffffffffffffffffffffff16600073ffffffffffffffffffffffffffffffffffffffff167fddf252ad1be2c89b69c2b068fc378daa952ba7f163c4a11628f55a4df523b3ef60405160405180910390a461253c60008383612906565b5050565b61254982611ed0565b612588576040517f08c379a000000000000000000000000000000000000000000000000000000000815260040161257f906138b7565b60405180910390fd5b806006600084815260200190815260200160002090805190602001906125af929190612c72565b505050565b6000600760009054906101000a900473ffffffffffffffffffffffffffffffffffffffff16905081600760006101000a81548173ffffffffffffffffffffffffffffffffffffffff021916908373ffffffffffffffffffffffffffffffffffffffff1602179055508173ffffffffffffffffffffffffffffffffffffffff168173ffffffffffffffffffffffffffffffffffffffff167f8be0079c531659141344cd1fd0a4f28419497f9722a3daafe3b4186f6b6457e060405160405180910390a35050565b8173ffffffffffffffffffffffffffffffffffffffff168373ffffffffffffffffffffffffffffffffffffffff1614156126e9576040517f08c379a00000000000000000000000000000000000000000000000000000000081526004016126e0906137f7565b60405180910390fd5b80600560008573ffffffffffffffffffffffffffffffffffffffff1673ffffffffffffffffffffffffffffffffffffffff16815260200190815260200160002060008473ffffffffffffffffffffffffffffffffffffffff1673ffffffffffffffffffffffffffffffffffffffff16815260200190815260200160002060006101000a81548160ff0219169083151502179055508173ffffffffffffffffffffffffffffffffffffffff168373ffffffffffffffffffffffffffffffffffffffff167f17307eab39ab6107e8899845ad3d59bd9653f200f220920489ca2b5937696c31836040516127da919061371a565b60405180910390a3505050565b6127f28484846120db565b6127fe8484848461290b565b61283d576040517f08c379a000000000000000000000000000000000000000000000000000000000815260040161283490613757565b60405180910390fd5b50505050565b606060405180602001604052806000815250905090565b606061286582611ed0565b6128a4576040517f08c379a000000000000000000000000000000000000000000000000000000000815260040161289b90613957565b60405180910390fd5b60006128ae612843565b905060008151116128ce57604051806020016040528060008152506128f9565b806128d884612aa2565b6040516020016128e992919061368f565b6040516020818303038152906040525b915050919050565b505050565b505050565b600061292c8473ffffffffffffffffffffffffffffffffffffffff16612c4f565b15612a95578373ffffffffffffffffffffffffffffffffffffffff1663150b7a02612955611f3c565b8786866040518563ffffffff1660e01b815260040161297794939291906136ce565b602060405180830381600087803b15801561299157600080fd5b505af19250505080156129c257506040513d601f19601f820116820180604052508101906129bf91906130e7565b60015b612a45573d80600081146129f2576040519150601f19603f3d011682016040523d82523d6000602084013e6129f7565b606091505b50600081511415612a3d576040517f08c379a0000000000000000000000000000000000000000000000000000000008152600401612a3490613757565b60405180910390fd5b805181602001fd5b63150b7a0260e01b7bffffffffffffffffffffffffffffffffffffffffffffffffffffffff1916817bffffffffffffffffffffffffffffffffffffffffffffffffffffffff191614915050612a9a565b600190505b949350505050565b60606000821415612aea576040518060400160405280600181526020017f30000000000000000000000000000000000000000000000000000000000000008152509050612c4a565b600082905060005b60008214612b1c578080612b0590613ced565b915050600a82612b159190613b45565b9150612af2565b60008167ffffffffffffffff811115612b5e577f4e487b7100000000000000000000000000000000000000000000000000000000600052604160045260246000fd5b6040519080825280601f01601f191660200182016040528015612b905781602001600182028036833780820191505090505b5090505b60008514612c4357600182612ba99190613b76565b9150600a85612bb89190613d36565b6030612bc49190613aef565b60f81b818381518110612c00577f4e487b7100000000000000000000000000000000000000000000000000000000600052603260045260246000fd5b60200101907effffffffffffffffffffffffffffffffffffffffffffffffffffffffffffff1916908160001a905350600a85612c3c9190613b45565b9450612b94565b8093505050505b919050565b6000808273ffffffffffffffffffffffffffffffffffffffff163b119050919050565b828054612c7e90613c8a565b90600052602060002090601f016020900481019282612ca05760008555612ce7565b82601f10612cb957805160ff1916838001178555612ce7565b82800160010185558215612ce7579182015b82811115612ce6578251825591602001919060010190612ccb565b5b509050612cf49190612d5a565b5090565b6040518060c001604052806000815260200160608152602001600073ffffffffffffffffffffffffffffffffffffffff168152602001600073ffffffffffffffffffffffffffffffffffffffff16815260200160008152602001600081525090565b5b80821115612d73576000816000905550600101612d5b565b5090565b6000612d8a612d8584613a39565b613a14565b905082815260208101848484011115612da257600080fd5b612dad848285613c1e565b509392505050565b6000612dc8612dc384613a6a565b613a14565b905082815260208101848484011115612de057600080fd5b612deb848285613c1e565b509392505050565b600081359050612e02816143a2565b92915050565b600081359050612e17816143b9565b92915050565b600081359050612e2c816143d0565b92915050565b600081519050612e41816143d0565b92915050565b600082601f830112612e5857600080fd5b8135612e68848260208601612d77565b91505092915050565b600082601f830112612e8257600080fd5b8135612e92848260208601612db5565b91505092915050565b600081359050612eaa816143e7565b92915050565b600060208284031215612ec257600080fd5b6000612ed084828501612df3565b91505092915050565b60008060408385031215612eec57600080fd5b6000612efa85828601612df3565b9250506020612f0b85828601612df3565b9150509250929050565b600080600060608486031215612f2a57600080fd5b6000612f3886828701612df3565b9350506020612f4986828701612df3565b9250506040612f5a86828701612e9b565b9150509250925092565b60008060008060808587031215612f7a57600080fd5b6000612f8887828801612df3565b9450506020612f9987828801612df3565b9350506040612faa87828801612e9b565b925050606085013567ffffffffffffffff811115612fc757600080fd5b612fd387828801612e47565b91505092959194509250565b60008060408385031215612ff257600080fd5b600061300085828601612df3565b925050602061301185828601612e08565b9150509250929050565b6000806040838503121561302e57600080fd5b600061303c85828601612df3565b925050602061304d85828601612e9b565b9150509250929050565b60008060006060848603121561306c57600080fd5b600061307a86828701612df3565b935050602061308b86828701612e9b565b925050604084013567ffffffffffffffff8111156130a857600080fd5b6130b486828701612e71565b9150509250925092565b6000602082840312156130d057600080fd5b60006130de84828501612e1d565b91505092915050565b6000602082840312156130f957600080fd5b600061310784828501612e32565b91505092915050565b6000806040838503121561312357600080fd5b600083013567ffffffffffffffff81111561313d57600080fd5b61314985828601612e71565b925050602061315a85828601612df3565b9150509250929050565b60008060006060848603121561317957600080fd5b600084013567ffffffffffffffff81111561319357600080fd5b61319f86828701612e71565b935050602084013567ffffffffffffffff8111156131bc57600080fd5b6131c886828701612e71565b92505060406131d986828701612df3565b9150509250925092565b6000602082840312156131f557600080fd5b600061320384828501612e9b565b91505092915050565b61321581613baa565b82525050565b61322481613baa565b82525050565b61323381613bbc565b82525050565b600061324482613a9b565b61324e8185613ab1565b935061325e818560208601613c2d565b61326781613e23565b840191505092915050565b600061327d82613aa6565b6132878185613ac2565b9350613297818560208601613c2d565b6132a081613e23565b840191505092915050565b60006132b682613aa6565b6132c08185613ad3565b93506132d0818560208601613c2d565b6132d981613e23565b840191505092915050565b60006132ef82613aa6565b6132f98185613ae4565b9350613309818560208601613c2d565b80840191505092915050565b6000613322603283613ad3565b915061332d82613e34565b604082019050919050565b6000613345602683613ad3565b915061335082613e83565b604082019050919050565b6000613368602583613ad3565b915061337382613ed2565b604082019050919050565b600061338b601c83613ad3565b915061339682613f21565b602082019050919050565b60006133ae602483613ad3565b91506133b982613f4a565b604082019050919050565b60006133d1601983613ad3565b91506133dc82613f99565b602082019050919050565b60006133f4602383613ad3565b91506133ff82613fc2565b604082019050919050565b6000613417602c83613ad3565b915061342282614011565b604082019050919050565b600061343a603883613ad3565b915061344582614060565b604082019050919050565b600061345d602a83613ad3565b9150613468826140af565b604082019050919050565b6000613480602983613ad3565b915061348b826140fe565b604082019050919050565b60006134a3602e83613ad3565b91506134ae8261414d565b604082019050919050565b60006134c6602083613ad3565b91506134d18261419c565b602082019050919050565b60006134e9603183613ad3565b91506134f4826141c5565b604082019050919050565b600061350c602c83613ad3565b915061351782614214565b604082019050919050565b600061352f602083613ad3565b915061353a82614263565b602082019050919050565b6000613552602f83613ad3565b915061355d8261428c565b604082019050919050565b6000613575602183613ad3565b9150613580826142db565b604082019050919050565b6000613598601283613ad3565b91506135a38261432a565b602082019050919050565b60006135bb603183613ad3565b91506135c682614353565b604082019050919050565b600060c0830160008301516135e9600086018261365a565b50602083015184820360208601526136018282613272565b9150506040830151613616604086018261320c565b506060830151613629606086018261320c565b50608083015161363c608086018261365a565b5060a083015161364f60a086018261365a565b508091505092915050565b61366381613c14565b82525050565b61367281613c14565b82525050565b600061368482846132e4565b915081905092915050565b600061369b82856132e4565b91506136a782846132e4565b91508190509392505050565b60006020820190506136c8600083018461321b565b92915050565b60006080820190506136e3600083018761321b565b6136f0602083018661321b565b6136fd6040830185613669565b818103606083015261370f8184613239565b905095945050505050565b600060208201905061372f600083018461322a565b92915050565b6000602082019050818103600083015261374f81846132ab565b905092915050565b6000602082019050818103600083015261377081613315565b9050919050565b6000602082019050818103600083015261379081613338565b9050919050565b600060208201905081810360008301526137b08161335b565b9050919050565b600060208201905081810360008301526137d08161337e565b9050919050565b600060208201905081810360008301526137f0816133a1565b9050919050565b60006020820190508181036000830152613810816133c4565b9050919050565b60006020820190508181036000830152613830816133e7565b9050919050565b600060208201905081810360008301526138508161340a565b9050919050565b600060208201905081810360008301526138708161342d565b9050919050565b6000602082019050818103600083015261389081613450565b9050919050565b600060208201905081810360008301526138b081613473565b9050919050565b600060208201905081810360008301526138d081613496565b9050919050565b600060208201905081810360008301526138f0816134b9565b9050919050565b60006020820190508181036000830152613910816134dc565b9050919050565b60006020820190508181036000830152613930816134ff565b9050919050565b6000602082019050818103600083015261395081613522565b9050919050565b6000602082019050818103600083015261397081613545565b9050919050565b6000602082019050818103600083015261399081613568565b9050919050565b600060208201905081810360008301526139b08161358b565b9050919050565b600060208201905081810360008301526139d0816135ae565b9050919050565b600060208201905081810360008301526139f181846135d1565b905092915050565b6000602082019050613a0e6000830184613669565b92915050565b6000613a1e613a2f565b9050613a2a8282613cbc565b919050565b6000604051905090565b600067ffffffffffffffff821115613a5457613a53613df4565b5b613a5d82613e23565b9050602081019050919050565b600067ffffffffffffffff821115613a8557613a84613df4565b5b613a8e82613e23565b9050602081019050919050565b600081519050919050565b600081519050919050565b600082825260208201905092915050565b600082825260208201905092915050565b600082825260208201905092915050565b600081905092915050565b6000613afa82613c14565b9150613b0583613c14565b9250827fffffffffffffffffffffffffffffffffffffffffffffffffffffffffffffffff03821115613b3a57613b39613d67565b5b828201905092915050565b6000613b5082613c14565b9150613b5b83613c14565b925082613b6b57613b6a613d96565b5b828204905092915050565b6000613b8182613c14565b9150613b8c83613c14565b925082821015613b9f57613b9e613d67565b5b828203905092915050565b6000613bb582613bf4565b9050919050565b60008115159050919050565b60007fffffffff0000000000000000000000000000000000000000000000000000000082169050919050565b600073ffffffffffffffffffffffffffffffffffffffff82169050919050565b6000819050919050565b82818337600083830152505050565b60005b83811015613c4b578082015181840152602081019050613c30565b83811115613c5a576000848401525b50505050565b6000613c6b82613c14565b91506000821415613c7f57613c7e613d67565b5b600182039050919050565b60006002820490506001821680613ca257607f821691505b60208210811415613cb657613cb5613dc5565b5b50919050565b613cc582613e23565b810181811067ffffffffffffffff82111715613ce457613ce3613df4565b5b80604052505050565b6000613cf882613c14565b91507fffffffffffffffffffffffffffffffffffffffffffffffffffffffffffffffff821415613d2b57613d2a613d67565b5b600182019050919050565b6000613d4182613c14565b9150613d4c83613c14565b925082613d5c57613d5b613d96565b5b828206905092915050565b7f4e487b7100000000000000000000000000000000000000000000000000000000600052601160045260246000fd5b7f4e487b7100000000000000000000000000000000000000000000000000000000600052601260045260246000fd5b7f4e487b7100000000000000000000000000000000000000000000000000000000600052602260045260246000fd5b7f4e487b7100000000000000000000000000000000000000000000000000000000600052604160045260246000fd5b6000601f19601f8301169050919050565b7f4552433732313a207472616e7366657220746f206e6f6e20455243373231526560008201527f63656976657220696d706c656d656e7465720000000000000000000000000000602082015250565b7f4f776e61626c653a206e6577206f776e657220697320746865207a65726f206160008201527f6464726573730000000000000000000000000000000000000000000000000000602082015250565b7f4552433732313a207472616e736665722066726f6d20696e636f72726563742060008201527f6f776e6572000000000000000000000000000000000000000000000000000000602082015250565b7f4552433732313a20746f6b656e20616c7265616479206d696e74656400000000600082015250565b7f4552433732313a207472616e7366657220746f20746865207a65726f2061646460008201527f7265737300000000000000000000000000000000000000000000000000000000602082015250565b7f4552433732313a20617070726f766520746f2063616c6c657200000000000000600082015250565b7f48617320746f206265206d6f7265207468616e2030206d696e74696e6720706f60008201527f7765720000000000000000000000000000000000000000000000000000000000602082015250565b7f4552433732313a206f70657261746f7220717565727920666f72206e6f6e657860008201527f697374656e7420746f6b656e0000000000000000000000000000000000000000602082015250565b7f4552433732313a20617070726f76652063616c6c6572206973206e6f74206f7760008201527f6e6572206e6f7220617070726f76656420666f7220616c6c0000000000000000602082015250565b7f4552433732313a2062616c616e636520717565727920666f7220746865207a6560008201527f726f206164647265737300000000000000000000000000000000000000000000602082015250565b7f4552433732313a206f776e657220717565727920666f72206e6f6e657869737460008201527f656e7420746f6b656e0000000000000000000000000000000000000000000000602082015250565b7f45524337323155524953746f726167653a2055524920736574206f66206e6f6e60008201527f6578697374656e7420746f6b656e000000000000000000000000000000000000602082015250565b7f4552433732313a206d696e7420746f20746865207a65726f2061646472657373600082015250565b7f45524337323155524953746f726167653a2055524920717565727920666f722060008201527f6e6f6e6578697374656e7420746f6b656e000000000000000000000000000000602082015250565b7f4552433732313a20617070726f76656420717565727920666f72206e6f6e657860008201527f697374656e7420746f6b656e0000000000000000000000000000000000000000602082015250565b7f4f776e61626c653a2063616c6c6572206973206e6f7420746865206f776e6572600082015250565b7f4552433732314d657461646174613a2055524920717565727920666f72206e6f60008201527f6e6578697374656e7420746f6b656e0000000000000000000000000000000000602082015250565b7f4552433732313a20617070726f76616c20746f2063757272656e74206f776e6560008201527f7200000000000000000000000000000000000000000000000000000000000000602082015250565b7f4e465420616c7265616479207369676e65640000000000000000000000000000600082015250565b7f4552433732313a207472616e736665722063616c6c6572206973206e6f74206f60008201527f776e6572206e6f7220617070726f766564000000000000000000000000000000602082015250565b6143ab81613baa565b81146143b657600080fd5b50565b6143c281613bbc565b81146143cd57600080fd5b50565b6143d981613bc8565b81146143e457600080fd5b50565b6143f081613c14565b81146143fb57600080fd5b5056fea26469706673582212207f64dbd59272df53bd0b7f884553e80d166eb5da2087411bea8de4007827a8b864736f6c63430008030033",
  "immutableReferences": {},
  "source": "// SPDX-License-Identifier: MIT\npragma solidity ^0.8.0;\n\nimport \"@openzeppelin/contracts/token/ERC721/extensions/ERC721URIStorage.sol\";\nimport \"@openzeppelin/contracts/token/ERC20/IERC20.sol\";\nimport \"@openzeppelin/contracts/utils/Counters.sol\";\nimport \"@openzeppelin/contracts/access/Ownable.sol\";\n\n\ncontract Deccert is ERC721URIStorage,Ownable{\n\n    using Counters for Counters.Counter;\n\n    ///////////////-----Variable-------------///////////\n    Counters.Counter private _tokenIds;\n    mapping(address=>uint256) private COINS_PRICE;\n\n    string internal baseURI;\n    uint256 internal currentPrice=10**8 wei;\n \n    mapping(string=>mapping(address=>uint256)) private MINTING_POWER;\n\n\n    constructor() ERC721(\"Deccert\", \"DECCERT\") {}\n\n    struct Certi {\n        uint256 tokenId;\n        string name;\n        address owner;\n        address previusOwner;\n        uint256 blockNumber;\n        uint256 time;\n    }\n    \n    mapping(uint256=>Certi) _certificados;\n    mapping(uint256=>bool) SIGNED; \n\n\n    modifier hasMintingPower(string memory _uri){\n        require(MINTING_POWER[_uri][msg.sender]>0,'Has to be more than 0 minting power');\n        MINTING_POWER[_uri][msg.sender]--;\n        _;\n    }\n\n    function giveMintingPower(\n        address _user,\n        uint256 _howMuch,\n        string memory _uri)public onlyOwner{\n\n            MINTING_POWER[_uri][_user]=_howMuch;\n    }\n\n\n    //Only the owner can call this function to mint NFT\n    function ManualMinting(\n        string memory _name,\n        string memory _uri,\n        address who\n        ) external onlyOwner returns(uint256){\n\n        //incrementamos en 1 el contador\n        _tokenIds.increment();\n\n        uint256 newItemId = _tokenIds.current();\n        _mint(msg.sender, newItemId);\n        _setTokenURI(newItemId, _uri);\n        SIGNED[newItemId]=true;\n\n        Certi memory newCerti= Certi(\n        _tokenIds.current(),//token id of Deccert certificate\n        _name,\n        who,\n        who,\n        block.number,\n        block.timestamp\n        );\n\n        _certificados[newItemId] = newCerti;\n\n        return newItemId;\n\n    }\n\n\n    //Admin can give user capability to mint an specific URI NFT\n    //Admin has to \n    function PermissionMinting(\n        string memory _name,\n        string memory _uri,\n        address who) external hasMintingPower(_uri) returns(uint256){\n\n        _tokenIds.increment();\n\n        uint256 newItemId = _tokenIds.current();\n        _mint(msg.sender, newItemId);\n        _setTokenURI(newItemId, _uri);\n        SIGNED[newItemId]=true;\n\n        Certi memory newCerti= Certi(\n        _tokenIds.current(),//token id of Deccert certificate\n        _name,\n        who,\n        address(0),\n        block.number,\n        block.timestamp\n        );\n\n        _certificados[newItemId] = newCerti;\n\n        return newItemId;\n\n    }\n\n    //Admin can give user capability to mint an specific URI NFT\n    //Admin has to \n    function PermissionlessMinting(\n        string memory _name,\n        string memory _uri,\n        address who) external hasMintingPower(_uri) returns(uint256){\n\n        _tokenIds.increment();\n\n        uint256 newItemId = _tokenIds.current();\n        _mint(msg.sender, newItemId);\n        _setTokenURI(newItemId, _uri);\n        SIGNED[newItemId]=true;\n\n        Certi memory newCerti= Certi(\n        _tokenIds.current(),//token id of Deccert certificate\n        _name,\n        who,\n        address(0),\n        block.number,\n        block.timestamp\n        );\n\n        _certificados[newItemId] = newCerti;\n\n        return newItemId;\n\n    }\n\n\n    //Any user can call this function and mint their own certificate \n    function PreMinting(\n      string memory _name,\n      string memory _uri,\n      address who) external payable returns (uint256){\n\n        //incrementamos en 1 el contador\n        _tokenIds.increment();\n\n        uint256 newItemId = _tokenIds.current();\n        _mint(msg.sender, newItemId);\n        _setTokenURI(newItemId, _uri);\n        SIGNED[newItemId]=false;\n\n        Certi memory newCerti= Certi(\n        _tokenIds.current(),//token id of Deccert NFT\n        _name,\n        who,\n        who,\n        block.number,\n        block.timestamp\n        );\n\n        _certificados[newItemId] = newCerti;\n\n        return newItemId;\n\n    }\n\n    function SignNFT(uint256 tokenId) external onlyOwner{\n        require(!SIGNED[tokenId],'NFT already signed');\n        SIGNED[tokenId]=true;\n    }\n\n    function UnsignNFT(uint256 tokenId)external onlyOwner{\n        require(SIGNED[tokenId],'NFT already signed');\n        SIGNED[tokenId]=false;\n    }\n\n\n    function get(uint256 _index)public view returns(Certi memory){\n          return _certificados[_index];\n    }\n  \n    function getTotal()public view returns(uint256){\n        return(_tokenIds.current());\n    }\n\n    //Returns the amount of NFTs that an account can\n    //Mint for an specific URL\n    function getMintingPower(string memory what,address _who)external view returns(uint256){\n        return MINTING_POWER[what][_who];\n    }\n\n}",
  "sourcePath": "/Users/aarontolentino/Documents/B-Deccert/Deccert/contracts/Deccert.sol",
  "compiler": {
    "name": "solc",
    "version": "0.8.3+commit.8d00100c.Emscripten.clang"
  },
  "schemaVersion": "3.4.1",
  "updatedAt": "2022-11-09T06:48:40.725Z",
  "networkType": "ethereum",
  "devdoc": {
    "kind": "dev",
    "methods": {
      "approve(address,uint256)": {
        "details": "See {IERC721-approve}."
      },
      "balanceOf(address)": {
        "details": "See {IERC721-balanceOf}."
      },
      "getApproved(uint256)": {
        "details": "See {IERC721-getApproved}."
      },
      "isApprovedForAll(address,address)": {
        "details": "See {IERC721-isApprovedForAll}."
      },
      "name()": {
        "details": "See {IERC721Metadata-name}."
      },
      "owner()": {
        "details": "Returns the address of the current owner."
      },
      "ownerOf(uint256)": {
        "details": "See {IERC721-ownerOf}."
      },
      "renounceOwnership()": {
        "details": "Leaves the contract without owner. It will not be possible to call `onlyOwner` functions anymore. Can only be called by the current owner. NOTE: Renouncing ownership will leave the contract without an owner, thereby removing any functionality that is only available to the owner."
      },
      "safeTransferFrom(address,address,uint256)": {
        "details": "See {IERC721-safeTransferFrom}."
      },
      "safeTransferFrom(address,address,uint256,bytes)": {
        "details": "See {IERC721-safeTransferFrom}."
      },
      "setApprovalForAll(address,bool)": {
        "details": "See {IERC721-setApprovalForAll}."
      },
      "supportsInterface(bytes4)": {
        "details": "See {IERC165-supportsInterface}."
      },
      "symbol()": {
        "details": "See {IERC721Metadata-symbol}."
      },
      "tokenURI(uint256)": {
        "details": "See {IERC721Metadata-tokenURI}."
      },
      "transferFrom(address,address,uint256)": {
        "details": "See {IERC721-transferFrom}."
      },
      "transferOwnership(address)": {
        "details": "Transfers ownership of the contract to a new account (`newOwner`). Can only be called by the current owner."
      }
    },
    "version": 1
  },
  "userdoc": {
    "kind": "user",
    "methods": {},
    "version": 1
  }
}