{
  "contractName": "Deccert",
  "abi": [
    {
      "inputs": [],
      "stateMutability": "nonpayable",
      "type": "constructor"
    },
    {
      "anonymous": false,
      "inputs": [
        {
          "indexed": true,
          "internalType": "address",
          "name": "owner",
          "type": "address"
        },
        {
          "indexed": true,
          "internalType": "address",
          "name": "approved",
          "type": "address"
        },
        {
          "indexed": true,
          "internalType": "uint256",
          "name": "tokenId",
          "type": "uint256"
        }
      ],
      "name": "Approval",
      "type": "event"
    },
    {
      "anonymous": false,
      "inputs": [
        {
          "indexed": true,
          "internalType": "address",
          "name": "owner",
          "type": "address"
        },
        {
          "indexed": true,
          "internalType": "address",
          "name": "operator",
          "type": "address"
        },
        {
          "indexed": false,
          "internalType": "bool",
          "name": "approved",
          "type": "bool"
        }
      ],
      "name": "ApprovalForAll",
      "type": "event"
    },
    {
      "anonymous": false,
      "inputs": [
        {
          "indexed": true,
          "internalType": "address",
          "name": "previousOwner",
          "type": "address"
        },
        {
          "indexed": true,
          "internalType": "address",
          "name": "newOwner",
          "type": "address"
        }
      ],
      "name": "OwnershipTransferred",
      "type": "event"
    },
    {
      "anonymous": false,
      "inputs": [
        {
          "indexed": true,
          "internalType": "address",
          "name": "from",
          "type": "address"
        },
        {
          "indexed": true,
          "internalType": "address",
          "name": "to",
          "type": "address"
        },
        {
          "indexed": true,
          "internalType": "uint256",
          "name": "tokenId",
          "type": "uint256"
        }
      ],
      "name": "Transfer",
      "type": "event"
    },
    {
      "inputs": [
        {
          "internalType": "string",
          "name": "",
          "type": "string"
        }
      ],
      "name": "_names",
      "outputs": [
        {
          "internalType": "bool",
          "name": "",
          "type": "bool"
        }
      ],
      "stateMutability": "view",
      "type": "function",
      "constant": true
    },
    {
      "inputs": [
        {
          "internalType": "address",
          "name": "to",
          "type": "address"
        },
        {
          "internalType": "uint256",
          "name": "tokenId",
          "type": "uint256"
        }
      ],
      "name": "approve",
      "outputs": [],
      "stateMutability": "nonpayable",
      "type": "function"
    },
    {
      "inputs": [
        {
          "internalType": "address",
          "name": "owner",
          "type": "address"
        }
      ],
      "name": "balanceOf",
      "outputs": [
        {
          "internalType": "uint256",
          "name": "",
          "type": "uint256"
        }
      ],
      "stateMutability": "view",
      "type": "function",
      "constant": true
    },
    {
      "inputs": [
        {
          "internalType": "uint256",
          "name": "tokenId",
          "type": "uint256"
        }
      ],
      "name": "getApproved",
      "outputs": [
        {
          "internalType": "address",
          "name": "",
          "type": "address"
        }
      ],
      "stateMutability": "view",
      "type": "function",
      "constant": true
    },
    {
      "inputs": [
        {
          "internalType": "address",
          "name": "owner",
          "type": "address"
        },
        {
          "internalType": "address",
          "name": "operator",
          "type": "address"
        }
      ],
      "name": "isApprovedForAll",
      "outputs": [
        {
          "internalType": "bool",
          "name": "",
          "type": "bool"
        }
      ],
      "stateMutability": "view",
      "type": "function",
      "constant": true
    },
    {
      "inputs": [],
      "name": "name",
      "outputs": [
        {
          "internalType": "string",
          "name": "",
          "type": "string"
        }
      ],
      "stateMutability": "view",
      "type": "function",
      "constant": true
    },
    {
      "inputs": [],
      "name": "owner",
      "outputs": [
        {
          "internalType": "address",
          "name": "",
          "type": "address"
        }
      ],
      "stateMutability": "view",
      "type": "function",
      "constant": true
    },
    {
      "inputs": [
        {
          "internalType": "uint256",
          "name": "tokenId",
          "type": "uint256"
        }
      ],
      "name": "ownerOf",
      "outputs": [
        {
          "internalType": "address",
          "name": "",
          "type": "address"
        }
      ],
      "stateMutability": "view",
      "type": "function",
      "constant": true
    },
    {
      "inputs": [],
      "name": "renounceOwnership",
      "outputs": [],
      "stateMutability": "nonpayable",
      "type": "function"
    },
    {
      "inputs": [
        {
          "internalType": "address",
          "name": "from",
          "type": "address"
        },
        {
          "internalType": "address",
          "name": "to",
          "type": "address"
        },
        {
          "internalType": "uint256",
          "name": "tokenId",
          "type": "uint256"
        }
      ],
      "name": "safeTransferFrom",
      "outputs": [],
      "stateMutability": "nonpayable",
      "type": "function"
    },
    {
      "inputs": [
        {
          "internalType": "address",
          "name": "from",
          "type": "address"
        },
        {
          "internalType": "address",
          "name": "to",
          "type": "address"
        },
        {
          "internalType": "uint256",
          "name": "tokenId",
          "type": "uint256"
        },
        {
          "internalType": "bytes",
          "name": "_data",
          "type": "bytes"
        }
      ],
      "name": "safeTransferFrom",
      "outputs": [],
      "stateMutability": "nonpayable",
      "type": "function"
    },
    {
      "inputs": [
        {
          "internalType": "address",
          "name": "operator",
          "type": "address"
        },
        {
          "internalType": "bool",
          "name": "approved",
          "type": "bool"
        }
      ],
      "name": "setApprovalForAll",
      "outputs": [],
      "stateMutability": "nonpayable",
      "type": "function"
    },
    {
      "inputs": [
        {
          "internalType": "bytes4",
          "name": "interfaceId",
          "type": "bytes4"
        }
      ],
      "name": "supportsInterface",
      "outputs": [
        {
          "internalType": "bool",
          "name": "",
          "type": "bool"
        }
      ],
      "stateMutability": "view",
      "type": "function",
      "constant": true
    },
    {
      "inputs": [],
      "name": "symbol",
      "outputs": [
        {
          "internalType": "string",
          "name": "",
          "type": "string"
        }
      ],
      "stateMutability": "view",
      "type": "function",
      "constant": true
    },
    {
      "inputs": [
        {
          "internalType": "address",
          "name": "from",
          "type": "address"
        },
        {
          "internalType": "address",
          "name": "to",
          "type": "address"
        },
        {
          "internalType": "uint256",
          "name": "tokenId",
          "type": "uint256"
        }
      ],
      "name": "transferFrom",
      "outputs": [],
      "stateMutability": "nonpayable",
      "type": "function"
    },
    {
      "inputs": [
        {
          "internalType": "address",
          "name": "newOwner",
          "type": "address"
        }
      ],
      "name": "transferOwnership",
      "outputs": [],
      "stateMutability": "nonpayable",
      "type": "function"
    },
    {
      "inputs": [
        {
          "internalType": "string",
          "name": "_name",
          "type": "string"
        },
        {
          "internalType": "string",
          "name": "_uri",
          "type": "string"
        },
        {
          "internalType": "address",
          "name": "who",
          "type": "address"
        }
      ],
      "name": "ManualMinting",
      "outputs": [
        {
          "internalType": "uint256",
          "name": "",
          "type": "uint256"
        }
      ],
      "stateMutability": "nonpayable",
      "type": "function"
    },
    {
      "inputs": [
        {
          "internalType": "string",
          "name": "_name",
          "type": "string"
        },
        {
          "internalType": "string",
          "name": "_uri",
          "type": "string"
        },
        {
          "internalType": "address",
          "name": "who",
          "type": "address"
        }
      ],
      "name": "PermissionMinting",
      "outputs": [
        {
          "internalType": "uint256",
          "name": "",
          "type": "uint256"
        }
      ],
      "stateMutability": "nonpayable",
      "type": "function"
    },
    {
      "inputs": [
        {
          "internalType": "string",
          "name": "_name",
          "type": "string"
        },
        {
          "internalType": "string",
          "name": "_uri",
          "type": "string"
        },
        {
          "internalType": "address",
          "name": "who",
          "type": "address"
        }
      ],
      "name": "PreMinting",
      "outputs": [
        {
          "internalType": "uint256",
          "name": "",
          "type": "uint256"
        }
      ],
      "stateMutability": "payable",
      "type": "function",
      "payable": true
    },
    {
      "inputs": [
        {
          "internalType": "string",
          "name": "_name",
          "type": "string"
        },
        {
          "internalType": "string",
          "name": "_uri",
          "type": "string"
        },
        {
          "internalType": "address",
          "name": "_token_address",
          "type": "address"
        },
        {
          "internalType": "address",
          "name": "who",
          "type": "address"
        }
      ],
      "name": "PreMintingERC20",
      "outputs": [
        {
          "internalType": "uint256",
          "name": "",
          "type": "uint256"
        }
      ],
      "stateMutability": "nonpayable",
      "type": "function"
    },
    {
      "inputs": [
        {
          "internalType": "uint256",
          "name": "tokenId",
          "type": "uint256"
        },
        {
          "internalType": "string",
          "name": "_uri",
          "type": "string"
        }
      ],
      "name": "SignCertificate",
      "outputs": [],
      "stateMutability": "nonpayable",
      "type": "function"
    },
    {
      "inputs": [
        {
          "internalType": "address",
          "name": "_user",
          "type": "address"
        },
        {
          "internalType": "uint256",
          "name": "_howMuch",
          "type": "uint256"
        },
        {
          "internalType": "string",
          "name": "_uri",
          "type": "string"
        }
      ],
      "name": "givePermission",
      "outputs": [],
      "stateMutability": "nonpayable",
      "type": "function"
    },
    {
      "inputs": [
        {
          "internalType": "address",
          "name": "_user",
          "type": "address"
        },
        {
          "internalType": "uint256",
          "name": "_howMuch",
          "type": "uint256"
        },
        {
          "internalType": "string",
          "name": "_uri",
          "type": "string"
        }
      ],
      "name": "giveMintingPower",
      "outputs": [],
      "stateMutability": "nonpayable",
      "type": "function"
    },
    {
      "inputs": [
        {
          "internalType": "address",
          "name": "coinAddress",
          "type": "address"
        }
      ],
      "name": "addCoin",
      "outputs": [],
      "stateMutability": "nonpayable",
      "type": "function"
    },
    {
      "inputs": [
        {
          "internalType": "uint256",
          "name": "_newPrice",
          "type": "uint256"
        }
      ],
      "name": "setPrice",
      "outputs": [],
      "stateMutability": "nonpayable",
      "type": "function"
    },
    {
      "inputs": [
        {
          "internalType": "address",
          "name": "coin",
          "type": "address"
        },
        {
          "internalType": "uint256",
          "name": "_newPrice",
          "type": "uint256"
        }
      ],
      "name": "setPriceERC20",
      "outputs": [],
      "stateMutability": "nonpayable",
      "type": "function"
    },
    {
      "inputs": [
        {
          "internalType": "uint256",
          "name": "_index",
          "type": "uint256"
        }
      ],
      "name": "get",
      "outputs": [
        {
          "components": [
            {
              "internalType": "uint256",
              "name": "tokenId",
              "type": "uint256"
            },
            {
              "internalType": "string",
              "name": "name",
              "type": "string"
            },
            {
              "internalType": "address",
              "name": "owner",
              "type": "address"
            },
            {
              "internalType": "address",
              "name": "previusOwner",
              "type": "address"
            },
            {
              "internalType": "uint256",
              "name": "blockNumber",
              "type": "uint256"
            },
            {
              "internalType": "uint256",
              "name": "time",
              "type": "uint256"
            }
          ],
          "internalType": "struct Deccert.Certi",
          "name": "",
          "type": "tuple"
        }
      ],
      "stateMutability": "view",
      "type": "function",
      "constant": true
    },
    {
      "inputs": [
        {
          "internalType": "uint256",
          "name": "_index",
          "type": "uint256"
        }
      ],
      "name": "check",
      "outputs": [],
      "stateMutability": "view",
      "type": "function",
      "constant": true
    },
    {
      "inputs": [],
      "name": "getTotal",
      "outputs": [
        {
          "internalType": "uint256",
          "name": "",
          "type": "uint256"
        }
      ],
      "stateMutability": "view",
      "type": "function",
      "constant": true
    },
    {
      "inputs": [
        {
          "internalType": "string",
          "name": "newEntry",
          "type": "string"
        }
      ],
      "name": "setBaseURI",
      "outputs": [],
      "stateMutability": "nonpayable",
      "type": "function"
    },
    {
      "inputs": [
        {
          "internalType": "uint256",
          "name": "tokenId",
          "type": "uint256"
        }
      ],
      "name": "tokenURI",
      "outputs": [
        {
          "internalType": "string",
          "name": "",
          "type": "string"
        }
      ],
      "stateMutability": "view",
      "type": "function",
      "constant": true
    }
  ],
  "bytecode": "0x60806040526305f5e100600c553480156200001957600080fd5b506040518060400160405280600781526020017f44656363657274000000000000000000000000000000000000000000000000008152506040518060400160405280600781526020017f444543434552540000000000000000000000000000000000000000000000000081525081600090805190602001906200009e929190620001ae565b508060019080519060200190620000b7929190620001ae565b505050620000da620000ce620000e060201b60201c565b620000e860201b60201c565b620002c3565b600033905090565b6000600760009054906101000a900473ffffffffffffffffffffffffffffffffffffffff16905081600760006101000a81548173ffffffffffffffffffffffffffffffffffffffff021916908373ffffffffffffffffffffffffffffffffffffffff1602179055508173ffffffffffffffffffffffffffffffffffffffff168173ffffffffffffffffffffffffffffffffffffffff167f8be0079c531659141344cd1fd0a4f28419497f9722a3daafe3b4186f6b6457e060405160405180910390a35050565b828054620001bc906200025e565b90600052602060002090601f016020900481019282620001e057600085556200022c565b82601f10620001fb57805160ff19168380011785556200022c565b828001600101855582156200022c579182015b828111156200022b5782518255916020019190600101906200020e565b5b5090506200023b91906200023f565b5090565b5b808211156200025a57600081600090555060010162000240565b5090565b600060028204905060018216806200027757607f821691505b602082108114156200028e576200028d62000294565b5b50919050565b7f4e487b7100000000000000000000000000000000000000000000000000000000600052602260045260246000fd5b614c3a80620002d36000396000f3fe6080604052600436106101d85760003560e01c806376627eab11610102578063a22cb46511610095578063d1760fac11610064578063d1760fac146106e1578063e985e9c51461071e578063f2fde38b1461075b578063f8a2d7a814610784576101d8565b8063a22cb46514610615578063b88d4fde1461063e578063c54ad05b14610667578063c87b56dd146106a4576101d8565b806391b7f5ed116100d157806391b7f5ed146105545780639507d39a1461057d57806395d89b41146105ba578063977a3093146105e5576101d8565b806376627eab14610498578063775a25e3146104c15780638691c69c146104ec5780638da5cb5b14610529576101d8565b806342842e0e1161017a5780635f72f450116101495780635f72f450146103de5780636352211e1461040757806370a0823114610444578063715018a614610481576101d8565b806342842e0e146103265780634fe869531461034f57806355f804b31461038c578063571429ba146103b5576101d8565b8063095ea7b3116101b6578063095ea7b31461028257806310493713146102ab57806316da8632146102d457806323b872dd146102fd576101d8565b806301ffc9a7146101dd57806306fdde031461021a578063081812fc14610245575b600080fd5b3480156101e957600080fd5b5061020460048036038101906101ff9190613643565b6107ad565b6040516102119190613ebf565b60405180910390f35b34801561022657600080fd5b5061022f61088f565b60405161023c9190613eda565b60405180910390f35b34801561025157600080fd5b5061026c6004803603810190610267919061382d565b610921565b6040516102799190613e21565b60405180910390f35b34801561028e57600080fd5b506102a960048036038101906102a49190613577565b6109a6565b005b3480156102b757600080fd5b506102d260048036038101906102cd9190613856565b610abe565b005b3480156102e057600080fd5b506102fb60048036038101906102f6919061340c565b610bff565b005b34801561030957600080fd5b50610324600480360381019061031f9190613471565b610ce1565b005b34801561033257600080fd5b5061034d60048036038101906103489190613471565b610d41565b005b34801561035b57600080fd5b506103766004803603810190610371919061371b565b610d61565b60405161038391906141be565b60405180910390f35b34801561039857600080fd5b506103b360048036038101906103ae9190613695565b61101e565b005b3480156103c157600080fd5b506103dc60048036038101906103d79190613577565b6110b0565b005b3480156103ea57600080fd5b506104056004803603810190610400919061382d565b611278565b005b34801561041357600080fd5b5061042e6004803603810190610429919061382d565b6112e9565b60405161043b9190613e21565b60405180910390f35b34801561045057600080fd5b5061046b6004803603810190610466919061340c565b61139b565b60405161047891906141be565b60405180910390f35b34801561048d57600080fd5b50610496611453565b005b3480156104a457600080fd5b506104bf60048036038101906104ba91906135b3565b6114db565b005b3480156104cd57600080fd5b506104d66115bc565b6040516104e391906141be565b60405180910390f35b3480156104f857600080fd5b50610513600480360381019061050e919061371b565b6115cd565b60405161052091906141be565b60405180910390f35b34801561053557600080fd5b5061053e6117f5565b60405161054b9190613e21565b60405180910390f35b34801561056057600080fd5b5061057b6004803603810190610576919061382d565b61181f565b005b34801561058957600080fd5b506105a4600480360381019061059f919061382d565b6118a5565b6040516105b1919061419c565b60405180910390f35b3480156105c657600080fd5b506105cf611a2e565b6040516105dc9190613eda565b60405180910390f35b6105ff60048036038101906105fa919061371b565b611ac0565b60405161060c91906141be565b60405180910390f35b34801561062157600080fd5b5061063c6004803603810190610637919061353b565b611c6c565b005b34801561064a57600080fd5b50610665600480360381019061066091906134c0565b611c82565b005b34801561067357600080fd5b5061068e6004803603810190610689919061379a565b611ce4565b60405161069b91906141be565b60405180910390f35b3480156106b057600080fd5b506106cb60048036038101906106c6919061382d565b61207c565b6040516106d89190613eda565b60405180910390f35b3480156106ed57600080fd5b50610708600480360381019061070391906136da565b6120f8565b6040516107159190613ebf565b60405180910390f35b34801561072a57600080fd5b5061074560048036038101906107409190613435565b61212e565b6040516107529190613ebf565b60405180910390f35b34801561076757600080fd5b50610782600480360381019061077d919061340c565b6121c2565b005b34801561079057600080fd5b506107ab60048036038101906107a691906135b3565b6122ba565b005b60007f80ac58cd000000000000000000000000000000000000000000000000000000007bffffffffffffffffffffffffffffffffffffffffffffffffffffffff1916827bffffffffffffffffffffffffffffffffffffffffffffffffffffffff1916148061087857507f5b5e139f000000000000000000000000000000000000000000000000000000007bffffffffffffffffffffffffffffffffffffffffffffffffffffffff1916827bffffffffffffffffffffffffffffffffffffffffffffffffffffffff1916145b8061088857506108878261239b565b5b9050919050565b60606000805461089e90614464565b80601f01602080910402602001604051908101604052809291908181526020018280546108ca90614464565b80156109175780601f106108ec57610100808354040283529160200191610917565b820191906000526020600020905b8154815290600101906020018083116108fa57829003601f168201915b5050505050905090565b600061092c82612405565b61096b576040517f08c379a0000000000000000000000000000000000000000000000000000000008152600401610962906140dc565b60405180910390fd5b6004600083815260200190815260200160002060009054906101000a900473ffffffffffffffffffffffffffffffffffffffff169050919050565b60006109b1826112e9565b90508073ffffffffffffffffffffffffffffffffffffffff168373ffffffffffffffffffffffffffffffffffffffff161415610a22576040517f08c379a0000000000000000000000000000000000000000000000000000000008152600401610a199061413c565b60405180910390fd5b8073ffffffffffffffffffffffffffffffffffffffff16610a41612471565b73ffffffffffffffffffffffffffffffffffffffff161480610a705750610a6f81610a6a612471565b61212e565b5b610aaf576040517f08c379a0000000000000000000000000000000000000000000000000000000008152600401610aa69061403c565b60405180910390fd5b610ab98383612479565b505050565b806000600d82604051610ad19190613ddb565b908152602001604051809103902060003373ffffffffffffffffffffffffffffffffffffffff1673ffffffffffffffffffffffffffffffffffffffff1681526020019081526020016000205411610b5d576040517f08c379a0000000000000000000000000000000000000000000000000000000008152600401610b549061411c565b60405180910390fd5b600d81604051610b6d9190613ddb565b908152602001604051809103902060003373ffffffffffffffffffffffffffffffffffffffff1673ffffffffffffffffffffffffffffffffffffffff1681526020019081526020016000206000815480929190610bc99061443a565b919050555060016011600085815260200190815260200160002060006101000a81548160ff021916908315150217905550505050565b610c07612471565b73ffffffffffffffffffffffffffffffffffffffff16610c256117f5565b73ffffffffffffffffffffffffffffffffffffffff1614610c7b576040517f08c379a0000000000000000000000000000000000000000000000000000000008152600401610c72906140fc565b60405180910390fd5b6009819080600181540180825580915050600190039060005260206000200160009091909190916101000a81548173ffffffffffffffffffffffffffffffffffffffff021916908373ffffffffffffffffffffffffffffffffffffffff16021790555050565b610cf2610cec612471565b82612532565b610d31576040517f08c379a0000000000000000000000000000000000000000000000000000000008152600401610d289061415c565b60405180910390fd5b610d3c838383612610565b505050565b610d5c83838360405180602001604052806000815250611c82565b505050565b6000826000600e82604051610d769190613ddb565b908152602001604051809103902060003373ffffffffffffffffffffffffffffffffffffffff1673ffffffffffffffffffffffffffffffffffffffff1681526020019081526020016000205411610e02576040517f08c379a0000000000000000000000000000000000000000000000000000000008152600401610df990613ffc565b60405180910390fd5b600e81604051610e129190613ddb565b908152602001604051809103902060003373ffffffffffffffffffffffffffffffffffffffff1673ffffffffffffffffffffffffffffffffffffffff1681526020019081526020016000206000815480929190610e6e9061443a565b9190505550610e7d6008612877565b6000610e89600861288d565b9050610e95338261289b565b610e9f8186612a75565b60016011600083815260200190815260200160002060006101000a81548160ff02191690831515021790555060006040518060c00160405280610ee2600861288d565b81526020018881526020018673ffffffffffffffffffffffffffffffffffffffff1681526020018673ffffffffffffffffffffffffffffffffffffffff1681526020014381526020014281525090508060106000848152602001908152602001600020600082015181600001556020820151816001019080519060200190610f6b9291906130e9565b5060408201518160020160006101000a81548173ffffffffffffffffffffffffffffffffffffffff021916908373ffffffffffffffffffffffffffffffffffffffff16021790555060608201518160030160006101000a81548173ffffffffffffffffffffffffffffffffffffffff021916908373ffffffffffffffffffffffffffffffffffffffff1602179055506080820151816004015560a082015181600501559050508193505050509392505050565b611026612471565b73ffffffffffffffffffffffffffffffffffffffff166110446117f5565b73ffffffffffffffffffffffffffffffffffffffff161461109a576040517f08c379a0000000000000000000000000000000000000000000000000000000008152600401611091906140fc565b60405180910390fd5b8181600b91906110ab92919061316f565b505050565b6110b8612471565b73ffffffffffffffffffffffffffffffffffffffff166110d66117f5565b73ffffffffffffffffffffffffffffffffffffffff161461112c576040517f08c379a0000000000000000000000000000000000000000000000000000000008152600401611123906140fc565b60405180910390fd5b6000811161116f576040517f08c379a000000000000000000000000000000000000000000000000000000000815260040161116690613f3c565b60405180910390fd5b60005b600980549050811015611273578273ffffffffffffffffffffffffffffffffffffffff16600982815481106111d0577f4e487b7100000000000000000000000000000000000000000000000000000000600052603260045260246000fd5b9060005260206000200160009054906101000a900473ffffffffffffffffffffffffffffffffffffffff1673ffffffffffffffffffffffffffffffffffffffff1614156112605781600a60008573ffffffffffffffffffffffffffffffffffffffff1673ffffffffffffffffffffffffffffffffffffffff16815260200190815260200160002081905550611273565b808061126b906144c7565b915050611172565b505050565b3373ffffffffffffffffffffffffffffffffffffffff166010600083815260200190815260200160002060020160009054906101000a900473ffffffffffffffffffffffffffffffffffffffff1673ffffffffffffffffffffffffffffffffffffffff16146112e657600080fd5b50565b6000806002600084815260200190815260200160002060009054906101000a900473ffffffffffffffffffffffffffffffffffffffff169050600073ffffffffffffffffffffffffffffffffffffffff168173ffffffffffffffffffffffffffffffffffffffff161415611392576040517f08c379a00000000000000000000000000000000000000000000000000000000081526004016113899061407c565b60405180910390fd5b80915050919050565b60008073ffffffffffffffffffffffffffffffffffffffff168273ffffffffffffffffffffffffffffffffffffffff16141561140c576040517f08c379a00000000000000000000000000000000000000000000000000000000081526004016114039061405c565b60405180910390fd5b600360008373ffffffffffffffffffffffffffffffffffffffff1673ffffffffffffffffffffffffffffffffffffffff168152602001908152602001600020549050919050565b61145b612471565b73ffffffffffffffffffffffffffffffffffffffff166114796117f5565b73ffffffffffffffffffffffffffffffffffffffff16146114cf576040517f08c379a00000000000000000000000000000000000000000000000000000000081526004016114c6906140fc565b60405180910390fd5b6114d96000612ae9565b565b6114e3612471565b73ffffffffffffffffffffffffffffffffffffffff166115016117f5565b73ffffffffffffffffffffffffffffffffffffffff1614611557576040517f08c379a000000000000000000000000000000000000000000000000000000000815260040161154e906140fc565b60405180910390fd5b81600d826040516115689190613ddb565b908152602001604051809103902060008573ffffffffffffffffffffffffffffffffffffffff1673ffffffffffffffffffffffffffffffffffffffff16815260200190815260200160002081905550505050565b60006115c8600861288d565b905090565b60006115d7612471565b73ffffffffffffffffffffffffffffffffffffffff166115f56117f5565b73ffffffffffffffffffffffffffffffffffffffff161461164b576040517f08c379a0000000000000000000000000000000000000000000000000000000008152600401611642906140fc565b60405180910390fd5b6116556008612877565b6000611661600861288d565b905061166d338261289b565b6116778185612a75565b60016011600083815260200190815260200160002060006101000a81548160ff02191690831515021790555060006040518060c001604052806116ba600861288d565b81526020018781526020018573ffffffffffffffffffffffffffffffffffffffff1681526020018573ffffffffffffffffffffffffffffffffffffffff16815260200143815260200142815250905080601060008481526020019081526020016000206000820151816000015560208201518160010190805190602001906117439291906130e9565b5060408201518160020160006101000a81548173ffffffffffffffffffffffffffffffffffffffff021916908373ffffffffffffffffffffffffffffffffffffffff16021790555060608201518160030160006101000a81548173ffffffffffffffffffffffffffffffffffffffff021916908373ffffffffffffffffffffffffffffffffffffffff1602179055506080820151816004015560a0820151816005015590505081925050509392505050565b6000600760009054906101000a900473ffffffffffffffffffffffffffffffffffffffff16905090565b611827612471565b73ffffffffffffffffffffffffffffffffffffffff166118456117f5565b73ffffffffffffffffffffffffffffffffffffffff161461189b576040517f08c379a0000000000000000000000000000000000000000000000000000000008152600401611892906140fc565b60405180910390fd5b80600c8190555050565b6118ad6131f5565b601060008381526020019081526020016000206040518060c0016040529081600082015481526020016001820180546118e590614464565b80601f016020809104026020016040519081016040528092919081815260200182805461191190614464565b801561195e5780601f106119335761010080835404028352916020019161195e565b820191906000526020600020905b81548152906001019060200180831161194157829003601f168201915b505050505081526020016002820160009054906101000a900473ffffffffffffffffffffffffffffffffffffffff1673ffffffffffffffffffffffffffffffffffffffff1673ffffffffffffffffffffffffffffffffffffffff1681526020016003820160009054906101000a900473ffffffffffffffffffffffffffffffffffffffff1673ffffffffffffffffffffffffffffffffffffffff1673ffffffffffffffffffffffffffffffffffffffff168152602001600482015481526020016005820154815250509050919050565b606060018054611a3d90614464565b80601f0160208091040260200160405190810160405280929190818152602001828054611a6990614464565b8015611ab65780601f10611a8b57610100808354040283529160200191611ab6565b820191906000526020600020905b815481529060010190602001808311611a9957829003601f168201915b5050505050905090565b6000611acc6008612877565b6000611ad8600861288d565b9050611ae4338261289b565b611aee8185612a75565b60006011600083815260200190815260200160002060006101000a81548160ff02191690831515021790555060006040518060c00160405280611b31600861288d565b81526020018781526020018573ffffffffffffffffffffffffffffffffffffffff1681526020018573ffffffffffffffffffffffffffffffffffffffff1681526020014381526020014281525090508060106000848152602001908152602001600020600082015181600001556020820151816001019080519060200190611bba9291906130e9565b5060408201518160020160006101000a81548173ffffffffffffffffffffffffffffffffffffffff021916908373ffffffffffffffffffffffffffffffffffffffff16021790555060608201518160030160006101000a81548173ffffffffffffffffffffffffffffffffffffffff021916908373ffffffffffffffffffffffffffffffffffffffff1602179055506080820151816004015560a0820151816005015590505081925050509392505050565b611c7e611c77612471565b8383612baf565b5050565b611c93611c8d612471565b83612532565b611cd2576040517f08c379a0000000000000000000000000000000000000000000000000000000008152600401611cc99061415c565b60405180910390fd5b611cde84848484612d1c565b50505050565b6000826000805b600980549050811015611dac578273ffffffffffffffffffffffffffffffffffffffff1660098281548110611d49577f4e487b7100000000000000000000000000000000000000000000000000000000600052603260045260246000fd5b9060005260206000200160009054906101000a900473ffffffffffffffffffffffffffffffffffffffff1673ffffffffffffffffffffffffffffffffffffffff161415611d995760019150611dac565b8080611da4906144c7565b915050611ceb565b5080611ded576040517f08c379a0000000000000000000000000000000000000000000000000000000008152600401611de49061417c565b60405180910390fd5b6000600a60008773ffffffffffffffffffffffffffffffffffffffff1673ffffffffffffffffffffffffffffffffffffffff16815260200190815260200160002054905060008111611e3e57600080fd5b8573ffffffffffffffffffffffffffffffffffffffff166323b872dd3330846040518463ffffffff1660e01b8152600401611e7b93929190613e3c565b602060405180830381600087803b158015611e9557600080fd5b505af1158015611ea9573d6000803e3d6000fd5b505050506040513d601f19601f82011682018060405250810190611ecd919061361a565b50611ed86008612877565b6000611ee4600861288d565b9050611ef0338261289b565b611efa8189612a75565b60006011600083815260200190815260200160002060006101000a81548160ff02191690831515021790555060006040518060c00160405280611f3d600861288d565b81526020018b81526020018873ffffffffffffffffffffffffffffffffffffffff1681526020018873ffffffffffffffffffffffffffffffffffffffff1681526020014381526020014281525090508060106000848152602001908152602001600020600082015181600001556020820151816001019080519060200190611fc69291906130e9565b5060408201518160020160006101000a81548173ffffffffffffffffffffffffffffffffffffffff021916908373ffffffffffffffffffffffffffffffffffffffff16021790555060608201518160030160006101000a81548173ffffffffffffffffffffffffffffffffffffffff021916908373ffffffffffffffffffffffffffffffffffffffff1602179055506080820151816004015560a082015181600501559050508195505050505050949350505050565b606061208782612405565b6120c6576040517f08c379a00000000000000000000000000000000000000000000000000000000081526004016120bd90613efc565b60405180910390fd5b600b6120d183612d78565b6040516020016120e2929190613df2565b6040516020818303038152906040529050919050565b600f818051602081018201805184825260208301602085012081835280955050505050506000915054906101000a900460ff1681565b6000600560008473ffffffffffffffffffffffffffffffffffffffff1673ffffffffffffffffffffffffffffffffffffffff16815260200190815260200160002060008373ffffffffffffffffffffffffffffffffffffffff1673ffffffffffffffffffffffffffffffffffffffff16815260200190815260200160002060009054906101000a900460ff16905092915050565b6121ca612471565b73ffffffffffffffffffffffffffffffffffffffff166121e86117f5565b73ffffffffffffffffffffffffffffffffffffffff161461223e576040517f08c379a0000000000000000000000000000000000000000000000000000000008152600401612235906140fc565b60405180910390fd5b600073ffffffffffffffffffffffffffffffffffffffff168173ffffffffffffffffffffffffffffffffffffffff1614156122ae576040517f08c379a00000000000000000000000000000000000000000000000000000000081526004016122a590613f5c565b60405180910390fd5b6122b781612ae9565b50565b6122c2612471565b73ffffffffffffffffffffffffffffffffffffffff166122e06117f5565b73ffffffffffffffffffffffffffffffffffffffff1614612336576040517f08c379a000000000000000000000000000000000000000000000000000000000815260040161232d906140fc565b60405180910390fd5b81600e826040516123479190613ddb565b908152602001604051809103902060008573ffffffffffffffffffffffffffffffffffffffff1673ffffffffffffffffffffffffffffffffffffffff16815260200190815260200160002081905550505050565b60007f01ffc9a7000000000000000000000000000000000000000000000000000000007bffffffffffffffffffffffffffffffffffffffffffffffffffffffff1916827bffffffffffffffffffffffffffffffffffffffffffffffffffffffff1916149050919050565b60008073ffffffffffffffffffffffffffffffffffffffff166002600084815260200190815260200160002060009054906101000a900473ffffffffffffffffffffffffffffffffffffffff1673ffffffffffffffffffffffffffffffffffffffff1614159050919050565b600033905090565b816004600083815260200190815260200160002060006101000a81548173ffffffffffffffffffffffffffffffffffffffff021916908373ffffffffffffffffffffffffffffffffffffffff160217905550808273ffffffffffffffffffffffffffffffffffffffff166124ec836112e9565b73ffffffffffffffffffffffffffffffffffffffff167f8c5be1e5ebec7d5bd14f71427d1e84f3dd0314c0f7b2291e5b200ac8c7c3b92560405160405180910390a45050565b600061253d82612405565b61257c576040517f08c379a00000000000000000000000000000000000000000000000000000000081526004016125739061401c565b60405180910390fd5b6000612587836112e9565b90508073ffffffffffffffffffffffffffffffffffffffff168473ffffffffffffffffffffffffffffffffffffffff1614806125f657508373ffffffffffffffffffffffffffffffffffffffff166125de84610921565b73ffffffffffffffffffffffffffffffffffffffff16145b806126075750612606818561212e565b5b91505092915050565b8273ffffffffffffffffffffffffffffffffffffffff16612630826112e9565b73ffffffffffffffffffffffffffffffffffffffff1614612686576040517f08c379a000000000000000000000000000000000000000000000000000000000815260040161267d90613f7c565b60405180910390fd5b600073ffffffffffffffffffffffffffffffffffffffff168273ffffffffffffffffffffffffffffffffffffffff1614156126f6576040517f08c379a00000000000000000000000000000000000000000000000000000000081526004016126ed90613fbc565b60405180910390fd5b612701838383612f25565b61270c600082612479565b6001600360008573ffffffffffffffffffffffffffffffffffffffff1673ffffffffffffffffffffffffffffffffffffffff168152602001908152602001600020600082825461275c9190614350565b925050819055506001600360008473ffffffffffffffffffffffffffffffffffffffff1673ffffffffffffffffffffffffffffffffffffffff16815260200190815260200160002060008282546127b391906142c9565b92505081905550816002600083815260200190815260200160002060006101000a81548173ffffffffffffffffffffffffffffffffffffffff021916908373ffffffffffffffffffffffffffffffffffffffff160217905550808273ffffffffffffffffffffffffffffffffffffffff168473ffffffffffffffffffffffffffffffffffffffff167fddf252ad1be2c89b69c2b068fc378daa952ba7f163c4a11628f55a4df523b3ef60405160405180910390a4612872838383612f2a565b505050565b6001816000016000828254019250508190555050565b600081600001549050919050565b600073ffffffffffffffffffffffffffffffffffffffff168273ffffffffffffffffffffffffffffffffffffffff16141561290b576040517f08c379a0000000000000000000000000000000000000000000000000000000008152600401612902906140bc565b60405180910390fd5b61291481612405565b15612954576040517f08c379a000000000000000000000000000000000000000000000000000000000815260040161294b90613f9c565b60405180910390fd5b61296060008383612f25565b6001600360008473ffffffffffffffffffffffffffffffffffffffff1673ffffffffffffffffffffffffffffffffffffffff16815260200190815260200160002060008282546129b091906142c9565b92505081905550816002600083815260200190815260200160002060006101000a81548173ffffffffffffffffffffffffffffffffffffffff021916908373ffffffffffffffffffffffffffffffffffffffff160217905550808273ffffffffffffffffffffffffffffffffffffffff16600073ffffffffffffffffffffffffffffffffffffffff167fddf252ad1be2c89b69c2b068fc378daa952ba7f163c4a11628f55a4df523b3ef60405160405180910390a4612a7160008383612f2a565b5050565b612a7e82612405565b612abd576040517f08c379a0000000000000000000000000000000000000000000000000000000008152600401612ab49061409c565b60405180910390fd5b80600660008481526020019081526020016000209080519060200190612ae49291906130e9565b505050565b6000600760009054906101000a900473ffffffffffffffffffffffffffffffffffffffff16905081600760006101000a81548173ffffffffffffffffffffffffffffffffffffffff021916908373ffffffffffffffffffffffffffffffffffffffff1602179055508173ffffffffffffffffffffffffffffffffffffffff168173ffffffffffffffffffffffffffffffffffffffff167f8be0079c531659141344cd1fd0a4f28419497f9722a3daafe3b4186f6b6457e060405160405180910390a35050565b8173ffffffffffffffffffffffffffffffffffffffff168373ffffffffffffffffffffffffffffffffffffffff161415612c1e576040517f08c379a0000000000000000000000000000000000000000000000000000000008152600401612c1590613fdc565b60405180910390fd5b80600560008573ffffffffffffffffffffffffffffffffffffffff1673ffffffffffffffffffffffffffffffffffffffff16815260200190815260200160002060008473ffffffffffffffffffffffffffffffffffffffff1673ffffffffffffffffffffffffffffffffffffffff16815260200190815260200160002060006101000a81548160ff0219169083151502179055508173ffffffffffffffffffffffffffffffffffffffff168373ffffffffffffffffffffffffffffffffffffffff167f17307eab39ab6107e8899845ad3d59bd9653f200f220920489ca2b5937696c3183604051612d0f9190613ebf565b60405180910390a3505050565b612d27848484612610565b612d3384848484612f2f565b612d72576040517f08c379a0000000000000000000000000000000000000000000000000000000008152600401612d6990613f1c565b60405180910390fd5b50505050565b60606000821415612dc0576040518060400160405280600181526020017f30000000000000000000000000000000000000000000000000000000000000008152509050612f20565b600082905060005b60008214612df2578080612ddb906144c7565b915050600a82612deb919061431f565b9150612dc8565b60008167ffffffffffffffff811115612e34577f4e487b7100000000000000000000000000000000000000000000000000000000600052604160045260246000fd5b6040519080825280601f01601f191660200182016040528015612e665781602001600182028036833780820191505090505b5090505b60008514612f1957600182612e7f9190614350565b9150600a85612e8e9190614510565b6030612e9a91906142c9565b60f81b818381518110612ed6577f4e487b7100000000000000000000000000000000000000000000000000000000600052603260045260246000fd5b60200101907effffffffffffffffffffffffffffffffffffffffffffffffffffffffffffff1916908160001a905350600a85612f12919061431f565b9450612e6a565b8093505050505b919050565b505050565b505050565b6000612f508473ffffffffffffffffffffffffffffffffffffffff166130c6565b156130b9578373ffffffffffffffffffffffffffffffffffffffff1663150b7a02612f79612471565b8786866040518563ffffffff1660e01b8152600401612f9b9493929190613e73565b602060405180830381600087803b158015612fb557600080fd5b505af1925050508015612fe657506040513d601f19601f82011682018060405250810190612fe3919061366c565b60015b613069573d8060008114613016576040519150601f19603f3d011682016040523d82523d6000602084013e61301b565b606091505b50600081511415613061576040517f08c379a000000000000000000000000000000000000000000000000000000000815260040161305890613f1c565b60405180910390fd5b805181602001fd5b63150b7a0260e01b7bffffffffffffffffffffffffffffffffffffffffffffffffffffffff1916817bffffffffffffffffffffffffffffffffffffffffffffffffffffffff1916149150506130be565b600190505b949350505050565b6000808273ffffffffffffffffffffffffffffffffffffffff163b119050919050565b8280546130f590614464565b90600052602060002090601f016020900481019282613117576000855561315e565b82601f1061313057805160ff191683800117855561315e565b8280016001018555821561315e579182015b8281111561315d578251825591602001919060010190613142565b5b50905061316b9190613257565b5090565b82805461317b90614464565b90600052602060002090601f01602090048101928261319d57600085556131e4565b82601f106131b657803560ff19168380011785556131e4565b828001600101855582156131e4579182015b828111156131e35782358255916020019190600101906131c8565b5b5090506131f19190613257565b5090565b6040518060c001604052806000815260200160608152602001600073ffffffffffffffffffffffffffffffffffffffff168152602001600073ffffffffffffffffffffffffffffffffffffffff16815260200160008152602001600081525090565b5b80821115613270576000816000905550600101613258565b5090565b6000613287613282846141fe565b6141d9565b90508281526020810184848401111561329f57600080fd5b6132aa8482856143f8565b509392505050565b60006132c56132c08461422f565b6141d9565b9050828152602081018484840111156132dd57600080fd5b6132e88482856143f8565b509392505050565b6000813590506132ff81614ba8565b92915050565b60008135905061331481614bbf565b92915050565b60008151905061332981614bbf565b92915050565b60008135905061333e81614bd6565b92915050565b60008151905061335381614bd6565b92915050565b600082601f83011261336a57600080fd5b813561337a848260208601613274565b91505092915050565b60008083601f84011261339557600080fd5b8235905067ffffffffffffffff8111156133ae57600080fd5b6020830191508360018202830111156133c657600080fd5b9250929050565b600082601f8301126133de57600080fd5b81356133ee8482602086016132b2565b91505092915050565b60008135905061340681614bed565b92915050565b60006020828403121561341e57600080fd5b600061342c848285016132f0565b91505092915050565b6000806040838503121561344857600080fd5b6000613456858286016132f0565b9250506020613467858286016132f0565b9150509250929050565b60008060006060848603121561348657600080fd5b6000613494868287016132f0565b93505060206134a5868287016132f0565b92505060406134b6868287016133f7565b9150509250925092565b600080600080608085870312156134d657600080fd5b60006134e4878288016132f0565b94505060206134f5878288016132f0565b9350506040613506878288016133f7565b925050606085013567ffffffffffffffff81111561352357600080fd5b61352f87828801613359565b91505092959194509250565b6000806040838503121561354e57600080fd5b600061355c858286016132f0565b925050602061356d85828601613305565b9150509250929050565b6000806040838503121561358a57600080fd5b6000613598858286016132f0565b92505060206135a9858286016133f7565b9150509250929050565b6000806000606084860312156135c857600080fd5b60006135d6868287016132f0565b93505060206135e7868287016133f7565b925050604084013567ffffffffffffffff81111561360457600080fd5b613610868287016133cd565b9150509250925092565b60006020828403121561362c57600080fd5b600061363a8482850161331a565b91505092915050565b60006020828403121561365557600080fd5b60006136638482850161332f565b91505092915050565b60006020828403121561367e57600080fd5b600061368c84828501613344565b91505092915050565b600080602083850312156136a857600080fd5b600083013567ffffffffffffffff8111156136c257600080fd5b6136ce85828601613383565b92509250509250929050565b6000602082840312156136ec57600080fd5b600082013567ffffffffffffffff81111561370657600080fd5b613712848285016133cd565b91505092915050565b60008060006060848603121561373057600080fd5b600084013567ffffffffffffffff81111561374a57600080fd5b613756868287016133cd565b935050602084013567ffffffffffffffff81111561377357600080fd5b61377f868287016133cd565b9250506040613790868287016132f0565b9150509250925092565b600080600080608085870312156137b057600080fd5b600085013567ffffffffffffffff8111156137ca57600080fd5b6137d6878288016133cd565b945050602085013567ffffffffffffffff8111156137f357600080fd5b6137ff878288016133cd565b9350506040613810878288016132f0565b9250506060613821878288016132f0565b91505092959194509250565b60006020828403121561383f57600080fd5b600061384d848285016133f7565b91505092915050565b6000806040838503121561386957600080fd5b6000613877858286016133f7565b925050602083013567ffffffffffffffff81111561389457600080fd5b6138a0858286016133cd565b9150509250929050565b6138b381614384565b82525050565b6138c281614384565b82525050565b6138d181614396565b82525050565b60006138e282614275565b6138ec818561428b565b93506138fc818560208601614407565b613905816145fd565b840191505092915050565b600061391b82614280565b613925818561429c565b9350613935818560208601614407565b61393e816145fd565b840191505092915050565b600061395482614280565b61395e81856142ad565b935061396e818560208601614407565b613977816145fd565b840191505092915050565b600061398d82614280565b61399781856142be565b93506139a7818560208601614407565b80840191505092915050565b600081546139c081614464565b6139ca81866142be565b945060018216600081146139e557600181146139f657613a29565b60ff19831686528186019350613a29565b6139ff85614260565b60005b83811015613a2157815481890152600182019150602081019050613a02565b838801955050505b50505092915050565b6000613a3f601f836142ad565b9150613a4a8261460e565b602082019050919050565b6000613a626032836142ad565b9150613a6d82614637565b604082019050919050565b6000613a85601b836142ad565b9150613a9082614686565b602082019050919050565b6000613aa86026836142ad565b9150613ab3826146af565b604082019050919050565b6000613acb6025836142ad565b9150613ad6826146fe565b604082019050919050565b6000613aee601c836142ad565b9150613af98261474d565b602082019050919050565b6000613b116024836142ad565b9150613b1c82614776565b604082019050919050565b6000613b346019836142ad565b9150613b3f826147c5565b602082019050919050565b6000613b576023836142ad565b9150613b62826147ee565b604082019050919050565b6000613b7a602c836142ad565b9150613b858261483d565b604082019050919050565b6000613b9d6038836142ad565b9150613ba88261488c565b604082019050919050565b6000613bc0602a836142ad565b9150613bcb826148db565b604082019050919050565b6000613be36029836142ad565b9150613bee8261492a565b604082019050919050565b6000613c06602e836142ad565b9150613c1182614979565b604082019050919050565b6000613c296020836142ad565b9150613c34826149c8565b602082019050919050565b6000613c4c602c836142ad565b9150613c57826149f1565b604082019050919050565b6000613c6f6005836142be565b9150613c7a82614a40565b600582019050919050565b6000613c926020836142ad565b9150613c9d82614a69565b602082019050919050565b6000613cb56021836142ad565b9150613cc082614a92565b604082019050919050565b6000613cd86021836142ad565b9150613ce382614ae1565b604082019050919050565b6000613cfb6031836142ad565b9150613d0682614b30565b604082019050919050565b6000613d1e6011836142ad565b9150613d2982614b7f565b602082019050919050565b600060c083016000830151613d4c6000860182613dbd565b5060208301518482036020860152613d648282613910565b9150506040830151613d7960408601826138aa565b506060830151613d8c60608601826138aa565b506080830151613d9f6080860182613dbd565b5060a0830151613db260a0860182613dbd565b508091505092915050565b613dc6816143ee565b82525050565b613dd5816143ee565b82525050565b6000613de78284613982565b915081905092915050565b6000613dfe82856139b3565b9150613e0a8284613982565b9150613e1582613c62565b91508190509392505050565b6000602082019050613e3660008301846138b9565b92915050565b6000606082019050613e5160008301866138b9565b613e5e60208301856138b9565b613e6b6040830184613dcc565b949350505050565b6000608082019050613e8860008301876138b9565b613e9560208301866138b9565b613ea26040830185613dcc565b8181036060830152613eb481846138d7565b905095945050505050565b6000602082019050613ed460008301846138c8565b92915050565b60006020820190508181036000830152613ef48184613949565b905092915050565b60006020820190508181036000830152613f1581613a32565b9050919050565b60006020820190508181036000830152613f3581613a55565b9050919050565b60006020820190508181036000830152613f5581613a78565b9050919050565b60006020820190508181036000830152613f7581613a9b565b9050919050565b60006020820190508181036000830152613f9581613abe565b9050919050565b60006020820190508181036000830152613fb581613ae1565b9050919050565b60006020820190508181036000830152613fd581613b04565b9050919050565b60006020820190508181036000830152613ff581613b27565b9050919050565b6000602082019050818103600083015261401581613b4a565b9050919050565b6000602082019050818103600083015261403581613b6d565b9050919050565b6000602082019050818103600083015261405581613b90565b9050919050565b6000602082019050818103600083015261407581613bb3565b9050919050565b6000602082019050818103600083015261409581613bd6565b9050919050565b600060208201905081810360008301526140b581613bf9565b9050919050565b600060208201905081810360008301526140d581613c1c565b9050919050565b600060208201905081810360008301526140f581613c3f565b9050919050565b6000602082019050818103600083015261411581613c85565b9050919050565b6000602082019050818103600083015261413581613ca8565b9050919050565b6000602082019050818103600083015261415581613ccb565b9050919050565b6000602082019050818103600083015261417581613cee565b9050919050565b6000602082019050818103600083015261419581613d11565b9050919050565b600060208201905081810360008301526141b68184613d34565b905092915050565b60006020820190506141d36000830184613dcc565b92915050565b60006141e36141f4565b90506141ef8282614496565b919050565b6000604051905090565b600067ffffffffffffffff821115614219576142186145ce565b5b614222826145fd565b9050602081019050919050565b600067ffffffffffffffff82111561424a576142496145ce565b5b614253826145fd565b9050602081019050919050565b60008190508160005260206000209050919050565b600081519050919050565b600081519050919050565b600082825260208201905092915050565b600082825260208201905092915050565b600082825260208201905092915050565b600081905092915050565b60006142d4826143ee565b91506142df836143ee565b9250827fffffffffffffffffffffffffffffffffffffffffffffffffffffffffffffffff0382111561431457614313614541565b5b828201905092915050565b600061432a826143ee565b9150614335836143ee565b92508261434557614344614570565b5b828204905092915050565b600061435b826143ee565b9150614366836143ee565b92508282101561437957614378614541565b5b828203905092915050565b600061438f826143ce565b9050919050565b60008115159050919050565b60007fffffffff0000000000000000000000000000000000000000000000000000000082169050919050565b600073ffffffffffffffffffffffffffffffffffffffff82169050919050565b6000819050919050565b82818337600083830152505050565b60005b8381101561442557808201518184015260208101905061440a565b83811115614434576000848401525b50505050565b6000614445826143ee565b9150600082141561445957614458614541565b5b600182039050919050565b6000600282049050600182168061447c57607f821691505b602082108114156144905761448f61459f565b5b50919050565b61449f826145fd565b810181811067ffffffffffffffff821117156144be576144bd6145ce565b5b80604052505050565b60006144d2826143ee565b91507fffffffffffffffffffffffffffffffffffffffffffffffffffffffffffffffff82141561450557614504614541565b5b600182019050919050565b600061451b826143ee565b9150614526836143ee565b92508261453657614535614570565b5b828206905092915050565b7f4e487b7100000000000000000000000000000000000000000000000000000000600052601160045260246000fd5b7f4e487b7100000000000000000000000000000000000000000000000000000000600052601260045260246000fd5b7f4e487b7100000000000000000000000000000000000000000000000000000000600052602260045260246000fd5b7f4e487b7100000000000000000000000000000000000000000000000000000000600052604160045260246000fd5b6000601f19601f8301169050919050565b7f55524920717565727920666f72206e6f6e6578697374656e7420746f6b656e00600082015250565b7f4552433732313a207472616e7366657220746f206e6f6e20455243373231526560008201527f63656976657220696d706c656d656e7465720000000000000000000000000000602082015250565b7f70726963652068617320746f206265206d6f7265207468616e20300000000000600082015250565b7f4f776e61626c653a206e6577206f776e657220697320746865207a65726f206160008201527f6464726573730000000000000000000000000000000000000000000000000000602082015250565b7f4552433732313a207472616e736665722066726f6d20696e636f72726563742060008201527f6f776e6572000000000000000000000000000000000000000000000000000000602082015250565b7f4552433732313a20746f6b656e20616c7265616479206d696e74656400000000600082015250565b7f4552433732313a207472616e7366657220746f20746865207a65726f2061646460008201527f7265737300000000000000000000000000000000000000000000000000000000602082015250565b7f4552433732313a20617070726f766520746f2063616c6c657200000000000000600082015250565b7f48617320746f206265206d6f7265207468616e2030206d696e74696e6720706f60008201527f7765720000000000000000000000000000000000000000000000000000000000602082015250565b7f4552433732313a206f70657261746f7220717565727920666f72206e6f6e657860008201527f697374656e7420746f6b656e0000000000000000000000000000000000000000602082015250565b7f4552433732313a20617070726f76652063616c6c6572206973206e6f74206f7760008201527f6e6572206e6f7220617070726f76656420666f7220616c6c0000000000000000602082015250565b7f4552433732313a2062616c616e636520717565727920666f7220746865207a6560008201527f726f206164647265737300000000000000000000000000000000000000000000602082015250565b7f4552433732313a206f776e657220717565727920666f72206e6f6e657869737460008201527f656e7420746f6b656e0000000000000000000000000000000000000000000000602082015250565b7f45524337323155524953746f726167653a2055524920736574206f66206e6f6e60008201527f6578697374656e7420746f6b656e000000000000000000000000000000000000602082015250565b7f4552433732313a206d696e7420746f20746865207a65726f2061646472657373600082015250565b7f4552433732313a20617070726f76656420717565727920666f72206e6f6e657860008201527f697374656e7420746f6b656e0000000000000000000000000000000000000000602082015250565b7f2e6a736f6e000000000000000000000000000000000000000000000000000000600082015250565b7f4f776e61626c653a2063616c6c6572206973206e6f7420746865206f776e6572600082015250565b7f48617320746f206265206d6f7265207468616e2030207065726d697373696f6e60008201527f7300000000000000000000000000000000000000000000000000000000000000602082015250565b7f4552433732313a20617070726f76616c20746f2063757272656e74206f776e6560008201527f7200000000000000000000000000000000000000000000000000000000000000602082015250565b7f4552433732313a207472616e736665722063616c6c6572206973206e6f74206f60008201527f776e6572206e6f7220617070726f766564000000000000000000000000000000602082015250565b7f6e6f7420616363657074656420636f696e000000000000000000000000000000600082015250565b614bb181614384565b8114614bbc57600080fd5b50565b614bc881614396565b8114614bd357600080fd5b50565b614bdf816143a2565b8114614bea57600080fd5b50565b614bf6816143ee565b8114614c0157600080fd5b5056fea264697066735822122037ca511dca0fb3db240283335fafcc32119e4b6893448540dc21210d3b64a83764736f6c63430008030033",
  "immutableReferences": {},
  "source": "// SPDX-License-Identifier: MIT\npragma solidity ^0.8.0;\n\nimport \"@openzeppelin/contracts/token/ERC721/extensions/ERC721URIStorage.sol\";\nimport \"@openzeppelin/contracts/token/ERC20/IERC20.sol\";\nimport \"@openzeppelin/contracts/utils/Counters.sol\";\nimport \"@openzeppelin/contracts/access/Ownable.sol\";\n\n\ncontract Deccert is ERC721URIStorage,Ownable{\n\n    using Counters for Counters.Counter;\n\n    ///////////////-----Variable-------------///////////\n    Counters.Counter private _tokenIds;\n    address[] acceptedCoins;\n    mapping(address=>uint256) private COINS_PRICE;\n\n    string internal baseURI;\n    uint256 internal currentPrice=10**8 wei;\n \n    mapping(string=>mapping(address=>uint256)) private HAS_ALLOWANCE;\n    mapping(string=>mapping(address=>uint256)) private MINTING_POWER;\n\n    //check the string use by the user is not repeat\n    mapping(string=>bool)public _names;\n\n\n    constructor() ERC721(\"Deccert\", \"DECCERT\") {\n        \n    }\n\n    struct Certi {\n        uint256 tokenId;\n        string name;\n        address owner;\n        address previusOwner;\n        uint256 blockNumber;\n        uint256 time;\n    }\n    \n    mapping(uint256=>Certi) _certificados ;\n    mapping(uint256=>bool) SIGNED; \n\n\n//-----------------MODIFICADORES--------------------------//\n    modifier hasPermission(string memory _uri){\n        require(HAS_ALLOWANCE[_uri][msg.sender]>0,'Has to be more than 0 permissions');\n        HAS_ALLOWANCE[_uri][msg.sender]--;\n        _;\n    }\n\n    modifier hasMintingPower(string memory _uri){\n        require(MINTING_POWER[_uri][msg.sender]>0,'Has to be more than 0 minting power');\n        MINTING_POWER[_uri][msg.sender]--;\n        _;\n    }\n\n    modifier LegalCoin(address _coin){\n        bool pass=false;\n        for (uint256 index = 0; index < acceptedCoins.length; index++) {\n            if(acceptedCoins[index]==_coin){\n                pass=true;\n                break;\n            }\n        }\n        require(pass,'not accepted coin');\n        _;\n    }\n//-------------------MODIFICADORES--------------------------//\n\n\n    //Only the owner can call this function to mint NFT\n    function ManualMinting(\n        string memory _name,\n        string memory _uri,\n        address who) external onlyOwner returns(uint256){\n\n        //incrementamos en 1 el contador\n        _tokenIds.increment();\n\n        uint256 newItemId = _tokenIds.current();\n        _mint(msg.sender, newItemId);\n        _setTokenURI(newItemId, _uri);\n        SIGNED[newItemId]=true;\n\n        Certi memory newCerti= Certi(\n        _tokenIds.current(),//token id of Deccert certificate\n        _name,\n        who,\n        who,\n        block.number,\n        block.timestamp\n        );\n\n        _certificados[newItemId] = newCerti;\n\n        return newItemId;\n\n    }\n\n\n    //Owner can give user capability to mint an specific URI NFT\n    function PermissionMinting(\n        string memory _name,\n        string memory _uri,\n        address who) external hasMintingPower(_uri) returns(uint256){\n\n        _tokenIds.increment();\n\n        uint256 newItemId = _tokenIds.current();\n        _mint(msg.sender, newItemId);\n        _setTokenURI(newItemId, _uri);\n        SIGNED[newItemId]=true;\n\n        Certi memory newCerti= Certi(\n        _tokenIds.current(),//token id of Deccert certificate\n        _name,\n        who,\n        who,\n        block.number,\n        block.timestamp\n        );\n\n        _certificados[newItemId] = newCerti;\n\n        return newItemId;\n\n    }\n\n/////////////////////////////////////////////////////////////////////////////////////\n    \n    //Any user can call this function and mint their own certificate \n    function PreMinting(\n      string memory _name,\n      string memory _uri,\n      address who) external payable returns (uint256){\n\n        //incrementamos en 1 el contador\n        _tokenIds.increment();\n\n        uint256 newItemId = _tokenIds.current();\n        _mint(msg.sender, newItemId);\n        _setTokenURI(newItemId, _uri);\n        SIGNED[newItemId]=false;\n\n        Certi memory newCerti= Certi(\n        _tokenIds.current(),//token id of hashima\n        _name,\n        who,\n        who,\n        block.number,\n        block.timestamp\n        );\n\n        _certificados[newItemId] = newCerti;\n\n        return newItemId;\n\n    }\n\n    //Any user can call this function and mint their own certificate \n    function PreMintingERC20(\n      string memory _name,\n      string memory _uri,\n      address _token_address,\n      address who) external LegalCoin(_token_address)  returns (uint256){\n        \n        uint256 _price=COINS_PRICE[_token_address];\n        require(_price>0);\n        IERC20(_token_address).transferFrom(msg.sender, address(this), _price);\n        \n        _tokenIds.increment();\n\n        uint256 newItemId = _tokenIds.current();\n        _mint(msg.sender, newItemId);\n        _setTokenURI(newItemId, _uri);\n        SIGNED[newItemId]=false;\n\n        Certi memory newCerti= Certi(\n        _tokenIds.current(),//token id of hashima\n        _name,\n        who,\n        who,\n        block.number,\n        block.timestamp\n        );\n\n        _certificados[newItemId] = newCerti;\n\n        return newItemId;\n\n    }\n\n/////////////////////////////////////////////////////////////////////////////////////\n\n    //sender sign no signed NFT.\n    //hasPermission modifier rest 1 from its public mapping counting\n    function SignCertificate(\n        uint256 tokenId,\n        string memory _uri)public hasPermission(_uri){\n        SIGNED[tokenId]=true;\n    }\n\n    //function called by contract owner to give 'minting power' to backend \n    //and third partys.\n    function givePermission(\n        address _user,\n        uint256 _howMuch,\n        string memory _uri\n        )public onlyOwner{\n\n            HAS_ALLOWANCE[_uri][_user]=_howMuch;\n    }\n\n    function giveMintingPower(\n        address _user,\n        uint256 _howMuch,\n        string memory _uri\n        )public onlyOwner{\n\n            MINTING_POWER[_uri][_user]=_howMuch;\n    }\n\n \n\n    function addCoin(address coinAddress)external onlyOwner{\n        acceptedCoins.push(coinAddress);\n    }\n\n\n/////////////----SETTERS----//////////////\n    function setPrice(uint256 _newPrice)external onlyOwner{\n        currentPrice=_newPrice;\n    }\n\n    function setPriceERC20(address coin,uint256 _newPrice)external onlyOwner{\n        require(_newPrice>0,'price has to be more than 0');\n        for (uint256 index = 0; index < acceptedCoins.length; index++) {\n            \n            if(acceptedCoins[index]==coin){\n                COINS_PRICE[coin]=_newPrice;\n                break;\n            }\n        }\n        \n    }\n\n    function get(uint256 _index)public view returns(Certi memory){\n          return _certificados[_index];\n    }\n  \n    function check(uint256 _index)external view{\n          require(_certificados[_index].owner==msg.sender);\n    }\n\n\n    function getTotal()public view returns(uint256){\n        return(_tokenIds.current());\n    }\n\n    function setBaseURI(string calldata newEntry)external onlyOwner{\n      baseURI=newEntry;\n    }\n\n    function tokenURI(uint256 tokenId) public view override returns (string memory) {\n        require(_exists(tokenId), \"URI query for nonexistent token\");\n\n       return string(abi.encodePacked(baseURI,Strings.toString(tokenId),\".json\"));\n\n    }\n  \n}",
  "sourcePath": "/Users/aarontolentino/Documents/AcademiaCrypto/Deccert/contracts/Deccert.sol",
  "compiler": {
    "name": "solc",
    "version": "0.8.3+commit.8d00100c.Emscripten.clang"
  },
  "schemaVersion": "3.4.1",
  "updatedAt": "2022-07-21T07:13:14.104Z",
  "networkType": "ethereum",
  "devdoc": {
    "kind": "dev",
    "methods": {
      "approve(address,uint256)": {
        "details": "See {IERC721-approve}."
      },
      "balanceOf(address)": {
        "details": "See {IERC721-balanceOf}."
      },
      "getApproved(uint256)": {
        "details": "See {IERC721-getApproved}."
      },
      "isApprovedForAll(address,address)": {
        "details": "See {IERC721-isApprovedForAll}."
      },
      "name()": {
        "details": "See {IERC721Metadata-name}."
      },
      "owner()": {
        "details": "Returns the address of the current owner."
      },
      "ownerOf(uint256)": {
        "details": "See {IERC721-ownerOf}."
      },
      "renounceOwnership()": {
        "details": "Leaves the contract without owner. It will not be possible to call `onlyOwner` functions anymore. Can only be called by the current owner. NOTE: Renouncing ownership will leave the contract without an owner, thereby removing any functionality that is only available to the owner."
      },
      "safeTransferFrom(address,address,uint256)": {
        "details": "See {IERC721-safeTransferFrom}."
      },
      "safeTransferFrom(address,address,uint256,bytes)": {
        "details": "See {IERC721-safeTransferFrom}."
      },
      "setApprovalForAll(address,bool)": {
        "details": "See {IERC721-setApprovalForAll}."
      },
      "supportsInterface(bytes4)": {
        "details": "See {IERC165-supportsInterface}."
      },
      "symbol()": {
        "details": "See {IERC721Metadata-symbol}."
      },
      "tokenURI(uint256)": {
        "details": "See {IERC721Metadata-tokenURI}."
      },
      "transferFrom(address,address,uint256)": {
        "details": "See {IERC721-transferFrom}."
      },
      "transferOwnership(address)": {
        "details": "Transfers ownership of the contract to a new account (`newOwner`). Can only be called by the current owner."
      }
    },
    "version": 1
  },
  "userdoc": {
    "kind": "user",
    "methods": {},
    "version": 1
  }
}