{
  "contractName": "Server",
  "abi": [
    {
      "inputs": [
        {
          "internalType": "contract Deccert",
          "name": "_contract",
          "type": "address"
        }
      ],
      "stateMutability": "nonpayable",
      "type": "constructor"
    },
    {
      "anonymous": false,
      "inputs": [
        {
          "indexed": true,
          "internalType": "address",
          "name": "previousOwner",
          "type": "address"
        },
        {
          "indexed": true,
          "internalType": "address",
          "name": "newOwner",
          "type": "address"
        }
      ],
      "name": "OwnershipTransferred",
      "type": "event"
    },
    {
      "inputs": [],
      "name": "owner",
      "outputs": [
        {
          "internalType": "address",
          "name": "",
          "type": "address"
        }
      ],
      "stateMutability": "view",
      "type": "function"
    },
    {
      "inputs": [],
      "name": "renounceOwnership",
      "outputs": [],
      "stateMutability": "nonpayable",
      "type": "function"
    },
    {
      "inputs": [
        {
          "internalType": "address",
          "name": "newOwner",
          "type": "address"
        }
      ],
      "name": "transferOwnership",
      "outputs": [],
      "stateMutability": "nonpayable",
      "type": "function"
    },
    {
      "inputs": [
        {
          "internalType": "uint256",
          "name": "_stars",
          "type": "uint256"
        },
        {
          "internalType": "string",
          "name": "_uri",
          "type": "string"
        }
      ],
      "name": "payServer",
      "outputs": [],
      "stateMutability": "payable",
      "type": "function"
    },
    {
      "inputs": [
        {
          "internalType": "address",
          "name": "_user",
          "type": "address"
        }
      ],
      "name": "checkPayment",
      "outputs": [
        {
          "internalType": "bool",
          "name": "",
          "type": "bool"
        },
        {
          "internalType": "uint256",
          "name": "",
          "type": "uint256"
        },
        {
          "internalType": "string",
          "name": "",
          "type": "string"
        }
      ],
      "stateMutability": "view",
      "type": "function"
    },
    {
      "inputs": [
        {
          "internalType": "uint256",
          "name": "tokenId",
          "type": "uint256"
        },
        {
          "internalType": "address",
          "name": "clientUser",
          "type": "address"
        }
      ],
      "name": "depositHashima",
      "outputs": [],
      "stateMutability": "nonpayable",
      "type": "function"
    },
    {
      "inputs": [
        {
          "internalType": "address",
          "name": "_user",
          "type": "address"
        }
      ],
      "name": "paymentRegister",
      "outputs": [
        {
          "internalType": "bool",
          "name": "",
          "type": "bool"
        }
      ],
      "stateMutability": "view",
      "type": "function"
    },
    {
      "inputs": [
        {
          "internalType": "uint256",
          "name": "_minPrice",
          "type": "uint256"
        }
      ],
      "name": "setMinPrice",
      "outputs": [],
      "stateMutability": "nonpayable",
      "type": "function"
    },
    {
      "inputs": [
        {
          "internalType": "uint256",
          "name": "_numberStars",
          "type": "uint256"
        }
      ],
      "name": "setStarsLimit",
      "outputs": [],
      "stateMutability": "nonpayable",
      "type": "function"
    }
  ],
  "bytecode": "0x60806040526002600355655af3107a40006006553480156200002057600080fd5b506040516200154e3803806200154e833981810160405281019062000046919062000198565b620000666200005a620000b560201b60201c565b620000bd60201b60201c565b6001808190555080600460006101000a81548173ffffffffffffffffffffffffffffffffffffffff021916908373ffffffffffffffffffffffffffffffffffffffff1602179055505062000226565b600033905090565b60008060009054906101000a900473ffffffffffffffffffffffffffffffffffffffff169050816000806101000a81548173ffffffffffffffffffffffffffffffffffffffff021916908373ffffffffffffffffffffffffffffffffffffffff1602179055508173ffffffffffffffffffffffffffffffffffffffff168173ffffffffffffffffffffffffffffffffffffffff167f8be0079c531659141344cd1fd0a4f28419497f9722a3daafe3b4186f6b6457e060405160405180910390a35050565b60008151905062000192816200020c565b92915050565b600060208284031215620001ab57600080fd5b6000620001bb8482850162000181565b91505092915050565b6000620001d182620001ec565b9050919050565b6000620001e582620001c4565b9050919050565b600073ffffffffffffffffffffffffffffffffffffffff82169050919050565b6200021781620001d8565b81146200022357600080fd5b50565b61131880620002366000396000f3fe6080604052600436106100865760003560e01c80638da5cb5b116100595780638da5cb5b14610133578063b2f54cb71461015e578063cbc16f191461019b578063d2b95d86146101b7578063f2fde38b146101e057610086565b806326cce6c81461008b5780633b56fdc6146100b45780635ea8cd12146100f3578063715018a61461011c575b600080fd5b34801561009757600080fd5b506100b260048036038101906100ad9190610d58565b610209565b005b3480156100c057600080fd5b506100db60048036038101906100d69190610d06565b610523565b6040516100ea93929190610f91565b60405180910390f35b3480156100ff57600080fd5b5061011a60048036038101906101159190610d2f565b610696565b005b34801561012857600080fd5b5061013161071c565b005b34801561013f57600080fd5b506101486107a4565b6040516101559190610f24565b60405180910390f35b34801561016a57600080fd5b5061018560048036038101906101809190610d06565b6107cd565b6040516101929190610f76565b60405180910390f35b6101b560048036038101906101b09190610d94565b610826565b005b3480156101c357600080fd5b506101de60048036038101906101d99190610d2f565b6109a5565b005b3480156101ec57600080fd5b5061020760048036038101906102029190610d06565b610a2b565b005b6002600154141561024f576040517f08c379a00000000000000000000000000000000000000000000000000000000081526004016102469061106f565b60405180910390fd5b6002600181905550600260008273ffffffffffffffffffffffffffffffffffffffff1673ffffffffffffffffffffffffffffffffffffffff16815260200190815260200160002060020160009054906101000a900460ff166102e6576040517f08c379a00000000000000000000000000000000000000000000000000000000081526004016102dd9061104f565b60405180910390fd5b600460009054906101000a900473ffffffffffffffffffffffffffffffffffffffff1673ffffffffffffffffffffffffffffffffffffffff166323b872dd3383856040518463ffffffff1660e01b815260040161034593929190610f3f565b600060405180830381600087803b15801561035f57600080fd5b505af1158015610373573d6000803e3d6000fd5b505050506000600260008373ffffffffffffffffffffffffffffffffffffffff1673ffffffffffffffffffffffffffffffffffffffff168152602001908152602001600020604051806060016040529081600082015481526020016001820180546103dd90611126565b80601f016020809104026020016040519081016040528092919081815260200182805461040990611126565b80156104565780601f1061042b57610100808354040283529160200191610456565b820191906000526020600020905b81548152906001019060200180831161043957829003601f168201915b505050505081526020016002820160009054906101000a900460ff1615151515815250509050600081604001901515908115158152505080600260008473ffffffffffffffffffffffffffffffffffffffff1673ffffffffffffffffffffffffffffffffffffffff1681526020019081526020016000206000820151816000015560208201518160010190805190602001906104f3929190610bef565b5060408201518160020160006101000a81548160ff02191690831515021790555090505050600180819055505050565b6000806060600260008573ffffffffffffffffffffffffffffffffffffffff1673ffffffffffffffffffffffffffffffffffffffff16815260200190815260200160002060020160009054906101000a900460ff16600260008673ffffffffffffffffffffffffffffffffffffffff1673ffffffffffffffffffffffffffffffffffffffff16815260200190815260200160002060000154600260008773ffffffffffffffffffffffffffffffffffffffff1673ffffffffffffffffffffffffffffffffffffffff16815260200190815260200160002060010180805461060990611126565b80601f016020809104026020016040519081016040528092919081815260200182805461063590611126565b80156106825780601f1061065757610100808354040283529160200191610682565b820191906000526020600020905b81548152906001019060200180831161066557829003601f168201915b505050505090509250925092509193909250565b61069e610b23565b73ffffffffffffffffffffffffffffffffffffffff166106bc6107a4565b73ffffffffffffffffffffffffffffffffffffffff1614610712576040517f08c379a00000000000000000000000000000000000000000000000000000000081526004016107099061102f565b60405180910390fd5b8060068190555050565b610724610b23565b73ffffffffffffffffffffffffffffffffffffffff166107426107a4565b73ffffffffffffffffffffffffffffffffffffffff1614610798576040517f08c379a000000000000000000000000000000000000000000000000000000000815260040161078f9061102f565b60405180910390fd5b6107a26000610b2b565b565b60008060009054906101000a900473ffffffffffffffffffffffffffffffffffffffff16905090565b6000600260008373ffffffffffffffffffffffffffffffffffffffff1673ffffffffffffffffffffffffffffffffffffffff16815260200190815260200160002060020160009054906101000a900460ff169050919050565b60065434101561086b576040517f08c379a000000000000000000000000000000000000000000000000000000000815260040161086290610fef565b60405180910390fd5b60035483106108af576040517f08c379a00000000000000000000000000000000000000000000000000000000081526004016108a69061100f565b60405180910390fd5b6000604051806060016040528085815260200184848080601f016020809104026020016040519081016040528093929190818152602001838380828437600081840152601f19601f82011690508083019250505050505050815260200160011515815250905080600260003373ffffffffffffffffffffffffffffffffffffffff1673ffffffffffffffffffffffffffffffffffffffff16815260200190815260200160002060008201518160000155602082015181600101908051906020019061097b929190610bef565b5060408201518160020160006101000a81548160ff02191690831515021790555090505050505050565b6109ad610b23565b73ffffffffffffffffffffffffffffffffffffffff166109cb6107a4565b73ffffffffffffffffffffffffffffffffffffffff1614610a21576040517f08c379a0000000000000000000000000000000000000000000000000000000008152600401610a189061102f565b60405180910390fd5b8060038190555050565b610a33610b23565b73ffffffffffffffffffffffffffffffffffffffff16610a516107a4565b73ffffffffffffffffffffffffffffffffffffffff1614610aa7576040517f08c379a0000000000000000000000000000000000000000000000000000000008152600401610a9e9061102f565b60405180910390fd5b600073ffffffffffffffffffffffffffffffffffffffff168173ffffffffffffffffffffffffffffffffffffffff161415610b17576040517f08c379a0000000000000000000000000000000000000000000000000000000008152600401610b0e90610fcf565b60405180910390fd5b610b2081610b2b565b50565b600033905090565b60008060009054906101000a900473ffffffffffffffffffffffffffffffffffffffff169050816000806101000a81548173ffffffffffffffffffffffffffffffffffffffff021916908373ffffffffffffffffffffffffffffffffffffffff1602179055508173ffffffffffffffffffffffffffffffffffffffff168173ffffffffffffffffffffffffffffffffffffffff167f8be0079c531659141344cd1fd0a4f28419497f9722a3daafe3b4186f6b6457e060405160405180910390a35050565b828054610bfb90611126565b90600052602060002090601f016020900481019282610c1d5760008555610c64565b82601f10610c3657805160ff1916838001178555610c64565b82800160010185558215610c64579182015b82811115610c63578251825591602001919060010190610c48565b5b509050610c719190610c75565b5090565b5b80821115610c8e576000816000905550600101610c76565b5090565b600081359050610ca1816112b4565b92915050565b60008083601f840112610cb957600080fd5b8235905067ffffffffffffffff811115610cd257600080fd5b602083019150836001820283011115610cea57600080fd5b9250929050565b600081359050610d00816112cb565b92915050565b600060208284031215610d1857600080fd5b6000610d2684828501610c92565b91505092915050565b600060208284031215610d4157600080fd5b6000610d4f84828501610cf1565b91505092915050565b60008060408385031215610d6b57600080fd5b6000610d7985828601610cf1565b9250506020610d8a85828601610c92565b9150509250929050565b600080600060408486031215610da957600080fd5b6000610db786828701610cf1565b935050602084013567ffffffffffffffff811115610dd457600080fd5b610de086828701610ca7565b92509250509250925092565b610df5816110ab565b82525050565b610e04816110bd565b82525050565b6000610e158261108f565b610e1f818561109a565b9350610e2f8185602086016110f3565b610e3881611187565b840191505092915050565b6000610e5060268361109a565b9150610e5b82611198565b604082019050919050565b6000610e7360128361109a565b9150610e7e826111e7565b602082019050919050565b6000610e9660148361109a565b9150610ea182611210565b602082019050919050565b6000610eb960208361109a565b9150610ec482611239565b602082019050919050565b6000610edc600b8361109a565b9150610ee782611262565b602082019050919050565b6000610eff601f8361109a565b9150610f0a8261128b565b602082019050919050565b610f1e816110e9565b82525050565b6000602082019050610f396000830184610dec565b92915050565b6000606082019050610f546000830186610dec565b610f616020830185610dec565b610f6e6040830184610f15565b949350505050565b6000602082019050610f8b6000830184610dfb565b92915050565b6000606082019050610fa66000830186610dfb565b610fb36020830185610f15565b8181036040830152610fc58184610e0a565b9050949350505050565b60006020820190508181036000830152610fe881610e43565b9050919050565b6000602082019050818103600083015261100881610e66565b9050919050565b6000602082019050818103600083015261102881610e89565b9050919050565b6000602082019050818103600083015261104881610eac565b9050919050565b6000602082019050818103600083015261106881610ecf565b9050919050565b6000602082019050818103600083015261108881610ef2565b9050919050565b600081519050919050565b600082825260208201905092915050565b60006110b6826110c9565b9050919050565b60008115159050919050565b600073ffffffffffffffffffffffffffffffffffffffff82169050919050565b6000819050919050565b60005b838110156111115780820151818401526020810190506110f6565b83811115611120576000848401525b50505050565b6000600282049050600182168061113e57607f821691505b6020821081141561115257611151611158565b5b50919050565b7f4e487b7100000000000000000000000000000000000000000000000000000000600052602260045260246000fd5b6000601f19601f8301169050919050565b7f4f776e61626c653a206e6577206f776e657220697320746865207a65726f206160008201527f6464726573730000000000000000000000000000000000000000000000000000602082015250565b7f6d696e207072696365206e6f2072656163680000000000000000000000000000600082015250565b7f6e6f206d6f7265207468616e2032207374617273000000000000000000000000600082015250565b7f4f776e61626c653a2063616c6c6572206973206e6f7420746865206f776e6572600082015250565b7f75736572206e6f20706179000000000000000000000000000000000000000000600082015250565b7f5265656e7472616e637947756172643a207265656e7472616e742063616c6c00600082015250565b6112bd816110ab565b81146112c857600080fd5b50565b6112d4816110e9565b81146112df57600080fd5b5056fea2646970667358221220b71be3529d45e32b33e776bc218901031530c97063b186258a284ac7b37e913764736f6c63430008030033",
  "immutableReferences": {},
  "source": "// SPDX-License-Identifier: MIT\npragma solidity ^0.8.0;\n\nimport \"./Deccert.sol\";\nimport \"@openzeppelin/contracts/access/Ownable.sol\";\nimport \"@openzeppelin/contracts/security/ReentrancyGuard.sol\";\n\n\ncontract Server is Ownable,ReentrancyGuard{\n\n    mapping(address=>Payment) debt;\n    uint256 private STARS_LIMIT=2;\n    Deccert nftContract;\n    \n    constructor(Deccert _contract){\n        nftContract=_contract;\n    \n    }\n\n    struct Payment{\n        uint256 stars;\n        string URI;\n        bool paid;\n    }\n\n\n\n    address [] ACCEPTED_COINS;  \n    uint256 minPrice=0.0001 ether;\n\n\n    function payServer(uint256 _stars,string calldata _uri)external payable{\n        require(msg.value>=minPrice,'min price no reach');\n        require(_stars<STARS_LIMIT,'no more than 2 stars');\n\n        Payment memory paymentInput=Payment(\n            _stars,\n            _uri,\n            true\n        );\n\n        debt[msg.sender]=paymentInput;\n    }\n\n    //Esta funciona la llama el servidor para ver si el usuario pago su Hashima\n    //devuelve si pago y cuantas estrellas junto con la URI\n    function checkPayment(address _user)public view returns(bool,uint256,string memory){\n        return (debt[_user].paid,debt[_user].stars,debt[_user].URI);\n    }\n\n\n    //cuando el servidor tenga listo el hashima lo deposita\n    function depositHashima(uint256 tokenId,address clientUser)external nonReentrant{\n        require(debt[clientUser].paid,'user no pay');\n        nftContract.transferFrom(msg.sender, clientUser, tokenId);\n        Payment memory newPay=debt[clientUser];\n        newPay.paid=false;\n        debt[clientUser]=newPay;\n    }\n    \n\n\n    // function claimHashima(uint256 tokenId)public{\n    //     require(debt[msg.sender].paid,'debt is false');\n    //     debt[msg.sender].paid=false;\n    //     hashimaContract.transferFrom(address(this), msg.sender, tokenId);\n        \n    // }\n\n    function paymentRegister(address _user)external view returns(bool){\n        return debt[_user].paid;\n    }\n\n    //Funcion para que el dueo cambie el precio\n    function setMinPrice(uint256 _minPrice)public onlyOwner{\n        minPrice=_minPrice;\n    }\n\n    //Funcion para que el dueo cambie el precio\n    //This number multiplies by 2\n    function setStarsLimit(uint256 _numberStars)public onlyOwner{\n        STARS_LIMIT=_numberStars;\n    }\n\n}",
  "sourcePath": "/Users/aarontolentino/Documents/B-Deccert/Deccert/contracts/Server.sol",
  "compiler": {
    "name": "solc",
    "version": "0.8.3+commit.8d00100c.Emscripten.clang"
  },
  "schemaVersion": "3.4.1",
  "updatedAt": "2022-09-05T16:18:56.507Z",
  "devdoc": {
    "kind": "dev",
    "methods": {
      "owner()": {
        "details": "Returns the address of the current owner."
      },
      "renounceOwnership()": {
        "details": "Leaves the contract without owner. It will not be possible to call `onlyOwner` functions anymore. Can only be called by the current owner. NOTE: Renouncing ownership will leave the contract without an owner, thereby removing any functionality that is only available to the owner."
      },
      "transferOwnership(address)": {
        "details": "Transfers ownership of the contract to a new account (`newOwner`). Can only be called by the current owner."
      }
    },
    "version": 1
  },
  "userdoc": {
    "kind": "user",
    "methods": {},
    "version": 1
  }
}