{
  "contractName": "Server",
  "abi": [
    {
      "inputs": [],
      "stateMutability": "nonpayable",
      "type": "constructor"
    },
    {
      "anonymous": false,
      "inputs": [
        {
          "indexed": true,
          "internalType": "address",
          "name": "previousOwner",
          "type": "address"
        },
        {
          "indexed": true,
          "internalType": "address",
          "name": "newOwner",
          "type": "address"
        }
      ],
      "name": "OwnershipTransferred",
      "type": "event"
    },
    {
      "inputs": [],
      "name": "owner",
      "outputs": [
        {
          "internalType": "address",
          "name": "",
          "type": "address"
        }
      ],
      "stateMutability": "view",
      "type": "function"
    },
    {
      "inputs": [],
      "name": "renounceOwnership",
      "outputs": [],
      "stateMutability": "nonpayable",
      "type": "function"
    },
    {
      "inputs": [
        {
          "internalType": "address",
          "name": "newOwner",
          "type": "address"
        }
      ],
      "name": "transferOwnership",
      "outputs": [],
      "stateMutability": "nonpayable",
      "type": "function"
    },
    {
      "inputs": [
        {
          "internalType": "uint256",
          "name": "_stars",
          "type": "uint256"
        },
        {
          "internalType": "string",
          "name": "_uri",
          "type": "string"
        }
      ],
      "name": "payServer",
      "outputs": [],
      "stateMutability": "payable",
      "type": "function"
    },
    {
      "inputs": [
        {
          "internalType": "address",
          "name": "_user",
          "type": "address"
        }
      ],
      "name": "checkPayment",
      "outputs": [
        {
          "internalType": "bool",
          "name": "",
          "type": "bool"
        },
        {
          "internalType": "uint256",
          "name": "",
          "type": "uint256"
        },
        {
          "internalType": "string",
          "name": "",
          "type": "string"
        }
      ],
      "stateMutability": "view",
      "type": "function"
    },
    {
      "inputs": [
        {
          "internalType": "uint256",
          "name": "tokenId",
          "type": "uint256"
        },
        {
          "internalType": "address",
          "name": "clientUser",
          "type": "address"
        }
      ],
      "name": "deposit",
      "outputs": [],
      "stateMutability": "nonpayable",
      "type": "function"
    },
    {
      "inputs": [
        {
          "internalType": "address",
          "name": "_user",
          "type": "address"
        }
      ],
      "name": "paymentRegister",
      "outputs": [
        {
          "internalType": "bool",
          "name": "",
          "type": "bool"
        }
      ],
      "stateMutability": "view",
      "type": "function"
    },
    {
      "inputs": [
        {
          "internalType": "uint256",
          "name": "_minPrice",
          "type": "uint256"
        }
      ],
      "name": "setMinPrice",
      "outputs": [],
      "stateMutability": "nonpayable",
      "type": "function"
    },
    {
      "inputs": [
        {
          "internalType": "uint256",
          "name": "_numberStars",
          "type": "uint256"
        }
      ],
      "name": "setStarsLimit",
      "outputs": [],
      "stateMutability": "nonpayable",
      "type": "function"
    }
  ],
  "bytecode": "0x60806040526002600355655af3107a400060045534801561001f57600080fd5b5061003c61003161004860201b60201c565b61005060201b60201c565b60018081905550610114565b600033905090565b60008060009054906101000a900473ffffffffffffffffffffffffffffffffffffffff169050816000806101000a81548173ffffffffffffffffffffffffffffffffffffffff021916908373ffffffffffffffffffffffffffffffffffffffff1602179055508173ffffffffffffffffffffffffffffffffffffffff168173ffffffffffffffffffffffffffffffffffffffff167f8be0079c531659141344cd1fd0a4f28419497f9722a3daafe3b4186f6b6457e060405160405180910390a35050565b6110af806101236000396000f3fe6080604052600436106100865760003560e01c80638da5cb5b116100595780638da5cb5b14610133578063b2f54cb71461015e578063cbc16f191461019b578063d2b95d86146101b7578063f2fde38b146101e057610086565b80633b56fdc61461008b5780635ea8cd12146100ca5780636e553f65146100f3578063715018a61461011c575b600080fd5b34801561009757600080fd5b506100b260048036038101906100ad9190610ad4565b610209565b6040516100c193929190610d28565b60405180910390f35b3480156100d657600080fd5b506100f160048036038101906100ec9190610afd565b61037c565b005b3480156100ff57600080fd5b5061011a60048036038101906101159190610b26565b610402565b005b34801561012857600080fd5b506101316104ea565b005b34801561013f57600080fd5b50610148610572565b6040516101559190610cf2565b60405180910390f35b34801561016a57600080fd5b5061018560048036038101906101809190610ad4565b61059b565b6040516101929190610d0d565b60405180910390f35b6101b560048036038101906101b09190610b62565b6105f4565b005b3480156101c357600080fd5b506101de60048036038101906101d99190610afd565b610773565b005b3480156101ec57600080fd5b5061020760048036038101906102029190610ad4565b6107f9565b005b6000806060600260008573ffffffffffffffffffffffffffffffffffffffff1673ffffffffffffffffffffffffffffffffffffffff16815260200190815260200160002060020160009054906101000a900460ff16600260008673ffffffffffffffffffffffffffffffffffffffff1673ffffffffffffffffffffffffffffffffffffffff16815260200190815260200160002060000154600260008773ffffffffffffffffffffffffffffffffffffffff1673ffffffffffffffffffffffffffffffffffffffff1681526020019081526020016000206001018080546102ef90610ebd565b80601f016020809104026020016040519081016040528092919081815260200182805461031b90610ebd565b80156103685780601f1061033d57610100808354040283529160200191610368565b820191906000526020600020905b81548152906001019060200180831161034b57829003601f168201915b505050505090509250925092509193909250565b6103846108f1565b73ffffffffffffffffffffffffffffffffffffffff166103a2610572565b73ffffffffffffffffffffffffffffffffffffffff16146103f8576040517f08c379a00000000000000000000000000000000000000000000000000000000081526004016103ef90610da6565b60405180910390fd5b8060048190555050565b60026001541415610448576040517f08c379a000000000000000000000000000000000000000000000000000000000815260040161043f90610de6565b60405180910390fd5b6002600181905550600260008273ffffffffffffffffffffffffffffffffffffffff1673ffffffffffffffffffffffffffffffffffffffff16815260200190815260200160002060020160009054906101000a900460ff166104df576040517f08c379a00000000000000000000000000000000000000000000000000000000081526004016104d690610dc6565b60405180910390fd5b600180819055505050565b6104f26108f1565b73ffffffffffffffffffffffffffffffffffffffff16610510610572565b73ffffffffffffffffffffffffffffffffffffffff1614610566576040517f08c379a000000000000000000000000000000000000000000000000000000000815260040161055d90610da6565b60405180910390fd5b61057060006108f9565b565b60008060009054906101000a900473ffffffffffffffffffffffffffffffffffffffff16905090565b6000600260008373ffffffffffffffffffffffffffffffffffffffff1673ffffffffffffffffffffffffffffffffffffffff16815260200190815260200160002060020160009054906101000a900460ff169050919050565b600454341015610639576040517f08c379a000000000000000000000000000000000000000000000000000000000815260040161063090610d86565b60405180910390fd5b600354831061067d576040517f08c379a000000000000000000000000000000000000000000000000000000000815260040161067490610e06565b60405180910390fd5b6000604051806060016040528085815260200184848080601f016020809104026020016040519081016040528093929190818152602001838380828437600081840152601f19601f82011690508083019250505050505050815260200160011515815250905080600260003373ffffffffffffffffffffffffffffffffffffffff1673ffffffffffffffffffffffffffffffffffffffff1681526020019081526020016000206000820151816000015560208201518160010190805190602001906107499291906109bd565b5060408201518160020160006101000a81548160ff02191690831515021790555090505050505050565b61077b6108f1565b73ffffffffffffffffffffffffffffffffffffffff16610799610572565b73ffffffffffffffffffffffffffffffffffffffff16146107ef576040517f08c379a00000000000000000000000000000000000000000000000000000000081526004016107e690610da6565b60405180910390fd5b8060038190555050565b6108016108f1565b73ffffffffffffffffffffffffffffffffffffffff1661081f610572565b73ffffffffffffffffffffffffffffffffffffffff1614610875576040517f08c379a000000000000000000000000000000000000000000000000000000000815260040161086c90610da6565b60405180910390fd5b600073ffffffffffffffffffffffffffffffffffffffff168173ffffffffffffffffffffffffffffffffffffffff1614156108e5576040517f08c379a00000000000000000000000000000000000000000000000000000000081526004016108dc90610d66565b60405180910390fd5b6108ee816108f9565b50565b600033905090565b60008060009054906101000a900473ffffffffffffffffffffffffffffffffffffffff169050816000806101000a81548173ffffffffffffffffffffffffffffffffffffffff021916908373ffffffffffffffffffffffffffffffffffffffff1602179055508173ffffffffffffffffffffffffffffffffffffffff168173ffffffffffffffffffffffffffffffffffffffff167f8be0079c531659141344cd1fd0a4f28419497f9722a3daafe3b4186f6b6457e060405160405180910390a35050565b8280546109c990610ebd565b90600052602060002090601f0160209004810192826109eb5760008555610a32565b82601f10610a0457805160ff1916838001178555610a32565b82800160010185558215610a32579182015b82811115610a31578251825591602001919060010190610a16565b5b509050610a3f9190610a43565b5090565b5b80821115610a5c576000816000905550600101610a44565b5090565b600081359050610a6f8161104b565b92915050565b60008083601f840112610a8757600080fd5b8235905067ffffffffffffffff811115610aa057600080fd5b602083019150836001820283011115610ab857600080fd5b9250929050565b600081359050610ace81611062565b92915050565b600060208284031215610ae657600080fd5b6000610af484828501610a60565b91505092915050565b600060208284031215610b0f57600080fd5b6000610b1d84828501610abf565b91505092915050565b60008060408385031215610b3957600080fd5b6000610b4785828601610abf565b9250506020610b5885828601610a60565b9150509250929050565b600080600060408486031215610b7757600080fd5b6000610b8586828701610abf565b935050602084013567ffffffffffffffff811115610ba257600080fd5b610bae86828701610a75565b92509250509250925092565b610bc381610e42565b82525050565b610bd281610e54565b82525050565b6000610be382610e26565b610bed8185610e31565b9350610bfd818560208601610e8a565b610c0681610f1e565b840191505092915050565b6000610c1e602683610e31565b9150610c2982610f2f565b604082019050919050565b6000610c41601283610e31565b9150610c4c82610f7e565b602082019050919050565b6000610c64602083610e31565b9150610c6f82610fa7565b602082019050919050565b6000610c87600b83610e31565b9150610c9282610fd0565b602082019050919050565b6000610caa601f83610e31565b9150610cb582610ff9565b602082019050919050565b6000610ccd601183610e31565b9150610cd882611022565b602082019050919050565b610cec81610e80565b82525050565b6000602082019050610d076000830184610bba565b92915050565b6000602082019050610d226000830184610bc9565b92915050565b6000606082019050610d3d6000830186610bc9565b610d4a6020830185610ce3565b8181036040830152610d5c8184610bd8565b9050949350505050565b60006020820190508181036000830152610d7f81610c11565b9050919050565b60006020820190508181036000830152610d9f81610c34565b9050919050565b60006020820190508181036000830152610dbf81610c57565b9050919050565b60006020820190508181036000830152610ddf81610c7a565b9050919050565b60006020820190508181036000830152610dff81610c9d565b9050919050565b60006020820190508181036000830152610e1f81610cc0565b9050919050565b600081519050919050565b600082825260208201905092915050565b6000610e4d82610e60565b9050919050565b60008115159050919050565b600073ffffffffffffffffffffffffffffffffffffffff82169050919050565b6000819050919050565b60005b83811015610ea8578082015181840152602081019050610e8d565b83811115610eb7576000848401525b50505050565b60006002820490506001821680610ed557607f821691505b60208210811415610ee957610ee8610eef565b5b50919050565b7f4e487b7100000000000000000000000000000000000000000000000000000000600052602260045260246000fd5b6000601f19601f8301169050919050565b7f4f776e61626c653a206e6577206f776e657220697320746865207a65726f206160008201527f6464726573730000000000000000000000000000000000000000000000000000602082015250565b7f6d696e207072696365206e6f2072656163680000000000000000000000000000600082015250565b7f4f776e61626c653a2063616c6c6572206973206e6f7420746865206f776e6572600082015250565b7f75736572206e6f20706179000000000000000000000000000000000000000000600082015250565b7f5265656e7472616e637947756172643a207265656e7472616e742063616c6c00600082015250565b7f7374617273206c696d6974207265616368000000000000000000000000000000600082015250565b61105481610e42565b811461105f57600080fd5b50565b61106b81610e80565b811461107657600080fd5b5056fea26469706673582212203cbfde6377b4e65c8efb150dd459e14cdf426a743a38f09dbbb7cba2d9c3a21364736f6c63430008030033",
  "immutableReferences": {},
  "source": "// SPDX-License-Identifier: MIT\npragma solidity ^0.8.0;\n\nimport \"@openzeppelin/contracts/access/Ownable.sol\";\nimport \"@openzeppelin/contracts/security/ReentrancyGuard.sol\";\n\n\ncontract Server is Ownable,ReentrancyGuard{\n\n    mapping(address=>Payment) debt;\n    uint256 private STARS_LIMIT=2;\n    \n    constructor(){\n    \n    }\n\n    struct Payment{\n        uint256 stars;\n        string URI;\n        bool paid;\n    }\n\n\n\n    uint256 minPrice=0.0001 ether;\n\n\n    function payServer(uint256 _stars,string calldata _uri)external payable{\n        require(msg.value>=minPrice,'min price no reach');\n        require(_stars<STARS_LIMIT,'stars limit reach');\n\n        Payment memory paymentInput=Payment(\n            _stars,\n            _uri,\n            true\n        );\n\n        debt[msg.sender]=paymentInput;\n    }\n\n    //Esta funciona la llama el servidor para ver si el usuario pago su Hashima\n    //devuelve si pago y cuantas estrellas junto con la URI\n    function checkPayment(address _user)public view returns(bool,uint256,string memory){\n        return (debt[_user].paid,debt[_user].stars,debt[_user].URI);\n    }\n\n\n    //cuando el servidor tenga listo el hashima lo deposita\n    function deposit(uint256 tokenId,address clientUser)external nonReentrant{\n        require(debt[clientUser].paid,'user no pay');\n        // hashimaContract.transferFrom(msg.sender, clientUser, tokenId);\n        // Payment memory newPay=debt[clientUser];\n        // newPay.paid=false;\n        // debt[clientUser]=newPay;\n    }\n    \n    function paymentRegister(address _user)external view returns(bool){\n        return debt[_user].paid;\n    }\n\n    //Funcion para que el dueo cambie el precio\n    function setMinPrice(uint256 _minPrice)public onlyOwner{\n        minPrice=_minPrice;\n    }\n\n    //Funcion para que el dueo cambie la tolerancia del estrellas\n    //This number multiplies by 2\n    function setStarsLimit(uint256 _numberStars)public onlyOwner{\n        STARS_LIMIT=_numberStars;\n    }\n\n}",
  "sourcePath": "/Users/aarontolentino/Documents/B-Deccert/Deccert/contracts/Server.sol",
  "compiler": {
    "name": "solc",
    "version": "0.8.3+commit.8d00100c.Emscripten.clang"
  },
  "schemaVersion": "3.4.1",
  "updatedAt": "2022-11-09T06:48:39.085Z",
  "devdoc": {
    "kind": "dev",
    "methods": {
      "owner()": {
        "details": "Returns the address of the current owner."
      },
      "renounceOwnership()": {
        "details": "Leaves the contract without owner. It will not be possible to call `onlyOwner` functions anymore. Can only be called by the current owner. NOTE: Renouncing ownership will leave the contract without an owner, thereby removing any functionality that is only available to the owner."
      },
      "transferOwnership(address)": {
        "details": "Transfers ownership of the contract to a new account (`newOwner`). Can only be called by the current owner."
      }
    },
    "version": 1
  },
  "userdoc": {
    "kind": "user",
    "methods": {},
    "version": 1
  }
}