{
  "contractName": "Deccert",
  "abi": [
    {
      "inputs": [],
      "stateMutability": "nonpayable",
      "type": "constructor"
    },
    {
      "anonymous": false,
      "inputs": [
        {
          "indexed": true,
          "internalType": "address",
          "name": "owner",
          "type": "address"
        },
        {
          "indexed": true,
          "internalType": "address",
          "name": "approved",
          "type": "address"
        },
        {
          "indexed": true,
          "internalType": "uint256",
          "name": "tokenId",
          "type": "uint256"
        }
      ],
      "name": "Approval",
      "type": "event"
    },
    {
      "anonymous": false,
      "inputs": [
        {
          "indexed": true,
          "internalType": "address",
          "name": "owner",
          "type": "address"
        },
        {
          "indexed": true,
          "internalType": "address",
          "name": "operator",
          "type": "address"
        },
        {
          "indexed": false,
          "internalType": "bool",
          "name": "approved",
          "type": "bool"
        }
      ],
      "name": "ApprovalForAll",
      "type": "event"
    },
    {
      "anonymous": false,
      "inputs": [
        {
          "indexed": true,
          "internalType": "address",
          "name": "previousOwner",
          "type": "address"
        },
        {
          "indexed": true,
          "internalType": "address",
          "name": "newOwner",
          "type": "address"
        }
      ],
      "name": "OwnershipTransferred",
      "type": "event"
    },
    {
      "anonymous": false,
      "inputs": [
        {
          "indexed": true,
          "internalType": "address",
          "name": "from",
          "type": "address"
        },
        {
          "indexed": true,
          "internalType": "address",
          "name": "to",
          "type": "address"
        },
        {
          "indexed": true,
          "internalType": "uint256",
          "name": "tokenId",
          "type": "uint256"
        }
      ],
      "name": "Transfer",
      "type": "event"
    },
    {
      "inputs": [
        {
          "internalType": "address",
          "name": "to",
          "type": "address"
        },
        {
          "internalType": "uint256",
          "name": "tokenId",
          "type": "uint256"
        }
      ],
      "name": "approve",
      "outputs": [],
      "stateMutability": "nonpayable",
      "type": "function"
    },
    {
      "inputs": [
        {
          "internalType": "address",
          "name": "owner",
          "type": "address"
        }
      ],
      "name": "balanceOf",
      "outputs": [
        {
          "internalType": "uint256",
          "name": "",
          "type": "uint256"
        }
      ],
      "stateMutability": "view",
      "type": "function",
      "constant": true
    },
    {
      "inputs": [
        {
          "internalType": "uint256",
          "name": "tokenId",
          "type": "uint256"
        }
      ],
      "name": "getApproved",
      "outputs": [
        {
          "internalType": "address",
          "name": "",
          "type": "address"
        }
      ],
      "stateMutability": "view",
      "type": "function",
      "constant": true
    },
    {
      "inputs": [
        {
          "internalType": "address",
          "name": "owner",
          "type": "address"
        },
        {
          "internalType": "address",
          "name": "operator",
          "type": "address"
        }
      ],
      "name": "isApprovedForAll",
      "outputs": [
        {
          "internalType": "bool",
          "name": "",
          "type": "bool"
        }
      ],
      "stateMutability": "view",
      "type": "function",
      "constant": true
    },
    {
      "inputs": [],
      "name": "name",
      "outputs": [
        {
          "internalType": "string",
          "name": "",
          "type": "string"
        }
      ],
      "stateMutability": "view",
      "type": "function",
      "constant": true
    },
    {
      "inputs": [],
      "name": "owner",
      "outputs": [
        {
          "internalType": "address",
          "name": "",
          "type": "address"
        }
      ],
      "stateMutability": "view",
      "type": "function",
      "constant": true
    },
    {
      "inputs": [
        {
          "internalType": "uint256",
          "name": "tokenId",
          "type": "uint256"
        }
      ],
      "name": "ownerOf",
      "outputs": [
        {
          "internalType": "address",
          "name": "",
          "type": "address"
        }
      ],
      "stateMutability": "view",
      "type": "function",
      "constant": true
    },
    {
      "inputs": [],
      "name": "price",
      "outputs": [
        {
          "internalType": "uint256",
          "name": "",
          "type": "uint256"
        }
      ],
      "stateMutability": "view",
      "type": "function",
      "constant": true
    },
    {
      "inputs": [],
      "name": "renounceOwnership",
      "outputs": [],
      "stateMutability": "nonpayable",
      "type": "function"
    },
    {
      "inputs": [
        {
          "internalType": "address",
          "name": "from",
          "type": "address"
        },
        {
          "internalType": "address",
          "name": "to",
          "type": "address"
        },
        {
          "internalType": "uint256",
          "name": "tokenId",
          "type": "uint256"
        }
      ],
      "name": "safeTransferFrom",
      "outputs": [],
      "stateMutability": "nonpayable",
      "type": "function"
    },
    {
      "inputs": [
        {
          "internalType": "address",
          "name": "from",
          "type": "address"
        },
        {
          "internalType": "address",
          "name": "to",
          "type": "address"
        },
        {
          "internalType": "uint256",
          "name": "tokenId",
          "type": "uint256"
        },
        {
          "internalType": "bytes",
          "name": "_data",
          "type": "bytes"
        }
      ],
      "name": "safeTransferFrom",
      "outputs": [],
      "stateMutability": "nonpayable",
      "type": "function"
    },
    {
      "inputs": [
        {
          "internalType": "address",
          "name": "operator",
          "type": "address"
        },
        {
          "internalType": "bool",
          "name": "approved",
          "type": "bool"
        }
      ],
      "name": "setApprovalForAll",
      "outputs": [],
      "stateMutability": "nonpayable",
      "type": "function"
    },
    {
      "inputs": [
        {
          "internalType": "bytes4",
          "name": "interfaceId",
          "type": "bytes4"
        }
      ],
      "name": "supportsInterface",
      "outputs": [
        {
          "internalType": "bool",
          "name": "",
          "type": "bool"
        }
      ],
      "stateMutability": "view",
      "type": "function",
      "constant": true
    },
    {
      "inputs": [],
      "name": "symbol",
      "outputs": [
        {
          "internalType": "string",
          "name": "",
          "type": "string"
        }
      ],
      "stateMutability": "view",
      "type": "function",
      "constant": true
    },
    {
      "inputs": [
        {
          "internalType": "uint256",
          "name": "tokenId",
          "type": "uint256"
        }
      ],
      "name": "tokenURI",
      "outputs": [
        {
          "internalType": "string",
          "name": "",
          "type": "string"
        }
      ],
      "stateMutability": "view",
      "type": "function",
      "constant": true
    },
    {
      "inputs": [
        {
          "internalType": "address",
          "name": "from",
          "type": "address"
        },
        {
          "internalType": "address",
          "name": "to",
          "type": "address"
        },
        {
          "internalType": "uint256",
          "name": "tokenId",
          "type": "uint256"
        }
      ],
      "name": "transferFrom",
      "outputs": [],
      "stateMutability": "nonpayable",
      "type": "function"
    },
    {
      "inputs": [
        {
          "internalType": "address",
          "name": "newOwner",
          "type": "address"
        }
      ],
      "name": "transferOwnership",
      "outputs": [],
      "stateMutability": "nonpayable",
      "type": "function"
    },
    {
      "inputs": [
        {
          "internalType": "address",
          "name": "_user",
          "type": "address"
        },
        {
          "internalType": "uint256",
          "name": "_howMuch",
          "type": "uint256"
        },
        {
          "internalType": "string",
          "name": "_uri",
          "type": "string"
        }
      ],
      "name": "giveMintingPower",
      "outputs": [],
      "stateMutability": "nonpayable",
      "type": "function"
    },
    {
      "inputs": [
        {
          "internalType": "string",
          "name": "_name",
          "type": "string"
        },
        {
          "internalType": "string",
          "name": "_uri",
          "type": "string"
        },
        {
          "internalType": "address",
          "name": "who",
          "type": "address"
        }
      ],
      "name": "ManualMinting",
      "outputs": [
        {
          "internalType": "uint256",
          "name": "",
          "type": "uint256"
        }
      ],
      "stateMutability": "nonpayable",
      "type": "function"
    },
    {
      "inputs": [
        {
          "internalType": "string",
          "name": "_name",
          "type": "string"
        },
        {
          "internalType": "string",
          "name": "_uri",
          "type": "string"
        },
        {
          "internalType": "address",
          "name": "who",
          "type": "address"
        }
      ],
      "name": "PermissionMinting",
      "outputs": [
        {
          "internalType": "uint256",
          "name": "",
          "type": "uint256"
        }
      ],
      "stateMutability": "nonpayable",
      "type": "function"
    },
    {
      "inputs": [
        {
          "internalType": "string",
          "name": "_name",
          "type": "string"
        },
        {
          "internalType": "string",
          "name": "_uri",
          "type": "string"
        },
        {
          "internalType": "address",
          "name": "who",
          "type": "address"
        }
      ],
      "name": "PreMinting",
      "outputs": [
        {
          "internalType": "uint256",
          "name": "",
          "type": "uint256"
        }
      ],
      "stateMutability": "payable",
      "type": "function",
      "payable": true
    },
    {
      "inputs": [
        {
          "internalType": "uint256",
          "name": "_newPrice",
          "type": "uint256"
        }
      ],
      "name": "setPrice",
      "outputs": [],
      "stateMutability": "nonpayable",
      "type": "function"
    },
    {
      "inputs": [
        {
          "internalType": "uint256",
          "name": "tokenId",
          "type": "uint256"
        }
      ],
      "name": "SignNFT",
      "outputs": [],
      "stateMutability": "nonpayable",
      "type": "function"
    },
    {
      "inputs": [
        {
          "internalType": "uint256",
          "name": "tokenId",
          "type": "uint256"
        }
      ],
      "name": "isSigned",
      "outputs": [
        {
          "internalType": "bool",
          "name": "",
          "type": "bool"
        }
      ],
      "stateMutability": "view",
      "type": "function",
      "constant": true
    },
    {
      "inputs": [
        {
          "internalType": "uint256",
          "name": "_index",
          "type": "uint256"
        }
      ],
      "name": "get",
      "outputs": [
        {
          "components": [
            {
              "internalType": "uint256",
              "name": "tokenId",
              "type": "uint256"
            },
            {
              "internalType": "string",
              "name": "name",
              "type": "string"
            },
            {
              "internalType": "address",
              "name": "owner",
              "type": "address"
            },
            {
              "internalType": "uint256",
              "name": "blockNumber",
              "type": "uint256"
            },
            {
              "internalType": "uint256",
              "name": "time",
              "type": "uint256"
            }
          ],
          "internalType": "struct Deccert.Certi",
          "name": "",
          "type": "tuple"
        }
      ],
      "stateMutability": "view",
      "type": "function",
      "constant": true
    },
    {
      "inputs": [],
      "name": "getTotal",
      "outputs": [
        {
          "internalType": "uint256",
          "name": "",
          "type": "uint256"
        }
      ],
      "stateMutability": "view",
      "type": "function",
      "constant": true
    },
    {
      "inputs": [
        {
          "internalType": "string",
          "name": "_uri",
          "type": "string"
        }
      ],
      "name": "getMintingPower",
      "outputs": [
        {
          "internalType": "uint256",
          "name": "",
          "type": "uint256"
        }
      ],
      "stateMutability": "view",
      "type": "function",
      "constant": true
    },
    {
      "inputs": [
        {
          "internalType": "string",
          "name": "what",
          "type": "string"
        },
        {
          "internalType": "address",
          "name": "_who",
          "type": "address"
        }
      ],
      "name": "getMintingPower",
      "outputs": [
        {
          "internalType": "uint256",
          "name": "",
          "type": "uint256"
        }
      ],
      "stateMutability": "view",
      "type": "function",
      "constant": true
    }
  ],
  "bytecode": "0x608060405267013fbe85edc900006009553480156200001d57600080fd5b506040518060400160405280600781526020017f44656363657274000000000000000000000000000000000000000000000000008152506040518060400160405280600781526020017f44454343455254000000000000000000000000000000000000000000000000008152508160009080519060200190620000a2929190620001b2565b508060019080519060200190620000bb929190620001b2565b505050620000de620000d2620000e460201b60201c565b620000ec60201b60201c565b620002c7565b600033905090565b6000600760009054906101000a900473ffffffffffffffffffffffffffffffffffffffff16905081600760006101000a81548173ffffffffffffffffffffffffffffffffffffffff021916908373ffffffffffffffffffffffffffffffffffffffff1602179055508173ffffffffffffffffffffffffffffffffffffffff168173ffffffffffffffffffffffffffffffffffffffff167f8be0079c531659141344cd1fd0a4f28419497f9722a3daafe3b4186f6b6457e060405160405180910390a35050565b828054620001c09062000262565b90600052602060002090601f016020900481019282620001e4576000855562000230565b82601f10620001ff57805160ff191683800117855562000230565b8280016001018555821562000230579182015b828111156200022f57825182559160200191906001019062000212565b5b5090506200023f919062000243565b5090565b5b808211156200025e57600081600090555060010162000244565b5090565b600060028204905060018216806200027b57607f821691505b6020821081141562000292576200029162000298565b5b50919050565b7f4e487b7100000000000000000000000000000000000000000000000000000000600052602260045260246000fd5b61416880620002d76000396000f3fe6080604052600436106101b75760003560e01c8063775a25e3116100ec578063a035b1fe1161008a578063c87b56dd11610064578063c87b56dd1461065b578063e985e9c514610698578063f2fde38b146106d5578063f8a2d7a8146106fe576101b7565b8063a035b1fe146105de578063a22cb46514610609578063b88d4fde14610632576101b7565b806391b7f5ed116100c657806391b7f5ed1461051d5780639507d39a1461054657806395d89b4114610583578063977a3093146105ae576101b7565b8063775a25e31461048a5780638691c69c146104b55780638da5cb5b146104f2576101b7565b806338c904b9116101595780635fe02c47116101335780635fe02c47146103bc5780636352211e146103f957806370a0823114610436578063715018a614610473576101b7565b806338c904b91461031957806342842e0e146103565780634fe869531461037f576101b7565b8063095ea7b311610195578063095ea7b3146102615780630e036f071461028a57806323b872dd146102c75780632ff9b395146102f0576101b7565b806301ffc9a7146101bc57806306fdde03146101f9578063081812fc14610224575b600080fd5b3480156101c857600080fd5b506101e360048036038101906101de9190612d58565b610727565b6040516101f09190613405565b60405180910390f35b34801561020557600080fd5b5061020e610809565b60405161021b9190613420565b60405180910390f35b34801561023057600080fd5b5061024b60048036038101906102469190612ebe565b61089b565b604051610258919061339e565b60405180910390f35b34801561026d57600080fd5b5061028860048036038101906102839190612cb5565b610920565b005b34801561029657600080fd5b506102b160048036038101906102ac9190612daa565b610a38565b6040516102be9190613704565b60405180910390f35b3480156102d357600080fd5b506102ee60048036038101906102e99190612baf565b610a9d565b005b3480156102fc57600080fd5b5061031760048036038101906103129190612ebe565b610afd565b005b34801561032557600080fd5b50610340600480360381019061033b9190612ebe565b610bc8565b60405161034d9190613405565b60405180910390f35b34801561036257600080fd5b5061037d60048036038101906103789190612baf565b610bf2565b005b34801561038b57600080fd5b506103a660048036038101906103a19190612e3f565b610c12565b6040516103b39190613704565b60405180910390f35b3480156103c857600080fd5b506103e360048036038101906103de9190612deb565b610e6c565b6040516103f09190613704565b60405180910390f35b34801561040557600080fd5b50610420600480360381019061041b9190612ebe565b610ed2565b60405161042d919061339e565b60405180910390f35b34801561044257600080fd5b5061045d60048036038101906104589190612b4a565b610f84565b60405161046a9190613704565b60405180910390f35b34801561047f57600080fd5b5061048861103c565b005b34801561049657600080fd5b5061049f6110c4565b6040516104ac9190613704565b60405180910390f35b3480156104c157600080fd5b506104dc60048036038101906104d79190612e3f565b6110d5565b6040516104e99190613704565b60405180910390f35b3480156104fe57600080fd5b5061050761129a565b604051610514919061339e565b60405180910390f35b34801561052957600080fd5b50610544600480360381019061053f9190612ebe565b6112c4565b005b34801561055257600080fd5b5061056d60048036038101906105689190612ebe565b61138d565b60405161057a91906136e2565b60405180910390f35b34801561058f57600080fd5b506105986114c0565b6040516105a59190613420565b60405180910390f35b6105c860048036038101906105c39190612e3f565b611552565b6040516105d59190613704565b60405180910390f35b3480156105ea57600080fd5b506105f36116e0565b6040516106009190613704565b60405180910390f35b34801561061557600080fd5b50610630600480360381019061062b9190612c79565b6116e6565b005b34801561063e57600080fd5b5061065960048036038101906106549190612bfe565b6116fc565b005b34801561066757600080fd5b50610682600480360381019061067d9190612ebe565b61175e565b60405161068f9190613420565b60405180910390f35b3480156106a457600080fd5b506106bf60048036038101906106ba9190612b73565b6118b0565b6040516106cc9190613405565b60405180910390f35b3480156106e157600080fd5b506106fc60048036038101906106f79190612b4a565b611944565b005b34801561070a57600080fd5b5061072560048036038101906107209190612cf1565b611a3c565b005b60007f80ac58cd000000000000000000000000000000000000000000000000000000007bffffffffffffffffffffffffffffffffffffffffffffffffffffffff1916827bffffffffffffffffffffffffffffffffffffffffffffffffffffffff191614806107f257507f5b5e139f000000000000000000000000000000000000000000000000000000007bffffffffffffffffffffffffffffffffffffffffffffffffffffffff1916827bffffffffffffffffffffffffffffffffffffffffffffffffffffffff1916145b80610802575061080182611b1d565b5b9050919050565b60606000805461081890613995565b80601f016020809104026020016040519081016040528092919081815260200182805461084490613995565b80156108915780601f1061086657610100808354040283529160200191610891565b820191906000526020600020905b81548152906001019060200180831161087457829003601f168201915b5050505050905090565b60006108a682611b87565b6108e5576040517f08c379a00000000000000000000000000000000000000000000000000000000081526004016108dc90613622565b60405180910390fd5b6004600083815260200190815260200160002060009054906101000a900473ffffffffffffffffffffffffffffffffffffffff169050919050565b600061092b82610ed2565b90508073ffffffffffffffffffffffffffffffffffffffff168373ffffffffffffffffffffffffffffffffffffffff16141561099c576040517f08c379a0000000000000000000000000000000000000000000000000000000008152600401610993906136a2565b60405180910390fd5b8073ffffffffffffffffffffffffffffffffffffffff166109bb611bf3565b73ffffffffffffffffffffffffffffffffffffffff1614806109ea57506109e9816109e4611bf3565b6118b0565b5b610a29576040517f08c379a0000000000000000000000000000000000000000000000000000000008152600401610a2090613542565b60405180910390fd5b610a338383611bfb565b505050565b6000600a82604051610a4a9190613363565b908152602001604051809103902060003373ffffffffffffffffffffffffffffffffffffffff1673ffffffffffffffffffffffffffffffffffffffff168152602001908152602001600020549050919050565b610aae610aa8611bf3565b82611cb4565b610aed576040517f08c379a0000000000000000000000000000000000000000000000000000000008152600401610ae4906136c2565b60405180910390fd5b610af8838383611d92565b505050565b610b05611bf3565b73ffffffffffffffffffffffffffffffffffffffff16610b2361129a565b73ffffffffffffffffffffffffffffffffffffffff1614610b79576040517f08c379a0000000000000000000000000000000000000000000000000000000008152600401610b7090613642565b60405180910390fd5b600c600082815260200190815260200160002060009054906101000a900460ff1615600c600083815260200190815260200160002060006101000a81548160ff02191690831515021790555050565b6000600c600083815260200190815260200160002060009054906101000a900460ff169050919050565b610c0d838383604051806020016040528060008152506116fc565b505050565b6000826000600a82604051610c279190613363565b908152602001604051809103902060003373ffffffffffffffffffffffffffffffffffffffff1673ffffffffffffffffffffffffffffffffffffffff1681526020019081526020016000205411610cb3576040517f08c379a0000000000000000000000000000000000000000000000000000000008152600401610caa90613502565b60405180910390fd5b600a81604051610cc39190613363565b908152602001604051809103902060003373ffffffffffffffffffffffffffffffffffffffff1673ffffffffffffffffffffffffffffffffffffffff1681526020019081526020016000206000815480929190610d1f9061396b565b9190505550610d2e6008611ff9565b6000610d3a600861200f565b9050610d46338261201d565b610d5081866121f7565b6001600c600083815260200190815260200160002060006101000a81548160ff02191690831515021790555060006040518060a00160405280610d93600861200f565b81526020018881526020018673ffffffffffffffffffffffffffffffffffffffff16815260200143815260200142815250905080600b6000848152602001908152602001600020600082015181600001556020820151816001019080519060200190610e00929190612929565b5060408201518160020160006101000a81548173ffffffffffffffffffffffffffffffffffffffff021916908373ffffffffffffffffffffffffffffffffffffffff16021790555060608201518160030155608082015181600401559050508193505050509392505050565b6000600a83604051610e7e9190613363565b908152602001604051809103902060008373ffffffffffffffffffffffffffffffffffffffff1673ffffffffffffffffffffffffffffffffffffffff16815260200190815260200160002054905092915050565b6000806002600084815260200190815260200160002060009054906101000a900473ffffffffffffffffffffffffffffffffffffffff169050600073ffffffffffffffffffffffffffffffffffffffff168173ffffffffffffffffffffffffffffffffffffffff161415610f7b576040517f08c379a0000000000000000000000000000000000000000000000000000000008152600401610f7290613582565b60405180910390fd5b80915050919050565b60008073ffffffffffffffffffffffffffffffffffffffff168273ffffffffffffffffffffffffffffffffffffffff161415610ff5576040517f08c379a0000000000000000000000000000000000000000000000000000000008152600401610fec90613562565b60405180910390fd5b600360008373ffffffffffffffffffffffffffffffffffffffff1673ffffffffffffffffffffffffffffffffffffffff168152602001908152602001600020549050919050565b611044611bf3565b73ffffffffffffffffffffffffffffffffffffffff1661106261129a565b73ffffffffffffffffffffffffffffffffffffffff16146110b8576040517f08c379a00000000000000000000000000000000000000000000000000000000081526004016110af90613642565b60405180910390fd5b6110c2600061226b565b565b60006110d0600861200f565b905090565b60006110df611bf3565b73ffffffffffffffffffffffffffffffffffffffff166110fd61129a565b73ffffffffffffffffffffffffffffffffffffffff1614611153576040517f08c379a000000000000000000000000000000000000000000000000000000000815260040161114a90613642565b60405180910390fd5b61115d6008611ff9565b6000611169600861200f565b9050611175838261201d565b61117f81856121f7565b6001600c600083815260200190815260200160002060006101000a81548160ff02191690831515021790555060006040518060a001604052806111c2600861200f565b81526020018781526020018573ffffffffffffffffffffffffffffffffffffffff16815260200143815260200142815250905080600b600084815260200190815260200160002060008201518160000155602082015181600101908051906020019061122f929190612929565b5060408201518160020160006101000a81548173ffffffffffffffffffffffffffffffffffffffff021916908373ffffffffffffffffffffffffffffffffffffffff160217905550606082015181600301556080820151816004015590505081925050509392505050565b6000600760009054906101000a900473ffffffffffffffffffffffffffffffffffffffff16905090565b6112cc611bf3565b73ffffffffffffffffffffffffffffffffffffffff166112ea61129a565b73ffffffffffffffffffffffffffffffffffffffff1614611340576040517f08c379a000000000000000000000000000000000000000000000000000000000815260040161133790613642565b60405180910390fd5b60008111611383576040517f08c379a000000000000000000000000000000000000000000000000000000000815260040161137a906135c2565b60405180910390fd5b8060098190555050565b6113956129af565b600b60008381526020019081526020016000206040518060a0016040529081600082015481526020016001820180546113cd90613995565b80601f01602080910402602001604051908101604052809291908181526020018280546113f990613995565b80156114465780601f1061141b57610100808354040283529160200191611446565b820191906000526020600020905b81548152906001019060200180831161142957829003601f168201915b505050505081526020016002820160009054906101000a900473ffffffffffffffffffffffffffffffffffffffff1673ffffffffffffffffffffffffffffffffffffffff1673ffffffffffffffffffffffffffffffffffffffff168152602001600382015481526020016004820154815250509050919050565b6060600180546114cf90613995565b80601f01602080910402602001604051908101604052809291908181526020018280546114fb90613995565b80156115485780601f1061151d57610100808354040283529160200191611548565b820191906000526020600020905b81548152906001019060200180831161152b57829003601f168201915b5050505050905090565b6000600954341015611599576040517f08c379a000000000000000000000000000000000000000000000000000000000815260040161159090613682565b60405180910390fd5b6115a36008611ff9565b60006115af600861200f565b90506115bb838261201d565b6115c581856121f7565b6000600c600083815260200190815260200160002060006101000a81548160ff02191690831515021790555060006040518060a00160405280611608600861200f565b81526020018781526020018573ffffffffffffffffffffffffffffffffffffffff16815260200143815260200142815250905080600b6000848152602001908152602001600020600082015181600001556020820151816001019080519060200190611675929190612929565b5060408201518160020160006101000a81548173ffffffffffffffffffffffffffffffffffffffff021916908373ffffffffffffffffffffffffffffffffffffffff160217905550606082015181600301556080820151816004015590505081925050509392505050565b60095481565b6116f86116f1611bf3565b8383612331565b5050565b61170d611707611bf3565b83611cb4565b61174c576040517f08c379a0000000000000000000000000000000000000000000000000000000008152600401611743906136c2565b60405180910390fd5b6117588484848461249e565b50505050565b606061176982611b87565b6117a8576040517f08c379a000000000000000000000000000000000000000000000000000000000815260040161179f90613602565b60405180910390fd5b60006006600084815260200190815260200160002080546117c890613995565b80601f01602080910402602001604051908101604052809291908181526020018280546117f490613995565b80156118415780601f1061181657610100808354040283529160200191611841565b820191906000526020600020905b81548152906001019060200180831161182457829003601f168201915b5050505050905060006118526124fa565b90506000815114156118685781925050506118ab565b60008251111561189d57808260405160200161188592919061337a565b604051602081830303815290604052925050506118ab565b6118a684612511565b925050505b919050565b6000600560008473ffffffffffffffffffffffffffffffffffffffff1673ffffffffffffffffffffffffffffffffffffffff16815260200190815260200160002060008373ffffffffffffffffffffffffffffffffffffffff1673ffffffffffffffffffffffffffffffffffffffff16815260200190815260200160002060009054906101000a900460ff16905092915050565b61194c611bf3565b73ffffffffffffffffffffffffffffffffffffffff1661196a61129a565b73ffffffffffffffffffffffffffffffffffffffff16146119c0576040517f08c379a00000000000000000000000000000000000000000000000000000000081526004016119b790613642565b60405180910390fd5b600073ffffffffffffffffffffffffffffffffffffffff168173ffffffffffffffffffffffffffffffffffffffff161415611a30576040517f08c379a0000000000000000000000000000000000000000000000000000000008152600401611a2790613462565b60405180910390fd5b611a398161226b565b50565b611a44611bf3565b73ffffffffffffffffffffffffffffffffffffffff16611a6261129a565b73ffffffffffffffffffffffffffffffffffffffff1614611ab8576040517f08c379a0000000000000000000000000000000000000000000000000000000008152600401611aaf90613642565b60405180910390fd5b81600a82604051611ac99190613363565b908152602001604051809103902060008573ffffffffffffffffffffffffffffffffffffffff1673ffffffffffffffffffffffffffffffffffffffff16815260200190815260200160002081905550505050565b60007f01ffc9a7000000000000000000000000000000000000000000000000000000007bffffffffffffffffffffffffffffffffffffffffffffffffffffffff1916827bffffffffffffffffffffffffffffffffffffffffffffffffffffffff1916149050919050565b60008073ffffffffffffffffffffffffffffffffffffffff166002600084815260200190815260200160002060009054906101000a900473ffffffffffffffffffffffffffffffffffffffff1673ffffffffffffffffffffffffffffffffffffffff1614159050919050565b600033905090565b816004600083815260200190815260200160002060006101000a81548173ffffffffffffffffffffffffffffffffffffffff021916908373ffffffffffffffffffffffffffffffffffffffff160217905550808273ffffffffffffffffffffffffffffffffffffffff16611c6e83610ed2565b73ffffffffffffffffffffffffffffffffffffffff167f8c5be1e5ebec7d5bd14f71427d1e84f3dd0314c0f7b2291e5b200ac8c7c3b92560405160405180910390a45050565b6000611cbf82611b87565b611cfe576040517f08c379a0000000000000000000000000000000000000000000000000000000008152600401611cf590613522565b60405180910390fd5b6000611d0983610ed2565b90508073ffffffffffffffffffffffffffffffffffffffff168473ffffffffffffffffffffffffffffffffffffffff161480611d7857508373ffffffffffffffffffffffffffffffffffffffff16611d608461089b565b73ffffffffffffffffffffffffffffffffffffffff16145b80611d895750611d8881856118b0565b5b91505092915050565b8273ffffffffffffffffffffffffffffffffffffffff16611db282610ed2565b73ffffffffffffffffffffffffffffffffffffffff1614611e08576040517f08c379a0000000000000000000000000000000000000000000000000000000008152600401611dff90613482565b60405180910390fd5b600073ffffffffffffffffffffffffffffffffffffffff168273ffffffffffffffffffffffffffffffffffffffff161415611e78576040517f08c379a0000000000000000000000000000000000000000000000000000000008152600401611e6f906134c2565b60405180910390fd5b611e838383836125b8565b611e8e600082611bfb565b6001600360008573ffffffffffffffffffffffffffffffffffffffff1673ffffffffffffffffffffffffffffffffffffffff1681526020019081526020016000206000828254611ede9190613881565b925050819055506001600360008473ffffffffffffffffffffffffffffffffffffffff1673ffffffffffffffffffffffffffffffffffffffff1681526020019081526020016000206000828254611f3591906137fa565b92505081905550816002600083815260200190815260200160002060006101000a81548173ffffffffffffffffffffffffffffffffffffffff021916908373ffffffffffffffffffffffffffffffffffffffff160217905550808273ffffffffffffffffffffffffffffffffffffffff168473ffffffffffffffffffffffffffffffffffffffff167fddf252ad1be2c89b69c2b068fc378daa952ba7f163c4a11628f55a4df523b3ef60405160405180910390a4611ff48383836125bd565b505050565b6001816000016000828254019250508190555050565b600081600001549050919050565b600073ffffffffffffffffffffffffffffffffffffffff168273ffffffffffffffffffffffffffffffffffffffff16141561208d576040517f08c379a0000000000000000000000000000000000000000000000000000000008152600401612084906135e2565b60405180910390fd5b61209681611b87565b156120d6576040517f08c379a00000000000000000000000000000000000000000000000000000000081526004016120cd906134a2565b60405180910390fd5b6120e2600083836125b8565b6001600360008473ffffffffffffffffffffffffffffffffffffffff1673ffffffffffffffffffffffffffffffffffffffff168152602001908152602001600020600082825461213291906137fa565b92505081905550816002600083815260200190815260200160002060006101000a81548173ffffffffffffffffffffffffffffffffffffffff021916908373ffffffffffffffffffffffffffffffffffffffff160217905550808273ffffffffffffffffffffffffffffffffffffffff16600073ffffffffffffffffffffffffffffffffffffffff167fddf252ad1be2c89b69c2b068fc378daa952ba7f163c4a11628f55a4df523b3ef60405160405180910390a46121f3600083836125bd565b5050565b61220082611b87565b61223f576040517f08c379a0000000000000000000000000000000000000000000000000000000008152600401612236906135a2565b60405180910390fd5b80600660008481526020019081526020016000209080519060200190612266929190612929565b505050565b6000600760009054906101000a900473ffffffffffffffffffffffffffffffffffffffff16905081600760006101000a81548173ffffffffffffffffffffffffffffffffffffffff021916908373ffffffffffffffffffffffffffffffffffffffff1602179055508173ffffffffffffffffffffffffffffffffffffffff168173ffffffffffffffffffffffffffffffffffffffff167f8be0079c531659141344cd1fd0a4f28419497f9722a3daafe3b4186f6b6457e060405160405180910390a35050565b8173ffffffffffffffffffffffffffffffffffffffff168373ffffffffffffffffffffffffffffffffffffffff1614156123a0576040517f08c379a0000000000000000000000000000000000000000000000000000000008152600401612397906134e2565b60405180910390fd5b80600560008573ffffffffffffffffffffffffffffffffffffffff1673ffffffffffffffffffffffffffffffffffffffff16815260200190815260200160002060008473ffffffffffffffffffffffffffffffffffffffff1673ffffffffffffffffffffffffffffffffffffffff16815260200190815260200160002060006101000a81548160ff0219169083151502179055508173ffffffffffffffffffffffffffffffffffffffff168373ffffffffffffffffffffffffffffffffffffffff167f17307eab39ab6107e8899845ad3d59bd9653f200f220920489ca2b5937696c31836040516124919190613405565b60405180910390a3505050565b6124a9848484611d92565b6124b5848484846125c2565b6124f4576040517f08c379a00000000000000000000000000000000000000000000000000000000081526004016124eb90613442565b60405180910390fd5b50505050565b606060405180602001604052806000815250905090565b606061251c82611b87565b61255b576040517f08c379a000000000000000000000000000000000000000000000000000000000815260040161255290613662565b60405180910390fd5b60006125656124fa565b9050600081511161258557604051806020016040528060008152506125b0565b8061258f84612759565b6040516020016125a092919061337a565b6040516020818303038152906040525b915050919050565b505050565b505050565b60006125e38473ffffffffffffffffffffffffffffffffffffffff16612906565b1561274c578373ffffffffffffffffffffffffffffffffffffffff1663150b7a0261260c611bf3565b8786866040518563ffffffff1660e01b815260040161262e94939291906133b9565b602060405180830381600087803b15801561264857600080fd5b505af192505050801561267957506040513d601f19601f820116820180604052508101906126769190612d81565b60015b6126fc573d80600081146126a9576040519150601f19603f3d011682016040523d82523d6000602084013e6126ae565b606091505b506000815114156126f4576040517f08c379a00000000000000000000000000000000000000000000000000000000081526004016126eb90613442565b60405180910390fd5b805181602001fd5b63150b7a0260e01b7bffffffffffffffffffffffffffffffffffffffffffffffffffffffff1916817bffffffffffffffffffffffffffffffffffffffffffffffffffffffff191614915050612751565b600190505b949350505050565b606060008214156127a1576040518060400160405280600181526020017f30000000000000000000000000000000000000000000000000000000000000008152509050612901565b600082905060005b600082146127d35780806127bc906139f8565b915050600a826127cc9190613850565b91506127a9565b60008167ffffffffffffffff811115612815577f4e487b7100000000000000000000000000000000000000000000000000000000600052604160045260246000fd5b6040519080825280601f01601f1916602001820160405280156128475781602001600182028036833780820191505090505b5090505b600085146128fa576001826128609190613881565b9150600a8561286f9190613a41565b603061287b91906137fa565b60f81b8183815181106128b7577f4e487b7100000000000000000000000000000000000000000000000000000000600052603260045260246000fd5b60200101907effffffffffffffffffffffffffffffffffffffffffffffffffffffffffffff1916908160001a905350600a856128f39190613850565b945061284b565b8093505050505b919050565b6000808273ffffffffffffffffffffffffffffffffffffffff163b119050919050565b82805461293590613995565b90600052602060002090601f016020900481019282612957576000855561299e565b82601f1061297057805160ff191683800117855561299e565b8280016001018555821561299e579182015b8281111561299d578251825591602001919060010190612982565b5b5090506129ab91906129f4565b5090565b6040518060a001604052806000815260200160608152602001600073ffffffffffffffffffffffffffffffffffffffff16815260200160008152602001600081525090565b5b80821115612a0d5760008160009055506001016129f5565b5090565b6000612a24612a1f84613744565b61371f565b905082815260208101848484011115612a3c57600080fd5b612a47848285613929565b509392505050565b6000612a62612a5d84613775565b61371f565b905082815260208101848484011115612a7a57600080fd5b612a85848285613929565b509392505050565b600081359050612a9c816140d6565b92915050565b600081359050612ab1816140ed565b92915050565b600081359050612ac681614104565b92915050565b600081519050612adb81614104565b92915050565b600082601f830112612af257600080fd5b8135612b02848260208601612a11565b91505092915050565b600082601f830112612b1c57600080fd5b8135612b2c848260208601612a4f565b91505092915050565b600081359050612b448161411b565b92915050565b600060208284031215612b5c57600080fd5b6000612b6a84828501612a8d565b91505092915050565b60008060408385031215612b8657600080fd5b6000612b9485828601612a8d565b9250506020612ba585828601612a8d565b9150509250929050565b600080600060608486031215612bc457600080fd5b6000612bd286828701612a8d565b9350506020612be386828701612a8d565b9250506040612bf486828701612b35565b9150509250925092565b60008060008060808587031215612c1457600080fd5b6000612c2287828801612a8d565b9450506020612c3387828801612a8d565b9350506040612c4487828801612b35565b925050606085013567ffffffffffffffff811115612c6157600080fd5b612c6d87828801612ae1565b91505092959194509250565b60008060408385031215612c8c57600080fd5b6000612c9a85828601612a8d565b9250506020612cab85828601612aa2565b9150509250929050565b60008060408385031215612cc857600080fd5b6000612cd685828601612a8d565b9250506020612ce785828601612b35565b9150509250929050565b600080600060608486031215612d0657600080fd5b6000612d1486828701612a8d565b9350506020612d2586828701612b35565b925050604084013567ffffffffffffffff811115612d4257600080fd5b612d4e86828701612b0b565b9150509250925092565b600060208284031215612d6a57600080fd5b6000612d7884828501612ab7565b91505092915050565b600060208284031215612d9357600080fd5b6000612da184828501612acc565b91505092915050565b600060208284031215612dbc57600080fd5b600082013567ffffffffffffffff811115612dd657600080fd5b612de284828501612b0b565b91505092915050565b60008060408385031215612dfe57600080fd5b600083013567ffffffffffffffff811115612e1857600080fd5b612e2485828601612b0b565b9250506020612e3585828601612a8d565b9150509250929050565b600080600060608486031215612e5457600080fd5b600084013567ffffffffffffffff811115612e6e57600080fd5b612e7a86828701612b0b565b935050602084013567ffffffffffffffff811115612e9757600080fd5b612ea386828701612b0b565b9250506040612eb486828701612a8d565b9150509250925092565b600060208284031215612ed057600080fd5b6000612ede84828501612b35565b91505092915050565b612ef0816138b5565b82525050565b612eff816138b5565b82525050565b612f0e816138c7565b82525050565b6000612f1f826137a6565b612f2981856137bc565b9350612f39818560208601613938565b612f4281613b2e565b840191505092915050565b6000612f58826137b1565b612f6281856137cd565b9350612f72818560208601613938565b612f7b81613b2e565b840191505092915050565b6000612f91826137b1565b612f9b81856137de565b9350612fab818560208601613938565b612fb481613b2e565b840191505092915050565b6000612fca826137b1565b612fd481856137ef565b9350612fe4818560208601613938565b80840191505092915050565b6000612ffd6032836137de565b915061300882613b3f565b604082019050919050565b60006130206026836137de565b915061302b82613b8e565b604082019050919050565b60006130436025836137de565b915061304e82613bdd565b604082019050919050565b6000613066601c836137de565b915061307182613c2c565b602082019050919050565b60006130896024836137de565b915061309482613c55565b604082019050919050565b60006130ac6019836137de565b91506130b782613ca4565b602082019050919050565b60006130cf6023836137de565b91506130da82613ccd565b604082019050919050565b60006130f2602c836137de565b91506130fd82613d1c565b604082019050919050565b60006131156038836137de565b915061312082613d6b565b604082019050919050565b6000613138602a836137de565b915061314382613dba565b604082019050919050565b600061315b6029836137de565b915061316682613e09565b604082019050919050565b600061317e602e836137de565b915061318982613e58565b604082019050919050565b60006131a16011836137de565b91506131ac82613ea7565b602082019050919050565b60006131c46020836137de565b91506131cf82613ed0565b602082019050919050565b60006131e76031836137de565b91506131f282613ef9565b604082019050919050565b600061320a602c836137de565b915061321582613f48565b604082019050919050565b600061322d6020836137de565b915061323882613f97565b602082019050919050565b6000613250602f836137de565b915061325b82613fc0565b604082019050919050565b6000613273600d836137de565b915061327e8261400f565b602082019050919050565b60006132966021836137de565b91506132a182614038565b604082019050919050565b60006132b96031836137de565b91506132c482614087565b604082019050919050565b600060a0830160008301516132e76000860182613345565b50602083015184820360208601526132ff8282612f4d565b91505060408301516133146040860182612ee7565b5060608301516133276060860182613345565b50608083015161333a6080860182613345565b508091505092915050565b61334e8161391f565b82525050565b61335d8161391f565b82525050565b600061336f8284612fbf565b915081905092915050565b60006133868285612fbf565b91506133928284612fbf565b91508190509392505050565b60006020820190506133b36000830184612ef6565b92915050565b60006080820190506133ce6000830187612ef6565b6133db6020830186612ef6565b6133e86040830185613354565b81810360608301526133fa8184612f14565b905095945050505050565b600060208201905061341a6000830184612f05565b92915050565b6000602082019050818103600083015261343a8184612f86565b905092915050565b6000602082019050818103600083015261345b81612ff0565b9050919050565b6000602082019050818103600083015261347b81613013565b9050919050565b6000602082019050818103600083015261349b81613036565b9050919050565b600060208201905081810360008301526134bb81613059565b9050919050565b600060208201905081810360008301526134db8161307c565b9050919050565b600060208201905081810360008301526134fb8161309f565b9050919050565b6000602082019050818103600083015261351b816130c2565b9050919050565b6000602082019050818103600083015261353b816130e5565b9050919050565b6000602082019050818103600083015261355b81613108565b9050919050565b6000602082019050818103600083015261357b8161312b565b9050919050565b6000602082019050818103600083015261359b8161314e565b9050919050565b600060208201905081810360008301526135bb81613171565b9050919050565b600060208201905081810360008301526135db81613194565b9050919050565b600060208201905081810360008301526135fb816131b7565b9050919050565b6000602082019050818103600083015261361b816131da565b9050919050565b6000602082019050818103600083015261363b816131fd565b9050919050565b6000602082019050818103600083015261365b81613220565b9050919050565b6000602082019050818103600083015261367b81613243565b9050919050565b6000602082019050818103600083015261369b81613266565b9050919050565b600060208201905081810360008301526136bb81613289565b9050919050565b600060208201905081810360008301526136db816132ac565b9050919050565b600060208201905081810360008301526136fc81846132cf565b905092915050565b60006020820190506137196000830184613354565b92915050565b600061372961373a565b905061373582826139c7565b919050565b6000604051905090565b600067ffffffffffffffff82111561375f5761375e613aff565b5b61376882613b2e565b9050602081019050919050565b600067ffffffffffffffff8211156137905761378f613aff565b5b61379982613b2e565b9050602081019050919050565b600081519050919050565b600081519050919050565b600082825260208201905092915050565b600082825260208201905092915050565b600082825260208201905092915050565b600081905092915050565b60006138058261391f565b91506138108361391f565b9250827fffffffffffffffffffffffffffffffffffffffffffffffffffffffffffffffff0382111561384557613844613a72565b5b828201905092915050565b600061385b8261391f565b91506138668361391f565b92508261387657613875613aa1565b5b828204905092915050565b600061388c8261391f565b91506138978361391f565b9250828210156138aa576138a9613a72565b5b828203905092915050565b60006138c0826138ff565b9050919050565b60008115159050919050565b60007fffffffff0000000000000000000000000000000000000000000000000000000082169050919050565b600073ffffffffffffffffffffffffffffffffffffffff82169050919050565b6000819050919050565b82818337600083830152505050565b60005b8381101561395657808201518184015260208101905061393b565b83811115613965576000848401525b50505050565b60006139768261391f565b9150600082141561398a57613989613a72565b5b600182039050919050565b600060028204905060018216806139ad57607f821691505b602082108114156139c1576139c0613ad0565b5b50919050565b6139d082613b2e565b810181811067ffffffffffffffff821117156139ef576139ee613aff565b5b80604052505050565b6000613a038261391f565b91507fffffffffffffffffffffffffffffffffffffffffffffffffffffffffffffffff821415613a3657613a35613a72565b5b600182019050919050565b6000613a4c8261391f565b9150613a578361391f565b925082613a6757613a66613aa1565b5b828206905092915050565b7f4e487b7100000000000000000000000000000000000000000000000000000000600052601160045260246000fd5b7f4e487b7100000000000000000000000000000000000000000000000000000000600052601260045260246000fd5b7f4e487b7100000000000000000000000000000000000000000000000000000000600052602260045260246000fd5b7f4e487b7100000000000000000000000000000000000000000000000000000000600052604160045260246000fd5b6000601f19601f8301169050919050565b7f4552433732313a207472616e7366657220746f206e6f6e20455243373231526560008201527f63656976657220696d706c656d656e7465720000000000000000000000000000602082015250565b7f4f776e61626c653a206e6577206f776e657220697320746865207a65726f206160008201527f6464726573730000000000000000000000000000000000000000000000000000602082015250565b7f4552433732313a207472616e736665722066726f6d20696e636f72726563742060008201527f6f776e6572000000000000000000000000000000000000000000000000000000602082015250565b7f4552433732313a20746f6b656e20616c7265616479206d696e74656400000000600082015250565b7f4552433732313a207472616e7366657220746f20746865207a65726f2061646460008201527f7265737300000000000000000000000000000000000000000000000000000000602082015250565b7f4552433732313a20617070726f766520746f2063616c6c657200000000000000600082015250565b7f48617320746f206265206d6f7265207468616e2030206d696e74696e6720706f60008201527f7765720000000000000000000000000000000000000000000000000000000000602082015250565b7f4552433732313a206f70657261746f7220717565727920666f72206e6f6e657860008201527f697374656e7420746f6b656e0000000000000000000000000000000000000000602082015250565b7f4552433732313a20617070726f76652063616c6c6572206973206e6f74206f7760008201527f6e6572206e6f7220617070726f76656420666f7220616c6c0000000000000000602082015250565b7f4552433732313a2062616c616e636520717565727920666f7220746865207a6560008201527f726f206164647265737300000000000000000000000000000000000000000000602082015250565b7f4552433732313a206f776e657220717565727920666f72206e6f6e657869737460008201527f656e7420746f6b656e0000000000000000000000000000000000000000000000602082015250565b7f45524337323155524953746f726167653a2055524920736574206f66206e6f6e60008201527f6578697374656e7420746f6b656e000000000000000000000000000000000000602082015250565b7f70726963652063616e6e6f742062652030000000000000000000000000000000600082015250565b7f4552433732313a206d696e7420746f20746865207a65726f2061646472657373600082015250565b7f45524337323155524953746f726167653a2055524920717565727920666f722060008201527f6e6f6e6578697374656e7420746f6b656e000000000000000000000000000000602082015250565b7f4552433732313a20617070726f76656420717565727920666f72206e6f6e657860008201527f697374656e7420746f6b656e0000000000000000000000000000000000000000602082015250565b7f4f776e61626c653a2063616c6c6572206973206e6f7420746865206f776e6572600082015250565b7f4552433732314d657461646174613a2055524920717565727920666f72206e6f60008201527f6e6578697374656e7420746f6b656e0000000000000000000000000000000000602082015250565b7f6e6f742074686520707269636500000000000000000000000000000000000000600082015250565b7f4552433732313a20617070726f76616c20746f2063757272656e74206f776e6560008201527f7200000000000000000000000000000000000000000000000000000000000000602082015250565b7f4552433732313a207472616e736665722063616c6c6572206973206e6f74206f60008201527f776e6572206e6f7220617070726f766564000000000000000000000000000000602082015250565b6140df816138b5565b81146140ea57600080fd5b50565b6140f6816138c7565b811461410157600080fd5b50565b61410d816138d3565b811461411857600080fd5b50565b6141248161391f565b811461412f57600080fd5b5056fea2646970667358221220b17e9730fad1953fec245d8369f9123774a94de1cae1db7dfaa0c46f412b79c064736f6c63430008030033",
  "immutableReferences": {},
  "source": "// SPDX-License-Identifier: MIT\npragma solidity ^0.8.0;\n\nimport \"@openzeppelin/contracts/token/ERC721/extensions/ERC721URIStorage.sol\";\nimport \"@openzeppelin/contracts/token/ERC20/IERC20.sol\";\nimport \"@openzeppelin/contracts/utils/Counters.sol\";\nimport \"@openzeppelin/contracts/access/Ownable.sol\";\n\n\ncontract Deccert is ERC721URIStorage,Ownable{\n\n    using Counters for Counters.Counter;\n\n    //------------- Variables --------------------------------------------------------------\n    Counters.Counter private _tokenIds;\n\n    uint256 public price=0.09 ether;\n\n    mapping(string=>mapping(address=>uint256)) private MINTING_POWER;\n\n    constructor() ERC721(\"Deccert\", \"DECCERT\") {}\n\n    struct Certi {\n        uint256 tokenId;\n        string name;\n        address owner;\n        uint256 blockNumber;\n        uint256 time;\n    }\n    \n    mapping(uint256=>Certi) _certificados;\n    mapping(uint256=>bool) SIGNED; \n\n    //------------- Modifiers --------------------------------------------------------------\n    modifier hasMintingPower(string memory _uri){\n        require(MINTING_POWER[_uri][msg.sender]>0,'Has to be more than 0 minting power');\n        MINTING_POWER[_uri][msg.sender]--;\n        _;\n    }\n\n    function giveMintingPower(\n        address _user,\n        uint256 _howMuch,\n        string memory _uri)public onlyOwner{\n\n            MINTING_POWER[_uri][_user]=_howMuch;\n    }\n\n    function getMintingPower(string memory _uri)external view returns(uint256){\n            return MINTING_POWER[_uri][msg.sender];\n    }\n\n    //Only the owner can call this function to mint NFT\n    function ManualMinting(\n        string memory _name,\n        string memory _uri,\n        address who\n        ) external onlyOwner returns(uint256){\n\n        //incrementamos en 1 el contador\n        _tokenIds.increment();\n\n        uint256 newItemId = _tokenIds.current();\n        _mint(who, newItemId);\n\n        _setTokenURI(newItemId, _uri);\n        SIGNED[newItemId]=true;\n\n        Certi memory newCerti= Certi(\n        _tokenIds.current(),//token id of Deccert certificate\n        _name,\n        who,\n        block.number,\n        block.timestamp\n        );\n\n        _certificados[newItemId] = newCerti;\n\n        return newItemId;\n\n    }\n\n    //Admin can give user capability to mint an specific URI NFT\n    //Admin has to give mint power previusly \n    function PermissionMinting(\n        string memory _name,\n        string memory _uri,\n        address who) external hasMintingPower(_uri) returns(uint256){\n\n        _tokenIds.increment();\n\n        uint256 newItemId = _tokenIds.current();\n        _mint(msg.sender, newItemId);\n        _setTokenURI(newItemId, _uri);\n        SIGNED[newItemId]=true;\n\n        Certi memory newCerti= Certi(\n        _tokenIds.current(),//token id of Deccert certificate\n        _name,\n        who,\n        block.number,\n        block.timestamp\n        );\n\n        _certificados[newItemId] = newCerti;\n\n        return newItemId;\n\n    }\n\n    //Any user can call this function and mint their own certificate \n    function PreMinting(\n      string memory _name,\n      string memory _uri,\n      address who) external payable returns (uint256){\n          require(msg.value>=price,'not the price');\n        //incrementamos en 1 el contador\n        _tokenIds.increment();\n\n        uint256 newItemId = _tokenIds.current();\n        _mint(who, newItemId);\n        _setTokenURI(newItemId, _uri);\n        SIGNED[newItemId]=false;\n\n        Certi memory newCerti= Certi(\n        _tokenIds.current(),//token id of Deccert NFT\n        _name,\n        who,\n        block.number,\n        block.timestamp\n        );\n\n        _certificados[newItemId] = newCerti;\n\n        return newItemId;\n\n    }\n\n    function setPrice(uint256 _newPrice)external onlyOwner{\n        require(_newPrice>0,'price cannot be 0');\n        price=_newPrice;\n    }\n\n    function SignNFT(uint256 tokenId) external onlyOwner{\n        SIGNED[tokenId]=!SIGNED[tokenId];\n    }\n\n    function isSigned(uint256 tokenId)external view returns(bool){\n        return SIGNED[tokenId];\n    }\n\n    function get(uint256 _index)public view returns(Certi memory){\n          return _certificados[_index];\n    }\n  \n    function getTotal()public view returns(uint256){\n        return(_tokenIds.current());\n    }\n\n    //Returns the amount of NFTs that an account can\n    //Mint for an specific URL\n    function getMintingPower(string memory what,address _who)external view returns(uint256){\n        return MINTING_POWER[what][_who];\n    }\n}\n",
  "sourcePath": "/Users/aarontolentino/Documents/B-Deccert/Deccert/contracts/Deccert.sol",
  "compiler": {
    "name": "solc",
    "version": "0.8.3+commit.8d00100c.Emscripten.clang"
  },
  "schemaVersion": "3.4.1",
  "updatedAt": "2023-01-17T05:20:26.625Z",
  "networkType": "ethereum",
  "devdoc": {
    "kind": "dev",
    "methods": {
      "approve(address,uint256)": {
        "details": "See {IERC721-approve}."
      },
      "balanceOf(address)": {
        "details": "See {IERC721-balanceOf}."
      },
      "getApproved(uint256)": {
        "details": "See {IERC721-getApproved}."
      },
      "isApprovedForAll(address,address)": {
        "details": "See {IERC721-isApprovedForAll}."
      },
      "name()": {
        "details": "See {IERC721Metadata-name}."
      },
      "owner()": {
        "details": "Returns the address of the current owner."
      },
      "ownerOf(uint256)": {
        "details": "See {IERC721-ownerOf}."
      },
      "renounceOwnership()": {
        "details": "Leaves the contract without owner. It will not be possible to call `onlyOwner` functions anymore. Can only be called by the current owner. NOTE: Renouncing ownership will leave the contract without an owner, thereby removing any functionality that is only available to the owner."
      },
      "safeTransferFrom(address,address,uint256)": {
        "details": "See {IERC721-safeTransferFrom}."
      },
      "safeTransferFrom(address,address,uint256,bytes)": {
        "details": "See {IERC721-safeTransferFrom}."
      },
      "setApprovalForAll(address,bool)": {
        "details": "See {IERC721-setApprovalForAll}."
      },
      "supportsInterface(bytes4)": {
        "details": "See {IERC165-supportsInterface}."
      },
      "symbol()": {
        "details": "See {IERC721Metadata-symbol}."
      },
      "tokenURI(uint256)": {
        "details": "See {IERC721Metadata-tokenURI}."
      },
      "transferFrom(address,address,uint256)": {
        "details": "See {IERC721-transferFrom}."
      },
      "transferOwnership(address)": {
        "details": "Transfers ownership of the contract to a new account (`newOwner`). Can only be called by the current owner."
      }
    },
    "version": 1
  },
  "userdoc": {
    "kind": "user",
    "methods": {},
    "version": 1
  }
}