{
  "contractName": "Server",
  "abi": [
    {
      "inputs": [
        {
          "internalType": "contract Deccert",
          "name": "smart_contract",
          "type": "address"
        }
      ],
      "stateMutability": "nonpayable",
      "type": "constructor"
    },
    {
      "anonymous": false,
      "inputs": [
        {
          "indexed": true,
          "internalType": "address",
          "name": "previousOwner",
          "type": "address"
        },
        {
          "indexed": true,
          "internalType": "address",
          "name": "newOwner",
          "type": "address"
        }
      ],
      "name": "OwnershipTransferred",
      "type": "event"
    },
    {
      "inputs": [],
      "name": "PRICE",
      "outputs": [
        {
          "internalType": "uint256",
          "name": "",
          "type": "uint256"
        }
      ],
      "stateMutability": "view",
      "type": "function",
      "constant": true
    },
    {
      "inputs": [],
      "name": "owner",
      "outputs": [
        {
          "internalType": "address",
          "name": "",
          "type": "address"
        }
      ],
      "stateMutability": "view",
      "type": "function",
      "constant": true
    },
    {
      "inputs": [],
      "name": "renounceOwnership",
      "outputs": [],
      "stateMutability": "nonpayable",
      "type": "function"
    },
    {
      "inputs": [
        {
          "internalType": "address",
          "name": "newOwner",
          "type": "address"
        }
      ],
      "name": "transferOwnership",
      "outputs": [],
      "stateMutability": "nonpayable",
      "type": "function"
    },
    {
      "inputs": [
        {
          "internalType": "uint256",
          "name": "_minPrice",
          "type": "uint256"
        }
      ],
      "name": "setMinPrice",
      "outputs": [],
      "stateMutability": "nonpayable",
      "type": "function"
    },
    {
      "inputs": [
        {
          "internalType": "address",
          "name": "_admin",
          "type": "address"
        }
      ],
      "name": "setAdmin",
      "outputs": [],
      "stateMutability": "nonpayable",
      "type": "function"
    },
    {
      "inputs": [
        {
          "internalType": "address",
          "name": "_user",
          "type": "address"
        },
        {
          "internalType": "string",
          "name": "_uri",
          "type": "string"
        }
      ],
      "name": "checkPayment",
      "outputs": [
        {
          "internalType": "bool",
          "name": "",
          "type": "bool"
        }
      ],
      "stateMutability": "view",
      "type": "function",
      "constant": true
    },
    {
      "inputs": [],
      "name": "currentPrice",
      "outputs": [
        {
          "internalType": "uint256",
          "name": "",
          "type": "uint256"
        }
      ],
      "stateMutability": "view",
      "type": "function",
      "constant": true
    },
    {
      "inputs": [
        {
          "internalType": "string",
          "name": "_uri",
          "type": "string"
        }
      ],
      "name": "pay",
      "outputs": [],
      "stateMutability": "payable",
      "type": "function",
      "payable": true
    },
    {
      "inputs": [
        {
          "internalType": "string",
          "name": "_name",
          "type": "string"
        },
        {
          "internalType": "string",
          "name": "_uri",
          "type": "string"
        },
        {
          "internalType": "address",
          "name": "_who",
          "type": "address"
        }
      ],
      "name": "mint",
      "outputs": [],
      "stateMutability": "nonpayable",
      "type": "function"
    },
    {
      "inputs": [
        {
          "internalType": "address",
          "name": "_receiver",
          "type": "address"
        }
      ],
      "name": "withdraw",
      "outputs": [],
      "stateMutability": "nonpayable",
      "type": "function"
    }
  ],
  "bytecode": "0x6080604052662386f26fc100006004553480156200001c57600080fd5b50604051620016c0380380620016c08339818101604052810190620000429190620001d5565b6200006262000056620000f260201b60201c565b620000fa60201b60201c565b6001808190555080600360006101000a81548173ffffffffffffffffffffffffffffffffffffffff021916908373ffffffffffffffffffffffffffffffffffffffff16021790555033600560006101000a81548173ffffffffffffffffffffffffffffffffffffffff021916908373ffffffffffffffffffffffffffffffffffffffff1602179055505062000263565b600033905090565b60008060009054906101000a900473ffffffffffffffffffffffffffffffffffffffff169050816000806101000a81548173ffffffffffffffffffffffffffffffffffffffff021916908373ffffffffffffffffffffffffffffffffffffffff1602179055508173ffffffffffffffffffffffffffffffffffffffff168173ffffffffffffffffffffffffffffffffffffffff167f8be0079c531659141344cd1fd0a4f28419497f9722a3daafe3b4186f6b6457e060405160405180910390a35050565b600081519050620001cf8162000249565b92915050565b600060208284031215620001e857600080fd5b6000620001f884828501620001be565b91505092915050565b60006200020e8262000229565b9050919050565b6000620002228262000201565b9050919050565b600073ffffffffffffffffffffffffffffffffffffffff82169050919050565b620002548162000215565b81146200026057600080fd5b50565b61144d80620002736000396000f3fe60806040526004361061009c5760003560e01c80638d859f3e116100645780638d859f3e1461014f5780638da5cb5b1461017a578063904c5747146101a55780639d1b464a146101ce578063f06b3acf146101f9578063f2fde38b146102365761009c565b80632b66d72e146100a157806351cff8d9146100bd5780635ea8cd12146100e6578063704b6c021461010f578063715018a614610138575b600080fd5b6100bb60048036038101906100b69190610cbb565b61025f565b005b3480156100c957600080fd5b506100e460048036038101906100df9190610c3e565b6103c4565b005b3480156100f257600080fd5b5061010d60048036038101906101089190610d7b565b6104f6565b005b34801561011b57600080fd5b5061013660048036038101906101319190610c3e565b61057c565b005b34801561014457600080fd5b5061014d61063c565b005b34801561015b57600080fd5b506101646106c4565b6040516101719190611103565b60405180910390f35b34801561018657600080fd5b5061018f6106ca565b60405161019c9190610fa8565b60405180910390f35b3480156101b157600080fd5b506101cc60048036038101906101c79190610cfc565b6106f3565b005b3480156101da57600080fd5b506101e3610956565b6040516101f09190611103565b60405180910390f35b34801561020557600080fd5b50610220600480360381019061021b9190610c67565b610960565b60405161022d9190610fc3565b60405180910390f35b34801561024257600080fd5b5061025d60048036038101906102589190610c3e565b6109d3565b005b600260003373ffffffffffffffffffffffffffffffffffffffff1673ffffffffffffffffffffffffffffffffffffffff168152602001908152602001600020816040516102ac9190610f7c565b908152602001604051809103902060009054906101000a900460ff1615610308576040517f08c379a00000000000000000000000000000000000000000000000000000000081526004016102ff90611043565b60405180910390fd5b60045434101561034d576040517f08c379a0000000000000000000000000000000000000000000000000000000008152600401610344906110a3565b60405180910390fd5b6001600260003373ffffffffffffffffffffffffffffffffffffffff1673ffffffffffffffffffffffffffffffffffffffff1681526020019081526020016000208260405161039c9190610f7c565b908152602001604051809103902060006101000a81548160ff02191690831515021790555050565b6103cc610acb565b73ffffffffffffffffffffffffffffffffffffffff166103ea6106ca565b73ffffffffffffffffffffffffffffffffffffffff1614610440576040517f08c379a000000000000000000000000000000000000000000000000000000000815260040161043790611083565b60405180910390fd5b600047905060008273ffffffffffffffffffffffffffffffffffffffff168260405161046b90610f93565b60006040518083038185875af1925050503d80600081146104a8576040519150601f19603f3d011682016040523d82523d6000602084013e6104ad565b606091505b50509050806104f1576040517f08c379a00000000000000000000000000000000000000000000000000000000081526004016104e8906110e3565b60405180910390fd5b505050565b6104fe610acb565b73ffffffffffffffffffffffffffffffffffffffff1661051c6106ca565b73ffffffffffffffffffffffffffffffffffffffff1614610572576040517f08c379a000000000000000000000000000000000000000000000000000000000815260040161056990611083565b60405180910390fd5b8060048190555050565b610584610acb565b73ffffffffffffffffffffffffffffffffffffffff166105a26106ca565b73ffffffffffffffffffffffffffffffffffffffff16146105f8576040517f08c379a00000000000000000000000000000000000000000000000000000000081526004016105ef90611083565b60405180910390fd5b80600560006101000a81548173ffffffffffffffffffffffffffffffffffffffff021916908373ffffffffffffffffffffffffffffffffffffffff16021790555050565b610644610acb565b73ffffffffffffffffffffffffffffffffffffffff166106626106ca565b73ffffffffffffffffffffffffffffffffffffffff16146106b8576040517f08c379a00000000000000000000000000000000000000000000000000000000081526004016106af90611083565b60405180910390fd5b6106c26000610ad3565b565b60045481565b60008060009054906101000a900473ffffffffffffffffffffffffffffffffffffffff16905090565b600560009054906101000a900473ffffffffffffffffffffffffffffffffffffffff1673ffffffffffffffffffffffffffffffffffffffff163373ffffffffffffffffffffffffffffffffffffffff1614610783576040517f08c379a000000000000000000000000000000000000000000000000000000000815260040161077a90611063565b60405180910390fd5b600260008273ffffffffffffffffffffffffffffffffffffffff1673ffffffffffffffffffffffffffffffffffffffff168152602001908152602001600020826040516107d09190610f7c565b908152602001604051809103902060009054906101000a900460ff1661082b576040517f08c379a0000000000000000000000000000000000000000000000000000000008152600401610822906110c3565b60405180910390fd5b600360009054906101000a900473ffffffffffffffffffffffffffffffffffffffff1673ffffffffffffffffffffffffffffffffffffffff16634fe869538484846040518463ffffffff1660e01b815260040161088a93929190610fde565b602060405180830381600087803b1580156108a457600080fd5b505af11580156108b8573d6000803e3d6000fd5b505050506040513d601f19601f820116820180604052508101906108dc9190610da4565b506000600260008373ffffffffffffffffffffffffffffffffffffffff1673ffffffffffffffffffffffffffffffffffffffff1681526020019081526020016000208360405161092c9190610f7c565b908152602001604051809103902060006101000a81548160ff021916908315150217905550505050565b6000600454905090565b6000600260008473ffffffffffffffffffffffffffffffffffffffff1673ffffffffffffffffffffffffffffffffffffffff168152602001908152602001600020826040516109af9190610f7c565b908152602001604051809103902060009054906101000a900460ff16905092915050565b6109db610acb565b73ffffffffffffffffffffffffffffffffffffffff166109f96106ca565b73ffffffffffffffffffffffffffffffffffffffff1614610a4f576040517f08c379a0000000000000000000000000000000000000000000000000000000008152600401610a4690611083565b60405180910390fd5b600073ffffffffffffffffffffffffffffffffffffffff168173ffffffffffffffffffffffffffffffffffffffff161415610abf576040517f08c379a0000000000000000000000000000000000000000000000000000000008152600401610ab690611023565b60405180910390fd5b610ac881610ad3565b50565b600033905090565b60008060009054906101000a900473ffffffffffffffffffffffffffffffffffffffff169050816000806101000a81548173ffffffffffffffffffffffffffffffffffffffff021916908373ffffffffffffffffffffffffffffffffffffffff1602179055508173ffffffffffffffffffffffffffffffffffffffff168173ffffffffffffffffffffffffffffffffffffffff167f8be0079c531659141344cd1fd0a4f28419497f9722a3daafe3b4186f6b6457e060405160405180910390a35050565b6000610baa610ba584611143565b61111e565b905082815260208101848484011115610bc257600080fd5b610bcd8482856111ee565b509392505050565b600081359050610be4816113e9565b92915050565b600082601f830112610bfb57600080fd5b8135610c0b848260208601610b97565b91505092915050565b600081359050610c2381611400565b92915050565b600081519050610c3881611400565b92915050565b600060208284031215610c5057600080fd5b6000610c5e84828501610bd5565b91505092915050565b60008060408385031215610c7a57600080fd5b6000610c8885828601610bd5565b925050602083013567ffffffffffffffff811115610ca557600080fd5b610cb185828601610bea565b9150509250929050565b600060208284031215610ccd57600080fd5b600082013567ffffffffffffffff811115610ce757600080fd5b610cf384828501610bea565b91505092915050565b600080600060608486031215610d1157600080fd5b600084013567ffffffffffffffff811115610d2b57600080fd5b610d3786828701610bea565b935050602084013567ffffffffffffffff811115610d5457600080fd5b610d6086828701610bea565b9250506040610d7186828701610bd5565b9150509250925092565b600060208284031215610d8d57600080fd5b6000610d9b84828501610c14565b91505092915050565b600060208284031215610db657600080fd5b6000610dc484828501610c29565b91505092915050565b610dd6816111a6565b82525050565b610de5816111b8565b82525050565b6000610df682611174565b610e00818561118a565b9350610e108185602086016111fd565b610e1981611290565b840191505092915050565b6000610e2f82611174565b610e39818561119b565b9350610e498185602086016111fd565b80840191505092915050565b6000610e6260268361118a565b9150610e6d826112a1565b604082019050919050565b6000610e85600c8361118a565b9150610e90826112f0565b602082019050919050565b6000610ea8600a8361118a565b9150610eb382611319565b602082019050919050565b6000610ecb60208361118a565b9150610ed682611342565b602082019050919050565b6000610eee600d8361118a565b9150610ef98261136b565b602082019050919050565b6000610f11600b8361118a565b9150610f1c82611394565b602082019050919050565b6000610f3460008361117f565b9150610f3f826113bd565b600082019050919050565b6000610f5760108361118a565b9150610f62826113c0565b602082019050919050565b610f76816111e4565b82525050565b6000610f888284610e24565b915081905092915050565b6000610f9e82610f27565b9150819050919050565b6000602082019050610fbd6000830184610dcd565b92915050565b6000602082019050610fd86000830184610ddc565b92915050565b60006060820190508181036000830152610ff88186610deb565b9050818103602083015261100c8185610deb565b905061101b6040830184610dcd565b949350505050565b6000602082019050818103600083015261103c81610e55565b9050919050565b6000602082019050818103600083015261105c81610e78565b9050919050565b6000602082019050818103600083015261107c81610e9b565b9050919050565b6000602082019050818103600083015261109c81610ebe565b9050919050565b600060208201905081810360008301526110bc81610ee1565b9050919050565b600060208201905081810360008301526110dc81610f04565b9050919050565b600060208201905081810360008301526110fc81610f4a565b9050919050565b60006020820190506111186000830184610f6d565b92915050565b6000611128611139565b90506111348282611230565b919050565b6000604051905090565b600067ffffffffffffffff82111561115e5761115d611261565b5b61116782611290565b9050602081019050919050565b600081519050919050565b600081905092915050565b600082825260208201905092915050565b600081905092915050565b60006111b1826111c4565b9050919050565b60008115159050919050565b600073ffffffffffffffffffffffffffffffffffffffff82169050919050565b6000819050919050565b82818337600083830152505050565b60005b8381101561121b578082015181840152602081019050611200565b8381111561122a576000848401525b50505050565b61123982611290565b810181811067ffffffffffffffff8211171561125857611257611261565b5b80604052505050565b7f4e487b7100000000000000000000000000000000000000000000000000000000600052604160045260246000fd5b6000601f19601f8301169050919050565b7f4f776e61626c653a206e6577206f776e657220697320746865207a65726f206160008201527f6464726573730000000000000000000000000000000000000000000000000000602082015250565b7f416c726561647920706169640000000000000000000000000000000000000000600082015250565b7f6f6e6c792061646d696e00000000000000000000000000000000000000000000600082015250565b7f4f776e61626c653a2063616c6c6572206973206e6f7420746865206f776e6572600082015250565b7f6e6f742074686520707269636500000000000000000000000000000000000000600082015250565b7f75736572206e6f20706179000000000000000000000000000000000000000000600082015250565b50565b7f4e6f20676f6f6420776974686472617700000000000000000000000000000000600082015250565b6113f2816111a6565b81146113fd57600080fd5b50565b611409816111e4565b811461141457600080fd5b5056fea26469706673582212202436cca9c14c2b9cde0db8a998ca6e47325572e71e8d172d403fbfcd45b87b6864736f6c63430008030033",
  "immutableReferences": {},
  "source": "// SPDX-License-Identifier: MIT\npragma solidity ^0.8.0;\n\nimport \"@openzeppelin/contracts/access/Ownable.sol\";\nimport \"@openzeppelin/contracts/security/ReentrancyGuard.sol\";\nimport \"./Deccert.sol\";\n\ncontract Server is Ownable,ReentrancyGuard{\n\n    mapping(address=>mapping(string=>bool)) debt;\n    \n    Deccert BASE_CONTRACT;\n\n    uint256 public PRICE=0.01 ether;\n    address ADMIN;\n\n    constructor(Deccert smart_contract){\n        BASE_CONTRACT=smart_contract;\n        ADMIN=msg.sender;\n    }\n    \n    modifier onlyAdmin(){\n        require(msg.sender==ADMIN,'only admin');\n        _;\n    }\n\n    //Funcion para que el dueo cambie el precio\n    function setMinPrice(uint256 _minPrice)public onlyOwner{\n        PRICE=_minPrice;\n    }\n\n    function setAdmin(address _admin)external onlyOwner{\n        ADMIN=_admin;\n    }\n\n    function checkPayment(address _user,string memory _uri)public view returns(bool){\n        return debt[_user][_uri];\n    }\n\n    function currentPrice()external view returns(uint256){\n        return PRICE;\n    }\n\n    function pay(string memory _uri)external payable{\n        require(!debt[msg.sender][_uri],'Already paid');\n        require(msg.value>=PRICE,'not the price');\n\n        debt[msg.sender][_uri]=true;\n    }       \n\n    function mint(\n        string memory _name,\n        string memory _uri,\n        address _who)external onlyAdmin{\n        require(debt[_who][_uri],'user no pay');\n\n        BASE_CONTRACT.PermissionMinting(_name, _uri, _who);\n        debt[_who][_uri]=false;\n    }\n\n    function withdraw(address _receiver)public onlyOwner{\n        uint256 totalAmount=address(this).balance;\n        (bool sent, ) = _receiver.call{value:totalAmount}(\"\");\n        require(sent,\"No good withdraw\");\n    }\n\n}\n\n//el dueo de Deccert Smart contract tiene que darle mint power al SC Server\n\n",
  "sourcePath": "/Users/aarontolentino/Documents/B-Deccert/Deccert/contracts/Server.sol",
  "compiler": {
    "name": "solc",
    "version": "0.8.3+commit.8d00100c.Emscripten.clang"
  },
  "schemaVersion": "3.4.1",
  "updatedAt": "2023-01-17T05:20:26.639Z",
  "networkType": "ethereum",
  "devdoc": {
    "kind": "dev",
    "methods": {
      "owner()": {
        "details": "Returns the address of the current owner."
      },
      "renounceOwnership()": {
        "details": "Leaves the contract without owner. It will not be possible to call `onlyOwner` functions anymore. Can only be called by the current owner. NOTE: Renouncing ownership will leave the contract without an owner, thereby removing any functionality that is only available to the owner."
      },
      "transferOwnership(address)": {
        "details": "Transfers ownership of the contract to a new account (`newOwner`). Can only be called by the current owner."
      }
    },
    "version": 1
  },
  "userdoc": {
    "kind": "user",
    "methods": {},
    "version": 1
  }
}