{
  "contractName": "Deccert",
  "abi": [
    {
      "inputs": [],
      "stateMutability": "nonpayable",
      "type": "constructor"
    },
    {
      "anonymous": false,
      "inputs": [
        {
          "indexed": true,
          "internalType": "address",
          "name": "owner",
          "type": "address"
        },
        {
          "indexed": true,
          "internalType": "address",
          "name": "approved",
          "type": "address"
        },
        {
          "indexed": true,
          "internalType": "uint256",
          "name": "tokenId",
          "type": "uint256"
        }
      ],
      "name": "Approval",
      "type": "event"
    },
    {
      "anonymous": false,
      "inputs": [
        {
          "indexed": true,
          "internalType": "address",
          "name": "owner",
          "type": "address"
        },
        {
          "indexed": true,
          "internalType": "address",
          "name": "operator",
          "type": "address"
        },
        {
          "indexed": false,
          "internalType": "bool",
          "name": "approved",
          "type": "bool"
        }
      ],
      "name": "ApprovalForAll",
      "type": "event"
    },
    {
      "anonymous": false,
      "inputs": [
        {
          "indexed": true,
          "internalType": "address",
          "name": "previousOwner",
          "type": "address"
        },
        {
          "indexed": true,
          "internalType": "address",
          "name": "newOwner",
          "type": "address"
        }
      ],
      "name": "OwnershipTransferred",
      "type": "event"
    },
    {
      "anonymous": false,
      "inputs": [
        {
          "indexed": true,
          "internalType": "address",
          "name": "from",
          "type": "address"
        },
        {
          "indexed": true,
          "internalType": "address",
          "name": "to",
          "type": "address"
        },
        {
          "indexed": true,
          "internalType": "uint256",
          "name": "tokenId",
          "type": "uint256"
        }
      ],
      "name": "Transfer",
      "type": "event"
    },
    {
      "inputs": [
        {
          "internalType": "string",
          "name": "",
          "type": "string"
        }
      ],
      "name": "_names",
      "outputs": [
        {
          "internalType": "bool",
          "name": "",
          "type": "bool"
        }
      ],
      "stateMutability": "view",
      "type": "function",
      "constant": true
    },
    {
      "inputs": [
        {
          "internalType": "address",
          "name": "to",
          "type": "address"
        },
        {
          "internalType": "uint256",
          "name": "tokenId",
          "type": "uint256"
        }
      ],
      "name": "approve",
      "outputs": [],
      "stateMutability": "nonpayable",
      "type": "function"
    },
    {
      "inputs": [
        {
          "internalType": "address",
          "name": "owner",
          "type": "address"
        }
      ],
      "name": "balanceOf",
      "outputs": [
        {
          "internalType": "uint256",
          "name": "",
          "type": "uint256"
        }
      ],
      "stateMutability": "view",
      "type": "function",
      "constant": true
    },
    {
      "inputs": [
        {
          "internalType": "uint256",
          "name": "tokenId",
          "type": "uint256"
        }
      ],
      "name": "getApproved",
      "outputs": [
        {
          "internalType": "address",
          "name": "",
          "type": "address"
        }
      ],
      "stateMutability": "view",
      "type": "function",
      "constant": true
    },
    {
      "inputs": [
        {
          "internalType": "address",
          "name": "owner",
          "type": "address"
        },
        {
          "internalType": "address",
          "name": "operator",
          "type": "address"
        }
      ],
      "name": "isApprovedForAll",
      "outputs": [
        {
          "internalType": "bool",
          "name": "",
          "type": "bool"
        }
      ],
      "stateMutability": "view",
      "type": "function",
      "constant": true
    },
    {
      "inputs": [],
      "name": "name",
      "outputs": [
        {
          "internalType": "string",
          "name": "",
          "type": "string"
        }
      ],
      "stateMutability": "view",
      "type": "function",
      "constant": true
    },
    {
      "inputs": [],
      "name": "owner",
      "outputs": [
        {
          "internalType": "address",
          "name": "",
          "type": "address"
        }
      ],
      "stateMutability": "view",
      "type": "function",
      "constant": true
    },
    {
      "inputs": [
        {
          "internalType": "uint256",
          "name": "tokenId",
          "type": "uint256"
        }
      ],
      "name": "ownerOf",
      "outputs": [
        {
          "internalType": "address",
          "name": "",
          "type": "address"
        }
      ],
      "stateMutability": "view",
      "type": "function",
      "constant": true
    },
    {
      "inputs": [],
      "name": "renounceOwnership",
      "outputs": [],
      "stateMutability": "nonpayable",
      "type": "function"
    },
    {
      "inputs": [
        {
          "internalType": "address",
          "name": "from",
          "type": "address"
        },
        {
          "internalType": "address",
          "name": "to",
          "type": "address"
        },
        {
          "internalType": "uint256",
          "name": "tokenId",
          "type": "uint256"
        }
      ],
      "name": "safeTransferFrom",
      "outputs": [],
      "stateMutability": "nonpayable",
      "type": "function"
    },
    {
      "inputs": [
        {
          "internalType": "address",
          "name": "from",
          "type": "address"
        },
        {
          "internalType": "address",
          "name": "to",
          "type": "address"
        },
        {
          "internalType": "uint256",
          "name": "tokenId",
          "type": "uint256"
        },
        {
          "internalType": "bytes",
          "name": "_data",
          "type": "bytes"
        }
      ],
      "name": "safeTransferFrom",
      "outputs": [],
      "stateMutability": "nonpayable",
      "type": "function"
    },
    {
      "inputs": [
        {
          "internalType": "address",
          "name": "operator",
          "type": "address"
        },
        {
          "internalType": "bool",
          "name": "approved",
          "type": "bool"
        }
      ],
      "name": "setApprovalForAll",
      "outputs": [],
      "stateMutability": "nonpayable",
      "type": "function"
    },
    {
      "inputs": [
        {
          "internalType": "bytes4",
          "name": "interfaceId",
          "type": "bytes4"
        }
      ],
      "name": "supportsInterface",
      "outputs": [
        {
          "internalType": "bool",
          "name": "",
          "type": "bool"
        }
      ],
      "stateMutability": "view",
      "type": "function",
      "constant": true
    },
    {
      "inputs": [],
      "name": "symbol",
      "outputs": [
        {
          "internalType": "string",
          "name": "",
          "type": "string"
        }
      ],
      "stateMutability": "view",
      "type": "function",
      "constant": true
    },
    {
      "inputs": [
        {
          "internalType": "uint256",
          "name": "tokenId",
          "type": "uint256"
        }
      ],
      "name": "tokenURI",
      "outputs": [
        {
          "internalType": "string",
          "name": "",
          "type": "string"
        }
      ],
      "stateMutability": "view",
      "type": "function",
      "constant": true
    },
    {
      "inputs": [
        {
          "internalType": "address",
          "name": "from",
          "type": "address"
        },
        {
          "internalType": "address",
          "name": "to",
          "type": "address"
        },
        {
          "internalType": "uint256",
          "name": "tokenId",
          "type": "uint256"
        }
      ],
      "name": "transferFrom",
      "outputs": [],
      "stateMutability": "nonpayable",
      "type": "function"
    },
    {
      "inputs": [
        {
          "internalType": "address",
          "name": "newOwner",
          "type": "address"
        }
      ],
      "name": "transferOwnership",
      "outputs": [],
      "stateMutability": "nonpayable",
      "type": "function"
    },
    {
      "inputs": [
        {
          "internalType": "string",
          "name": "_name",
          "type": "string"
        },
        {
          "internalType": "uint8",
          "name": "_tipo",
          "type": "uint8"
        },
        {
          "internalType": "address",
          "name": "_owner",
          "type": "address"
        }
      ],
      "name": "createCertificate",
      "outputs": [
        {
          "internalType": "uint256",
          "name": "",
          "type": "uint256"
        }
      ],
      "stateMutability": "nonpayable",
      "type": "function"
    },
    {
      "inputs": [
        {
          "internalType": "uint256",
          "name": "_index",
          "type": "uint256"
        }
      ],
      "name": "get",
      "outputs": [
        {
          "components": [
            {
              "internalType": "uint256",
              "name": "tokenId",
              "type": "uint256"
            },
            {
              "internalType": "string",
              "name": "name",
              "type": "string"
            },
            {
              "internalType": "uint8",
              "name": "tipo",
              "type": "uint8"
            },
            {
              "internalType": "address",
              "name": "owner",
              "type": "address"
            },
            {
              "internalType": "uint256",
              "name": "blockNumber",
              "type": "uint256"
            }
          ],
          "internalType": "struct Deccert.Certi",
          "name": "",
          "type": "tuple"
        }
      ],
      "stateMutability": "view",
      "type": "function",
      "constant": true
    },
    {
      "inputs": [
        {
          "internalType": "uint256",
          "name": "_index",
          "type": "uint256"
        }
      ],
      "name": "check",
      "outputs": [],
      "stateMutability": "view",
      "type": "function",
      "constant": true
    },
    {
      "inputs": [],
      "name": "dameTotal",
      "outputs": [
        {
          "internalType": "uint256",
          "name": "",
          "type": "uint256"
        }
      ],
      "stateMutability": "view",
      "type": "function",
      "constant": true
    }
  ],
  "bytecode": "0x60806040523480156200001157600080fd5b506040518060400160405280600781526020017f44656363657274000000000000000000000000000000000000000000000000008152506040518060400160405280600781526020017f4445434345525400000000000000000000000000000000000000000000000000815250816000908051906020019062000096929190620001a6565b508060019080519060200190620000af929190620001a6565b505050620000d2620000c6620000d860201b60201c565b620000e060201b60201c565b620002bb565b600033905090565b6000600660009054906101000a900473ffffffffffffffffffffffffffffffffffffffff16905081600660006101000a81548173ffffffffffffffffffffffffffffffffffffffff021916908373ffffffffffffffffffffffffffffffffffffffff1602179055508173ffffffffffffffffffffffffffffffffffffffff168173ffffffffffffffffffffffffffffffffffffffff167f8be0079c531659141344cd1fd0a4f28419497f9722a3daafe3b4186f6b6457e060405160405180910390a35050565b828054620001b49062000256565b90600052602060002090601f016020900481019282620001d8576000855562000224565b82601f10620001f357805160ff191683800117855562000224565b8280016001018555821562000224579182015b828111156200022357825182559160200191906001019062000206565b5b50905062000233919062000237565b5090565b5b808211156200025257600081600090555060010162000238565b5090565b600060028204905060018216806200026f57607f821691505b602082108114156200028657620002856200028c565b5b50919050565b7f4e487b7100000000000000000000000000000000000000000000000000000000600052602260045260246000fd5b6132a580620002cb6000396000f3fe608060405234801561001057600080fd5b50600436106101375760003560e01c8063715018a6116100b8578063a22cb4651161007c578063a22cb4651461034e578063b88d4fde1461036a578063c87b56dd14610386578063d1760fac146103b6578063e985e9c5146103e6578063f2fde38b1461041657610137565b8063715018a6146102a85780637d123d1d146102b25780638da5cb5b146102e25780639507d39a1461030057806395d89b411461033057610137565b806323b872dd116100ff57806323b872dd146101f457806342842e0e146102105780635f72f4501461022c5780636352211e1461024857806370a082311461027857610137565b806301ffc9a71461013c578063058c2ef51461016c57806306fdde031461018a578063081812fc146101a8578063095ea7b3146101d8575b600080fd5b6101566004803603810190610151919061219d565b610432565b6040516101639190612727565b60405180910390f35b610174610514565b6040516101819190612986565b60405180910390f35b610192610525565b60405161019f9190612742565b60405180910390f35b6101c260048036038101906101bd9190612297565b6105b7565b6040516101cf91906126c0565b60405180910390f35b6101f260048036038101906101ed9190612161565b61063c565b005b61020e6004803603810190610209919061205b565b610754565b005b61022a6004803603810190610225919061205b565b6107b4565b005b61024660048036038101906102419190612297565b6107d4565b005b610262600480360381019061025d9190612297565b610845565b60405161026f91906126c0565b60405180910390f35b610292600480360381019061028d9190611ff6565b6108f7565b60405161029f9190612986565b60405180910390f35b6102b06109af565b005b6102cc60048036038101906102c79190612230565b610a37565b6040516102d99190612986565b60405180910390f35b6102ea610be9565b6040516102f791906126c0565b60405180910390f35b61031a60048036038101906103159190612297565b610c13565b6040516103279190612964565b60405180910390f35b610338610d59565b6040516103459190612742565b60405180910390f35b61036860048036038101906103639190612125565b610deb565b005b610384600480360381019061037f91906120aa565b610e01565b005b6103a0600480360381019061039b9190612297565b610e63565b6040516103ad9190612742565b60405180910390f35b6103d060048036038101906103cb91906121ef565b610f0a565b6040516103dd9190612727565b60405180910390f35b61040060048036038101906103fb919061201f565b610f40565b60405161040d9190612727565b60405180910390f35b610430600480360381019061042b9190611ff6565b610fd4565b005b60007f80ac58cd000000000000000000000000000000000000000000000000000000007bffffffffffffffffffffffffffffffffffffffffffffffffffffffff1916827bffffffffffffffffffffffffffffffffffffffffffffffffffffffff191614806104fd57507f5b5e139f000000000000000000000000000000000000000000000000000000007bffffffffffffffffffffffffffffffffffffffffffffffffffffffff1916827bffffffffffffffffffffffffffffffffffffffffffffffffffffffff1916145b8061050d575061050c826110cc565b5b9050919050565b60006105206007611136565b905090565b60606000805461053490612bfa565b80601f016020809104026020016040519081016040528092919081815260200182805461056090612bfa565b80156105ad5780601f10610582576101008083540402835291602001916105ad565b820191906000526020600020905b81548152906001019060200180831161059057829003601f168201915b5050505050905090565b60006105c282611144565b610601576040517f08c379a00000000000000000000000000000000000000000000000000000000081526004016105f8906128c4565b60405180910390fd5b6004600083815260200190815260200160002060009054906101000a900473ffffffffffffffffffffffffffffffffffffffff169050919050565b600061064782610845565b90508073ffffffffffffffffffffffffffffffffffffffff168373ffffffffffffffffffffffffffffffffffffffff1614156106b8576040517f08c379a00000000000000000000000000000000000000000000000000000000081526004016106af90612924565b60405180910390fd5b8073ffffffffffffffffffffffffffffffffffffffff166106d76111b0565b73ffffffffffffffffffffffffffffffffffffffff1614806107065750610705816107006111b0565b610f40565b5b610745576040517f08c379a000000000000000000000000000000000000000000000000000000000815260040161073c90612844565b60405180910390fd5b61074f83836111b8565b505050565b61076561075f6111b0565b82611271565b6107a4576040517f08c379a000000000000000000000000000000000000000000000000000000000815260040161079b90612944565b60405180910390fd5b6107af83838361134f565b505050565b6107cf83838360405180602001604052806000815250610e01565b505050565b3373ffffffffffffffffffffffffffffffffffffffff16600a600083815260200190815260200160002060020160019054906101000a900473ffffffffffffffffffffffffffffffffffffffff1673ffffffffffffffffffffffffffffffffffffffff161461084257600080fd5b50565b6000806002600084815260200190815260200160002060009054906101000a900473ffffffffffffffffffffffffffffffffffffffff169050600073ffffffffffffffffffffffffffffffffffffffff168173ffffffffffffffffffffffffffffffffffffffff1614156108ee576040517f08c379a00000000000000000000000000000000000000000000000000000000081526004016108e590612884565b60405180910390fd5b80915050919050565b60008073ffffffffffffffffffffffffffffffffffffffff168273ffffffffffffffffffffffffffffffffffffffff161415610968576040517f08c379a000000000000000000000000000000000000000000000000000000000815260040161095f90612864565b60405180910390fd5b600360008373ffffffffffffffffffffffffffffffffffffffff1673ffffffffffffffffffffffffffffffffffffffff168152602001908152602001600020549050919050565b6109b76111b0565b73ffffffffffffffffffffffffffffffffffffffff166109d5610be9565b73ffffffffffffffffffffffffffffffffffffffff1614610a2b576040517f08c379a0000000000000000000000000000000000000000000000000000000008152600401610a22906128e4565b60405180910390fd5b610a3560006115b6565b565b6000610a416111b0565b73ffffffffffffffffffffffffffffffffffffffff16610a5f610be9565b73ffffffffffffffffffffffffffffffffffffffff1614610ab5576040517f08c379a0000000000000000000000000000000000000000000000000000000008152600401610aac906128e4565b60405180910390fd5b610abf600761167c565b6000610acb6007611136565b9050610ad78382611692565b60006040518060a00160405280610aee6007611136565b81526020018781526020018660ff1681526020018573ffffffffffffffffffffffffffffffffffffffff16815260200143815250905080600a6000610b336007611136565b8152602001908152602001600020600082015181600001556020820151816001019080519060200190610b67929190611dbd565b5060408201518160020160006101000a81548160ff021916908360ff16021790555060608201518160020160016101000a81548173ffffffffffffffffffffffffffffffffffffffff021916908373ffffffffffffffffffffffffffffffffffffffff1602179055506080820151816003015590505081925050509392505050565b6000600660009054906101000a900473ffffffffffffffffffffffffffffffffffffffff16905090565b610c1b611e43565b600a60008381526020019081526020016000206040518060a001604052908160008201548152602001600182018054610c5390612bfa565b80601f0160208091040260200160405190810160405280929190818152602001828054610c7f90612bfa565b8015610ccc5780601f10610ca157610100808354040283529160200191610ccc565b820191906000526020600020905b815481529060010190602001808311610caf57829003601f168201915b505050505081526020016002820160009054906101000a900460ff1660ff1660ff1681526020016002820160019054906101000a900473ffffffffffffffffffffffffffffffffffffffff1673ffffffffffffffffffffffffffffffffffffffff1673ffffffffffffffffffffffffffffffffffffffff1681526020016003820154815250509050919050565b606060018054610d6890612bfa565b80601f0160208091040260200160405190810160405280929190818152602001828054610d9490612bfa565b8015610de15780601f10610db657610100808354040283529160200191610de1565b820191906000526020600020905b815481529060010190602001808311610dc457829003601f168201915b5050505050905090565b610dfd610df66111b0565b838361186c565b5050565b610e12610e0c6111b0565b83611271565b610e51576040517f08c379a0000000000000000000000000000000000000000000000000000000008152600401610e4890612944565b60405180910390fd5b610e5d848484846119d9565b50505050565b6060610e6e82611144565b610ead576040517f08c379a0000000000000000000000000000000000000000000000000000000008152600401610ea490612904565b60405180910390fd5b6000610eb7611a35565b90506000815111610ed75760405180602001604052806000815250610f02565b80610ee184611a4c565b604051602001610ef292919061269c565b6040516020818303038152906040525b915050919050565b6009818051602081018201805184825260208301602085012081835280955050505050506000915054906101000a900460ff1681565b6000600560008473ffffffffffffffffffffffffffffffffffffffff1673ffffffffffffffffffffffffffffffffffffffff16815260200190815260200160002060008373ffffffffffffffffffffffffffffffffffffffff1673ffffffffffffffffffffffffffffffffffffffff16815260200190815260200160002060009054906101000a900460ff16905092915050565b610fdc6111b0565b73ffffffffffffffffffffffffffffffffffffffff16610ffa610be9565b73ffffffffffffffffffffffffffffffffffffffff1614611050576040517f08c379a0000000000000000000000000000000000000000000000000000000008152600401611047906128e4565b60405180910390fd5b600073ffffffffffffffffffffffffffffffffffffffff168173ffffffffffffffffffffffffffffffffffffffff1614156110c0576040517f08c379a00000000000000000000000000000000000000000000000000000000081526004016110b790612784565b60405180910390fd5b6110c9816115b6565b50565b60007f01ffc9a7000000000000000000000000000000000000000000000000000000007bffffffffffffffffffffffffffffffffffffffffffffffffffffffff1916827bffffffffffffffffffffffffffffffffffffffffffffffffffffffff1916149050919050565b600081600001549050919050565b60008073ffffffffffffffffffffffffffffffffffffffff166002600084815260200190815260200160002060009054906101000a900473ffffffffffffffffffffffffffffffffffffffff1673ffffffffffffffffffffffffffffffffffffffff1614159050919050565b600033905090565b816004600083815260200190815260200160002060006101000a81548173ffffffffffffffffffffffffffffffffffffffff021916908373ffffffffffffffffffffffffffffffffffffffff160217905550808273ffffffffffffffffffffffffffffffffffffffff1661122b83610845565b73ffffffffffffffffffffffffffffffffffffffff167f8c5be1e5ebec7d5bd14f71427d1e84f3dd0314c0f7b2291e5b200ac8c7c3b92560405160405180910390a45050565b600061127c82611144565b6112bb576040517f08c379a00000000000000000000000000000000000000000000000000000000081526004016112b290612824565b60405180910390fd5b60006112c683610845565b90508073ffffffffffffffffffffffffffffffffffffffff168473ffffffffffffffffffffffffffffffffffffffff16148061133557508373ffffffffffffffffffffffffffffffffffffffff1661131d846105b7565b73ffffffffffffffffffffffffffffffffffffffff16145b8061134657506113458185610f40565b5b91505092915050565b8273ffffffffffffffffffffffffffffffffffffffff1661136f82610845565b73ffffffffffffffffffffffffffffffffffffffff16146113c5576040517f08c379a00000000000000000000000000000000000000000000000000000000081526004016113bc906127a4565b60405180910390fd5b600073ffffffffffffffffffffffffffffffffffffffff168273ffffffffffffffffffffffffffffffffffffffff161415611435576040517f08c379a000000000000000000000000000000000000000000000000000000000815260040161142c906127e4565b60405180910390fd5b611440838383611bf9565b61144b6000826111b8565b6001600360008573ffffffffffffffffffffffffffffffffffffffff1673ffffffffffffffffffffffffffffffffffffffff168152602001908152602001600020600082825461149b9190612b03565b925050819055506001600360008473ffffffffffffffffffffffffffffffffffffffff1673ffffffffffffffffffffffffffffffffffffffff16815260200190815260200160002060008282546114f29190612a7c565b92505081905550816002600083815260200190815260200160002060006101000a81548173ffffffffffffffffffffffffffffffffffffffff021916908373ffffffffffffffffffffffffffffffffffffffff160217905550808273ffffffffffffffffffffffffffffffffffffffff168473ffffffffffffffffffffffffffffffffffffffff167fddf252ad1be2c89b69c2b068fc378daa952ba7f163c4a11628f55a4df523b3ef60405160405180910390a46115b1838383611bfe565b505050565b6000600660009054906101000a900473ffffffffffffffffffffffffffffffffffffffff16905081600660006101000a81548173ffffffffffffffffffffffffffffffffffffffff021916908373ffffffffffffffffffffffffffffffffffffffff1602179055508173ffffffffffffffffffffffffffffffffffffffff168173ffffffffffffffffffffffffffffffffffffffff167f8be0079c531659141344cd1fd0a4f28419497f9722a3daafe3b4186f6b6457e060405160405180910390a35050565b6001816000016000828254019250508190555050565b600073ffffffffffffffffffffffffffffffffffffffff168273ffffffffffffffffffffffffffffffffffffffff161415611702576040517f08c379a00000000000000000000000000000000000000000000000000000000081526004016116f9906128a4565b60405180910390fd5b61170b81611144565b1561174b576040517f08c379a0000000000000000000000000000000000000000000000000000000008152600401611742906127c4565b60405180910390fd5b61175760008383611bf9565b6001600360008473ffffffffffffffffffffffffffffffffffffffff1673ffffffffffffffffffffffffffffffffffffffff16815260200190815260200160002060008282546117a79190612a7c565b92505081905550816002600083815260200190815260200160002060006101000a81548173ffffffffffffffffffffffffffffffffffffffff021916908373ffffffffffffffffffffffffffffffffffffffff160217905550808273ffffffffffffffffffffffffffffffffffffffff16600073ffffffffffffffffffffffffffffffffffffffff167fddf252ad1be2c89b69c2b068fc378daa952ba7f163c4a11628f55a4df523b3ef60405160405180910390a461186860008383611bfe565b5050565b8173ffffffffffffffffffffffffffffffffffffffff168373ffffffffffffffffffffffffffffffffffffffff1614156118db576040517f08c379a00000000000000000000000000000000000000000000000000000000081526004016118d290612804565b60405180910390fd5b80600560008573ffffffffffffffffffffffffffffffffffffffff1673ffffffffffffffffffffffffffffffffffffffff16815260200190815260200160002060008473ffffffffffffffffffffffffffffffffffffffff1673ffffffffffffffffffffffffffffffffffffffff16815260200190815260200160002060006101000a81548160ff0219169083151502179055508173ffffffffffffffffffffffffffffffffffffffff168373ffffffffffffffffffffffffffffffffffffffff167f17307eab39ab6107e8899845ad3d59bd9653f200f220920489ca2b5937696c31836040516119cc9190612727565b60405180910390a3505050565b6119e484848461134f565b6119f084848484611c03565b611a2f576040517f08c379a0000000000000000000000000000000000000000000000000000000008152600401611a2690612764565b60405180910390fd5b50505050565b606060405180602001604052806000815250905090565b60606000821415611a94576040518060400160405280600181526020017f30000000000000000000000000000000000000000000000000000000000000008152509050611bf4565b600082905060005b60008214611ac6578080611aaf90612c5d565b915050600a82611abf9190612ad2565b9150611a9c565b60008167ffffffffffffffff811115611b08577f4e487b7100000000000000000000000000000000000000000000000000000000600052604160045260246000fd5b6040519080825280601f01601f191660200182016040528015611b3a5781602001600182028036833780820191505090505b5090505b60008514611bed57600182611b539190612b03565b9150600a85611b629190612ca6565b6030611b6e9190612a7c565b60f81b818381518110611baa577f4e487b7100000000000000000000000000000000000000000000000000000000600052603260045260246000fd5b60200101907effffffffffffffffffffffffffffffffffffffffffffffffffffffffffffff1916908160001a905350600a85611be69190612ad2565b9450611b3e565b8093505050505b919050565b505050565b505050565b6000611c248473ffffffffffffffffffffffffffffffffffffffff16611d9a565b15611d8d578373ffffffffffffffffffffffffffffffffffffffff1663150b7a02611c4d6111b0565b8786866040518563ffffffff1660e01b8152600401611c6f94939291906126db565b602060405180830381600087803b158015611c8957600080fd5b505af1925050508015611cba57506040513d601f19601f82011682018060405250810190611cb791906121c6565b60015b611d3d573d8060008114611cea576040519150601f19603f3d011682016040523d82523d6000602084013e611cef565b606091505b50600081511415611d35576040517f08c379a0000000000000000000000000000000000000000000000000000000008152600401611d2c90612764565b60405180910390fd5b805181602001fd5b63150b7a0260e01b7bffffffffffffffffffffffffffffffffffffffffffffffffffffffff1916817bffffffffffffffffffffffffffffffffffffffffffffffffffffffff191614915050611d92565b600190505b949350505050565b6000808273ffffffffffffffffffffffffffffffffffffffff163b119050919050565b828054611dc990612bfa565b90600052602060002090601f016020900481019282611deb5760008555611e32565b82601f10611e0457805160ff1916838001178555611e32565b82800160010185558215611e32579182015b82811115611e31578251825591602001919060010190611e16565b5b509050611e3f9190611e8b565b5090565b6040518060a001604052806000815260200160608152602001600060ff168152602001600073ffffffffffffffffffffffffffffffffffffffff168152602001600081525090565b5b80821115611ea4576000816000905550600101611e8c565b5090565b6000611ebb611eb6846129c6565b6129a1565b905082815260208101848484011115611ed357600080fd5b611ede848285612bb8565b509392505050565b6000611ef9611ef4846129f7565b6129a1565b905082815260208101848484011115611f1157600080fd5b611f1c848285612bb8565b509392505050565b600081359050611f33816131fc565b92915050565b600081359050611f4881613213565b92915050565b600081359050611f5d8161322a565b92915050565b600081519050611f728161322a565b92915050565b600082601f830112611f8957600080fd5b8135611f99848260208601611ea8565b91505092915050565b600082601f830112611fb357600080fd5b8135611fc3848260208601611ee6565b91505092915050565b600081359050611fdb81613241565b92915050565b600081359050611ff081613258565b92915050565b60006020828403121561200857600080fd5b600061201684828501611f24565b91505092915050565b6000806040838503121561203257600080fd5b600061204085828601611f24565b925050602061205185828601611f24565b9150509250929050565b60008060006060848603121561207057600080fd5b600061207e86828701611f24565b935050602061208f86828701611f24565b92505060406120a086828701611fcc565b9150509250925092565b600080600080608085870312156120c057600080fd5b60006120ce87828801611f24565b94505060206120df87828801611f24565b93505060406120f087828801611fcc565b925050606085013567ffffffffffffffff81111561210d57600080fd5b61211987828801611f78565b91505092959194509250565b6000806040838503121561213857600080fd5b600061214685828601611f24565b925050602061215785828601611f39565b9150509250929050565b6000806040838503121561217457600080fd5b600061218285828601611f24565b925050602061219385828601611fcc565b9150509250929050565b6000602082840312156121af57600080fd5b60006121bd84828501611f4e565b91505092915050565b6000602082840312156121d857600080fd5b60006121e684828501611f63565b91505092915050565b60006020828403121561220157600080fd5b600082013567ffffffffffffffff81111561221b57600080fd5b61222784828501611fa2565b91505092915050565b60008060006060848603121561224557600080fd5b600084013567ffffffffffffffff81111561225f57600080fd5b61226b86828701611fa2565b935050602061227c86828701611fe1565b925050604061228d86828701611f24565b9150509250925092565b6000602082840312156122a957600080fd5b60006122b784828501611fcc565b91505092915050565b6122c981612b37565b82525050565b6122d881612b37565b82525050565b6122e781612b49565b82525050565b60006122f882612a28565b6123028185612a3e565b9350612312818560208601612bc7565b61231b81612d93565b840191505092915050565b600061233182612a33565b61233b8185612a4f565b935061234b818560208601612bc7565b61235481612d93565b840191505092915050565b600061236a82612a33565b6123748185612a60565b9350612384818560208601612bc7565b61238d81612d93565b840191505092915050565b60006123a382612a33565b6123ad8185612a71565b93506123bd818560208601612bc7565b80840191505092915050565b60006123d6603283612a60565b91506123e182612da4565b604082019050919050565b60006123f9602683612a60565b915061240482612df3565b604082019050919050565b600061241c602583612a60565b915061242782612e42565b604082019050919050565b600061243f601c83612a60565b915061244a82612e91565b602082019050919050565b6000612462602483612a60565b915061246d82612eba565b604082019050919050565b6000612485601983612a60565b915061249082612f09565b602082019050919050565b60006124a8602c83612a60565b91506124b382612f32565b604082019050919050565b60006124cb603883612a60565b91506124d682612f81565b604082019050919050565b60006124ee602a83612a60565b91506124f982612fd0565b604082019050919050565b6000612511602983612a60565b915061251c8261301f565b604082019050919050565b6000612534602083612a60565b915061253f8261306e565b602082019050919050565b6000612557602c83612a60565b915061256282613097565b604082019050919050565b600061257a602083612a60565b9150612585826130e6565b602082019050919050565b600061259d602f83612a60565b91506125a88261310f565b604082019050919050565b60006125c0602183612a60565b91506125cb8261315e565b604082019050919050565b60006125e3603183612a60565b91506125ee826131ad565b604082019050919050565b600060a083016000830151612611600086018261266f565b50602083015184820360208601526126298282612326565b915050604083015161263e604086018261268d565b50606083015161265160608601826122c0565b506080830151612664608086018261266f565b508091505092915050565b61267881612ba1565b82525050565b61268781612ba1565b82525050565b61269681612bab565b82525050565b60006126a88285612398565b91506126b48284612398565b91508190509392505050565b60006020820190506126d560008301846122cf565b92915050565b60006080820190506126f060008301876122cf565b6126fd60208301866122cf565b61270a604083018561267e565b818103606083015261271c81846122ed565b905095945050505050565b600060208201905061273c60008301846122de565b92915050565b6000602082019050818103600083015261275c818461235f565b905092915050565b6000602082019050818103600083015261277d816123c9565b9050919050565b6000602082019050818103600083015261279d816123ec565b9050919050565b600060208201905081810360008301526127bd8161240f565b9050919050565b600060208201905081810360008301526127dd81612432565b9050919050565b600060208201905081810360008301526127fd81612455565b9050919050565b6000602082019050818103600083015261281d81612478565b9050919050565b6000602082019050818103600083015261283d8161249b565b9050919050565b6000602082019050818103600083015261285d816124be565b9050919050565b6000602082019050818103600083015261287d816124e1565b9050919050565b6000602082019050818103600083015261289d81612504565b9050919050565b600060208201905081810360008301526128bd81612527565b9050919050565b600060208201905081810360008301526128dd8161254a565b9050919050565b600060208201905081810360008301526128fd8161256d565b9050919050565b6000602082019050818103600083015261291d81612590565b9050919050565b6000602082019050818103600083015261293d816125b3565b9050919050565b6000602082019050818103600083015261295d816125d6565b9050919050565b6000602082019050818103600083015261297e81846125f9565b905092915050565b600060208201905061299b600083018461267e565b92915050565b60006129ab6129bc565b90506129b78282612c2c565b919050565b6000604051905090565b600067ffffffffffffffff8211156129e1576129e0612d64565b5b6129ea82612d93565b9050602081019050919050565b600067ffffffffffffffff821115612a1257612a11612d64565b5b612a1b82612d93565b9050602081019050919050565b600081519050919050565b600081519050919050565b600082825260208201905092915050565b600082825260208201905092915050565b600082825260208201905092915050565b600081905092915050565b6000612a8782612ba1565b9150612a9283612ba1565b9250827fffffffffffffffffffffffffffffffffffffffffffffffffffffffffffffffff03821115612ac757612ac6612cd7565b5b828201905092915050565b6000612add82612ba1565b9150612ae883612ba1565b925082612af857612af7612d06565b5b828204905092915050565b6000612b0e82612ba1565b9150612b1983612ba1565b925082821015612b2c57612b2b612cd7565b5b828203905092915050565b6000612b4282612b81565b9050919050565b60008115159050919050565b60007fffffffff0000000000000000000000000000000000000000000000000000000082169050919050565b600073ffffffffffffffffffffffffffffffffffffffff82169050919050565b6000819050919050565b600060ff82169050919050565b82818337600083830152505050565b60005b83811015612be5578082015181840152602081019050612bca565b83811115612bf4576000848401525b50505050565b60006002820490506001821680612c1257607f821691505b60208210811415612c2657612c25612d35565b5b50919050565b612c3582612d93565b810181811067ffffffffffffffff82111715612c5457612c53612d64565b5b80604052505050565b6000612c6882612ba1565b91507fffffffffffffffffffffffffffffffffffffffffffffffffffffffffffffffff821415612c9b57612c9a612cd7565b5b600182019050919050565b6000612cb182612ba1565b9150612cbc83612ba1565b925082612ccc57612ccb612d06565b5b828206905092915050565b7f4e487b7100000000000000000000000000000000000000000000000000000000600052601160045260246000fd5b7f4e487b7100000000000000000000000000000000000000000000000000000000600052601260045260246000fd5b7f4e487b7100000000000000000000000000000000000000000000000000000000600052602260045260246000fd5b7f4e487b7100000000000000000000000000000000000000000000000000000000600052604160045260246000fd5b6000601f19601f8301169050919050565b7f4552433732313a207472616e7366657220746f206e6f6e20455243373231526560008201527f63656976657220696d706c656d656e7465720000000000000000000000000000602082015250565b7f4f776e61626c653a206e6577206f776e657220697320746865207a65726f206160008201527f6464726573730000000000000000000000000000000000000000000000000000602082015250565b7f4552433732313a207472616e736665722066726f6d20696e636f72726563742060008201527f6f776e6572000000000000000000000000000000000000000000000000000000602082015250565b7f4552433732313a20746f6b656e20616c7265616479206d696e74656400000000600082015250565b7f4552433732313a207472616e7366657220746f20746865207a65726f2061646460008201527f7265737300000000000000000000000000000000000000000000000000000000602082015250565b7f4552433732313a20617070726f766520746f2063616c6c657200000000000000600082015250565b7f4552433732313a206f70657261746f7220717565727920666f72206e6f6e657860008201527f697374656e7420746f6b656e0000000000000000000000000000000000000000602082015250565b7f4552433732313a20617070726f76652063616c6c6572206973206e6f74206f7760008201527f6e6572206e6f7220617070726f76656420666f7220616c6c0000000000000000602082015250565b7f4552433732313a2062616c616e636520717565727920666f7220746865207a6560008201527f726f206164647265737300000000000000000000000000000000000000000000602082015250565b7f4552433732313a206f776e657220717565727920666f72206e6f6e657869737460008201527f656e7420746f6b656e0000000000000000000000000000000000000000000000602082015250565b7f4552433732313a206d696e7420746f20746865207a65726f2061646472657373600082015250565b7f4552433732313a20617070726f76656420717565727920666f72206e6f6e657860008201527f697374656e7420746f6b656e0000000000000000000000000000000000000000602082015250565b7f4f776e61626c653a2063616c6c6572206973206e6f7420746865206f776e6572600082015250565b7f4552433732314d657461646174613a2055524920717565727920666f72206e6f60008201527f6e6578697374656e7420746f6b656e0000000000000000000000000000000000602082015250565b7f4552433732313a20617070726f76616c20746f2063757272656e74206f776e6560008201527f7200000000000000000000000000000000000000000000000000000000000000602082015250565b7f4552433732313a207472616e736665722063616c6c6572206973206e6f74206f60008201527f776e6572206e6f7220617070726f766564000000000000000000000000000000602082015250565b61320581612b37565b811461321057600080fd5b50565b61321c81612b49565b811461322757600080fd5b50565b61323381612b55565b811461323e57600080fd5b50565b61324a81612ba1565b811461325557600080fd5b50565b61326181612bab565b811461326c57600080fd5b5056fea2646970667358221220ec846d0dac8422bcf6a34c812feb58f404f858cdfe55bb2d40d524c3c051077464736f6c63430008030033",
  "immutableReferences": {},
  "source": "// SPDX-License-Identifier: MIT\npragma solidity ^0.8.0;\n\nimport \"@openzeppelin/contracts/token/ERC721/ERC721.sol\";\nimport \"@openzeppelin/contracts/utils/Counters.sol\";\nimport \"@openzeppelin/contracts/access/Ownable.sol\";\n\n\ncontract Deccert is ERC721,Ownable{\n\n    using Counters for Counters.Counter;\n    Counters.Counter private _tokenIds;\n \n    mapping(address=>uint256) private tolerance;\n    //check the string use by the user is not repeat\n    mapping(string=>bool)public _names;\n\n  constructor() ERC721(\"Deccert\", \"DECCERT\") {}\n\n   struct Certi {\n      uint256 tokenId;\n      string name;\n      uint8 tipo;\n      address owner;\n      uint256 blockNumber;\n  }\n\n\n    \n  mapping(uint256=>Certi) _certificados ;\n\n  function createCertificate(\n    string memory _name,\n    uint8 _tipo,\n    address _owner) external onlyOwner returns (uint256){\n\n    _tokenIds.increment();\n\n    uint256 newItemId = _tokenIds.current();\n    _mint(_owner, newItemId);\n\n\n    Certi memory newCerti= Certi(\n    _tokenIds.current(),//token id of hashima\n    _name,\n    _tipo,\n    _owner,\n    block.number);\n\n    _certificados[_tokenIds.current()] = newCerti;\n\n    return newItemId;\n\n  }\n\n  function get(uint256 _index)public view returns(Certi memory){\n        return _certificados[_index];\n  }\n  \n  function check(uint256 _index)external view{\n        require(_certificados[_index].owner==msg.sender);\n  }\n\n\n  function dameTotal()public view returns(uint256){\n      return(_tokenIds.current());\n  }\n\n\n}\n",
  "sourcePath": "/Users/aarontolentino/Documents/AcademiaCrypto/Deccert/contracts/Deccert.sol",
  "compiler": {
    "name": "solc",
    "version": "0.8.3+commit.8d00100c.Emscripten.clang"
  },
  "schemaVersion": "3.4.1",
  "updatedAt": "2022-05-09T16:17:34.076Z",
  "networkType": "ethereum",
  "devdoc": {
    "kind": "dev",
    "methods": {
      "approve(address,uint256)": {
        "details": "See {IERC721-approve}."
      },
      "balanceOf(address)": {
        "details": "See {IERC721-balanceOf}."
      },
      "getApproved(uint256)": {
        "details": "See {IERC721-getApproved}."
      },
      "isApprovedForAll(address,address)": {
        "details": "See {IERC721-isApprovedForAll}."
      },
      "name()": {
        "details": "See {IERC721Metadata-name}."
      },
      "owner()": {
        "details": "Returns the address of the current owner."
      },
      "ownerOf(uint256)": {
        "details": "See {IERC721-ownerOf}."
      },
      "renounceOwnership()": {
        "details": "Leaves the contract without owner. It will not be possible to call `onlyOwner` functions anymore. Can only be called by the current owner. NOTE: Renouncing ownership will leave the contract without an owner, thereby removing any functionality that is only available to the owner."
      },
      "safeTransferFrom(address,address,uint256)": {
        "details": "See {IERC721-safeTransferFrom}."
      },
      "safeTransferFrom(address,address,uint256,bytes)": {
        "details": "See {IERC721-safeTransferFrom}."
      },
      "setApprovalForAll(address,bool)": {
        "details": "See {IERC721-setApprovalForAll}."
      },
      "supportsInterface(bytes4)": {
        "details": "See {IERC165-supportsInterface}."
      },
      "symbol()": {
        "details": "See {IERC721Metadata-symbol}."
      },
      "tokenURI(uint256)": {
        "details": "See {IERC721Metadata-tokenURI}."
      },
      "transferFrom(address,address,uint256)": {
        "details": "See {IERC721-transferFrom}."
      },
      "transferOwnership(address)": {
        "details": "Transfers ownership of the contract to a new account (`newOwner`). Can only be called by the current owner."
      }
    },
    "version": 1
  },
  "userdoc": {
    "kind": "user",
    "methods": {},
    "version": 1
  }
}